{
  "contracts/StableCoin.sol": {
    "StableCoin": {
      "abi": [
        {
          "inputs": [
            {
              "internalType": "uint256",
              "name": "_feeRatePercentage",
              "type": "uint256"
            },
            {
              "internalType": "contract Oracle",
              "name": "_oracle",
              "type": "address"
            }
          ],
          "stateMutability": "nonpayable",
          "type": "constructor"
        },
        {
          "inputs": [
            {
              "internalType": "string",
              "name": "message",
              "type": "string"
            },
            {
              "internalType": "uint256",
              "name": "minimumDepositAmount",
              "type": "uint256"
            }
          ],
          "name": "InitialCollateralRatioError",
          "type": "error"
        },
        {
          "anonymous": false,
          "inputs": [
            {
              "indexed": true,
              "internalType": "address",
              "name": "owner",
              "type": "address"
            },
            {
              "indexed": true,
              "internalType": "address",
              "name": "spender",
              "type": "address"
            },
            {
              "indexed": false,
              "internalType": "uint256",
              "name": "value",
              "type": "uint256"
            }
          ],
          "name": "Approval",
          "type": "event"
        },
        {
          "anonymous": false,
          "inputs": [
            {
              "indexed": true,
              "internalType": "address",
              "name": "from",
              "type": "address"
            },
            {
              "indexed": true,
              "internalType": "address",
              "name": "to",
              "type": "address"
            },
            {
              "indexed": false,
              "internalType": "uint256",
              "name": "value",
              "type": "uint256"
            }
          ],
          "name": "Transfer",
          "type": "event"
        },
        {
          "inputs": [],
          "name": "INITIAL_COLLATERAL_RATIO_PERCENTAGE",
          "outputs": [
            {
              "internalType": "uint256",
              "name": "",
              "type": "uint256"
            }
          ],
          "stateMutability": "view",
          "type": "function"
        },
        {
          "inputs": [
            {
              "internalType": "address",
              "name": "",
              "type": "address"
            },
            {
              "internalType": "address",
              "name": "",
              "type": "address"
            }
          ],
          "name": "allowance",
          "outputs": [
            {
              "internalType": "uint256",
              "name": "",
              "type": "uint256"
            }
          ],
          "stateMutability": "view",
          "type": "function"
        },
        {
          "inputs": [
            {
              "internalType": "address",
              "name": "spender",
              "type": "address"
            },
            {
              "internalType": "uint256",
              "name": "amount",
              "type": "uint256"
            }
          ],
          "name": "approve",
          "outputs": [
            {
              "internalType": "bool",
              "name": "",
              "type": "bool"
            }
          ],
          "stateMutability": "nonpayable",
          "type": "function"
        },
        {
          "inputs": [
            {
              "internalType": "address",
              "name": "",
              "type": "address"
            }
          ],
          "name": "balanceOf",
          "outputs": [
            {
              "internalType": "uint256",
              "name": "",
              "type": "uint256"
            }
          ],
          "stateMutability": "view",
          "type": "function"
        },
        {
          "inputs": [
            {
              "internalType": "uint256",
              "name": "burnStableCoinAmount",
              "type": "uint256"
            }
          ],
          "name": "burn",
          "outputs": [],
          "stateMutability": "nonpayable",
          "type": "function"
        },
        {
          "inputs": [],
          "name": "decimals",
          "outputs": [
            {
              "internalType": "uint8",
              "name": "",
              "type": "uint8"
            }
          ],
          "stateMutability": "pure",
          "type": "function"
        },
        {
          "inputs": [
            {
              "internalType": "address",
              "name": "to",
              "type": "address"
            }
          ],
          "name": "deposit",
          "outputs": [],
          "stateMutability": "payable",
          "type": "function"
        },
        {
          "inputs": [],
          "name": "depositCollateralBuffer",
          "outputs": [],
          "stateMutability": "payable",
          "type": "function"
        },
        {
          "inputs": [],
          "name": "depositorCoin",
          "outputs": [
            {
              "internalType": "contract DepositorCoin",
              "name": "",
              "type": "address"
            }
          ],
          "stateMutability": "view",
          "type": "function"
        },
        {
          "inputs": [],
          "name": "feeRatePercentage",
          "outputs": [
            {
              "internalType": "uint256",
              "name": "",
              "type": "uint256"
            }
          ],
          "stateMutability": "view",
          "type": "function"
        },
        {
          "inputs": [],
          "name": "mint",
          "outputs": [],
          "stateMutability": "payable",
          "type": "function"
        },
        {
          "inputs": [],
          "name": "name",
          "outputs": [
            {
              "internalType": "string",
              "name": "",
              "type": "string"
            }
          ],
          "stateMutability": "view",
          "type": "function"
        },
        {
          "inputs": [],
          "name": "oracle",
          "outputs": [
            {
              "internalType": "contract Oracle",
              "name": "",
              "type": "address"
            }
          ],
          "stateMutability": "view",
          "type": "function"
        },
        {
          "inputs": [
            {
              "internalType": "uint256",
              "name": "amount",
              "type": "uint256"
            }
          ],
          "name": "redeem",
          "outputs": [],
          "stateMutability": "nonpayable",
          "type": "function"
        },
        {
          "inputs": [],
          "name": "symbol",
          "outputs": [
            {
              "internalType": "string",
              "name": "",
              "type": "string"
            }
          ],
          "stateMutability": "view",
          "type": "function"
        },
        {
          "inputs": [],
          "name": "totalSupply",
          "outputs": [
            {
              "internalType": "uint256",
              "name": "",
              "type": "uint256"
            }
          ],
          "stateMutability": "view",
          "type": "function"
        },
        {
          "inputs": [
            {
              "internalType": "address",
              "name": "recipient",
              "type": "address"
            },
            {
              "internalType": "uint256",
              "name": "amount",
              "type": "uint256"
            }
          ],
          "name": "transfer",
          "outputs": [
            {
              "internalType": "bool",
              "name": "",
              "type": "bool"
            }
          ],
          "stateMutability": "nonpayable",
          "type": "function"
        },
        {
          "inputs": [
            {
              "internalType": "address",
              "name": "sender",
              "type": "address"
            },
            {
              "internalType": "address",
              "name": "recipient",
              "type": "address"
            },
            {
              "internalType": "uint256",
              "name": "amount",
              "type": "uint256"
            }
          ],
          "name": "transferFrom",
          "outputs": [
            {
              "internalType": "bool",
              "name": "",
              "type": "bool"
            }
          ],
          "stateMutability": "nonpayable",
          "type": "function"
        },
        {
          "inputs": [
            {
              "internalType": "uint256",
              "name": "burnDepositorCoinAmount",
              "type": "uint256"
            }
          ],
          "name": "withdrawCollateralBuffer",
          "outputs": [],
          "stateMutability": "nonpayable",
          "type": "function"
        }
      ],
      "evm": {
        "bytecode": {
          "linkReferences": {},
          "object": "60806040523480156200001157600080fd5b5060405162004b5038038062004b508339818101604052810190620000379190620003fb565b6040518060400160405280600a81526020017f537461626c65436f696e000000000000000000000000000000000000000000008152506040518060400160405280600381526020017f53544300000000000000000000000000000000000000000000000000000000008152508160019080519060200190620000bb92919062000292565b508060029080519060200190620000d492919062000292565b50620000f03368056bc75e2d631000006200014260201b60201c565b50508160068190555080600760006101000a81548173ffffffffffffffffffffffffffffffffffffffff021916908373ffffffffffffffffffffffffffffffffffffffff1602179055505050620005e3565b600073ffffffffffffffffffffffffffffffffffffffff168273ffffffffffffffffffffffffffffffffffffffff1603620001b4576040517f08c379a0000000000000000000000000000000000000000000000000000000008152600401620001ab90620004a3565b60405180910390fd5b80600080828254620001c79190620004f4565b9250508190555080600360008473ffffffffffffffffffffffffffffffffffffffff1673ffffffffffffffffffffffffffffffffffffffff16815260200190815260200160002060008282546200021f9190620004f4565b925050819055508173ffffffffffffffffffffffffffffffffffffffff16600073ffffffffffffffffffffffffffffffffffffffff167fddf252ad1be2c89b69c2b068fc378daa952ba7f163c4a11628f55a4df523b3ef8360405162000286919062000562565b60405180910390a35050565b828054620002a090620005ae565b90600052602060002090601f016020900481019282620002c4576000855562000310565b82601f10620002df57805160ff191683800117855562000310565b8280016001018555821562000310579182015b828111156200030f578251825591602001919060010190620002f2565b5b5090506200031f919062000323565b5090565b5b808211156200033e57600081600090555060010162000324565b5090565b600080fd5b6000819050919050565b6200035c8162000347565b81146200036857600080fd5b50565b6000815190506200037c8162000351565b92915050565b600073ffffffffffffffffffffffffffffffffffffffff82169050919050565b6000620003af8262000382565b9050919050565b6000620003c382620003a2565b9050919050565b620003d581620003b6565b8114620003e157600080fd5b50565b600081519050620003f581620003ca565b92915050565b6000806040838503121562000415576200041462000342565b5b600062000425858286016200036b565b92505060206200043885828601620003e4565b9150509250929050565b600082825260208201905092915050565b7f6d696e7420746f207a65726f2061646472657373000000000000000000000000600082015250565b60006200048b60148362000442565b9150620004988262000453565b602082019050919050565b60006020820190508181036000830152620004be816200047c565b9050919050565b7f4e487b7100000000000000000000000000000000000000000000000000000000600052601160045260246000fd5b6000620005018262000347565b91506200050e8362000347565b9250827fffffffffffffffffffffffffffffffffffffffffffffffffffffffffffffffff03821115620005465762000545620004c5565b5b828201905092915050565b6200055c8162000347565b82525050565b600060208201905062000579600083018462000551565b92915050565b7f4e487b7100000000000000000000000000000000000000000000000000000000600052602260045260246000fd5b60006002820490506001821680620005c757607f821691505b602082108103620005dd57620005dc6200057f565b5b50919050565b61455d80620005f36000396000f3fe6080604052600436106200012e5760003560e01c806378e037ba11620000af578063c6fbba3f116200006d578063c6fbba3f14620003d9578063cf1137ff1462000407578063db006a751462000437578063dd62ed3e1462000465578063f340fa0114620004a9576200012e565b806378e037ba14620002d55780637dc0d1d0146200030557806395d89b411462000335578063a9059cbb1462000365578063aba98b6014620003a9576200012e565b806323b872dd11620000fd57806323b872dd14620001e3578063313ce567146200022757806337707fb8146200025757806342966c68146200026357806370a082311462000291576200012e565b806306fdde031462000133578063095ea7b314620001635780631249c58b14620001a757806318160ddd14620001b3575b600080fd5b3480156200014057600080fd5b506200014b620004c9565b6040516200015a919062001c71565b60405180910390f35b3480156200017057600080fd5b506200018f600480360381019062000189919062001d3a565b6200055f565b6040516200019e919062001d9e565b60405180910390f35b620001b1620006c4565b005b348015620001c057600080fd5b50620001cb6200079b565b604051620001da919062001dcc565b60405180910390f35b348015620001f057600080fd5b506200020f600480360381019062000209919062001de9565b620007a1565b6040516200021e919062001d9e565b60405180910390f35b3480156200023457600080fd5b506200023f6200090e565b6040516200024e919062001e63565b60405180910390f35b6200026162000917565b005b3480156200027057600080fd5b506200028f600480360381019062000289919062001e80565b62000d44565b005b3480156200029e57600080fd5b50620002bd6004803603810190620002b7919062001eb2565b62000f26565b604051620002cc919062001dcc565b60405180910390f35b348015620002e257600080fd5b50620002ed62000f3e565b604051620002fc919062001f4f565b60405180910390f35b3480156200031257600080fd5b506200031d62000f64565b6040516200032c919062001f91565b60405180910390f35b3480156200034257600080fd5b506200034d62000f8a565b6040516200035c919062001c71565b60405180910390f35b3480156200037257600080fd5b506200039160048036038101906200038b919062001d3a565b62001020565b604051620003a0919062001d9e565b60405180910390f35b348015620003b657600080fd5b50620003c162001037565b604051620003d0919062001dcc565b60405180910390f35b348015620003e657600080fd5b50620004056004803603810190620003ff919062001e80565b6200103c565b005b3480156200041457600080fd5b506200041f62001397565b6040516200042e919062001dcc565b60405180910390f35b3480156200044457600080fd5b506200046360048036038101906200045d919062001e80565b6200139d565b005b3480156200047257600080fd5b506200049160048036038101906200048b919062001fae565b620013ba565b604051620004a0919062001dcc565b60405180910390f35b620004c76004803603810190620004c1919062001eb2565b620013df565b005b60018054620004d89062002024565b80601f0160208091040260200160405190810160405280929190818152602001828054620005069062002024565b8015620005575780601f106200052b5761010080835404028352916020019162000557565b820191906000526020600020905b8154815290600101906020018083116200053957829003601f168201915b505050505081565b60008073ffffffffffffffffffffffffffffffffffffffff168373ffffffffffffffffffffffffffffffffffffffff1603620005d2576040517f08c379a0000000000000000000000000000000000000000000000000000000008152600401620005c990620020a9565b60405180910390fd5b81600460003373ffffffffffffffffffffffffffffffffffffffff1673ffffffffffffffffffffffffffffffffffffffff16815260200190815260200160002060008573ffffffffffffffffffffffffffffffffffffffff1673ffffffffffffffffffffffffffffffffffffffff168152602001908152602001600020819055508273ffffffffffffffffffffffffffffffffffffffff163373ffffffffffffffffffffffffffffffffffffffff167f8c5be1e5ebec7d5bd14f71427d1e84f3dd0314c0f7b2291e5b200ac8c7c3b92584604051620006b2919062001dcc565b60405180910390a36001905092915050565b6000620006d134620013ee565b905060008134620006e39190620020fa565b90506000600760009054906101000a900473ffffffffffffffffffffffffffffffffffffffff1673ffffffffffffffffffffffffffffffffffffffff166398d5fdca6040518163ffffffff1660e01b8152600401602060405180830381865afa15801562000755573d6000803e3d6000fd5b505050506040513d601f19601f820116820180604052508101906200077b91906200214c565b826200078891906200217e565b90506200079633826200151e565b505050565b60005481565b600080600460008673ffffffffffffffffffffffffffffffffffffffff1673ffffffffffffffffffffffffffffffffffffffff16815260200190815260200160002060003373ffffffffffffffffffffffffffffffffffffffff1673ffffffffffffffffffffffffffffffffffffffff1681526020019081526020016000205490508281101562000869576040517f08c379a000000000000000000000000000000000000000000000000000000000815260040162000860906200222f565b60405180910390fd5b8281620008779190620020fa565b600460008773ffffffffffffffffffffffffffffffffffffffff1673ffffffffffffffffffffffffffffffffffffffff16815260200190815260200160002060003373ffffffffffffffffffffffffffffffffffffffff1673ffffffffffffffffffffffffffffffffffffffff16815260200190815260200160002081905550620009048585856200166e565b9150509392505050565b60006012905090565b60006200092362001886565b90506000811362000bdd5760007fffffffffffffffffffffffffffffffffffffffffffffffffffffffffffffffff826200095e91906200225b565b90506000600760009054906101000a900473ffffffffffffffffffffffffffffffffffffffff1673ffffffffffffffffffffffffffffffffffffffff166398d5fdca6040518163ffffffff1660e01b8152600401602060405180830381865afa158015620009d0573d6000803e3d6000fd5b505050506040513d601f19601f82011682018060405250810190620009f691906200214c565b90506000818362000a089190620023b1565b905060006064600054600a62000a1f91906200217e565b62000a2b9190620023b1565b90506000838262000a3d9190620023b1565b9050808362000a4d9190620023e9565b34101562000aa6576000818462000a659190620023e9565b9050806040517f21bfe98800000000000000000000000000000000000000000000000000000000815260040162000a9d9190620024bc565b60405180910390fd5b6000833462000ab69190620020fa565b90506000858262000ac891906200217e565b905060405162000ad89062001bbf565b604051809103906000f08015801562000af5573d6000803e3d6000fd5b50600560006101000a81548173ffffffffffffffffffffffffffffffffffffffff021916908373ffffffffffffffffffffffffffffffffffffffff1602179055506000819050600560009054906101000a900473ffffffffffffffffffffffffffffffffffffffff1673ffffffffffffffffffffffffffffffffffffffff166340c10f1933836040518363ffffffff1660e01b815260040162000b9a929190620024ff565b600060405180830381600087803b15801562000bb557600080fd5b505af115801562000bca573d6000803e3d6000fd5b5050505050505050505050505062000d42565b6000819050600062000bef826200195a565b90506000600760009054906101000a900473ffffffffffffffffffffffffffffffffffffffff1673ffffffffffffffffffffffffffffffffffffffff166398d5fdca6040518163ffffffff1660e01b8152600401602060405180830381865afa15801562000c61573d6000803e3d6000fd5b505050506040513d601f19601f8201168201806040525081019062000c8791906200214c565b62000c9c833462001a0290919063ffffffff16565b62000ca89190620023b1565b9050600560009054906101000a900473ffffffffffffffffffffffffffffffffffffffff1673ffffffffffffffffffffffffffffffffffffffff166340c10f1933836040518363ffffffff1660e01b815260040162000d09929190620024ff565b600060405180830381600087803b15801562000d2457600080fd5b505af115801562000d39573d6000803e3d6000fd5b50505050505050505b565b600062000d5062001886565b9050600081121562000d99576040517f08c379a000000000000000000000000000000000000000000000000000000000815260040162000d90906200257c565b60405180910390fd5b62000da5338362001a2f565b6000600760009054906101000a900473ffffffffffffffffffffffffffffffffffffffff1673ffffffffffffffffffffffffffffffffffffffff166398d5fdca6040518163ffffffff1660e01b8152600401602060405180830381865afa15801562000e15573d6000803e3d6000fd5b505050506040513d601f19601f8201168201806040525081019062000e3b91906200214c565b8362000e489190620023b1565b9050600062000e5782620013ee565b90506000818362000e699190620020fa565b905060003373ffffffffffffffffffffffffffffffffffffffff168260405162000e9390620025d3565b60006040518083038185875af1925050503d806000811462000ed2576040519150601f19603f3d011682016040523d82523d6000602084013e62000ed7565b606091505b505090508062000f1e576040517f08c379a000000000000000000000000000000000000000000000000000000000815260040162000f15906200263a565b60405180910390fd5b505050505050565b60036020528060005260406000206000915090505481565b600560009054906101000a900473ffffffffffffffffffffffffffffffffffffffff1681565b600760009054906101000a900473ffffffffffffffffffffffffffffffffffffffff1681565b6002805462000f999062002024565b80601f016020809104026020016040519081016040528092919081815260200182805462000fc79062002024565b8015620010185780601f1062000fec5761010080835404028352916020019162001018565b820191906000526020600020905b81548152906001019060200180831162000ffa57829003601f168201915b505050505081565b60006200102f3384846200166e565b905092915050565b600a81565b80600560009054906101000a900473ffffffffffffffffffffffffffffffffffffffff1673ffffffffffffffffffffffffffffffffffffffff166370a08231336040518263ffffffff1660e01b81526004016200109a91906200265c565b602060405180830381865afa158015620010b8573d6000803e3d6000fd5b505050506040513d601f19601f82011682018060405250810190620010de91906200214c565b101562001122576040517f08c379a00000000000000000000000000000000000000000000000000000000081526004016200111990620026ef565b60405180910390fd5b600560009054906101000a900473ffffffffffffffffffffffffffffffffffffffff1673ffffffffffffffffffffffffffffffffffffffff16639dc29fac33836040518363ffffffff1660e01b815260040162001181929190620024ff565b600060405180830381600087803b1580156200119c57600080fd5b505af1158015620011b1573d6000803e3d6000fd5b505050506000620011c162001886565b90506000811362001209576040517f08c379a0000000000000000000000000000000000000000000000000000000008152600401620012009062002761565b60405180910390fd5b600081905060006200121b826200195a565b9050600062001234828662001a0290919063ffffffff16565b90506000600760009054906101000a900473ffffffffffffffffffffffffffffffffffffffff1673ffffffffffffffffffffffffffffffffffffffff166398d5fdca6040518163ffffffff1660e01b8152600401602060405180830381865afa158015620012a6573d6000803e3d6000fd5b505050506040513d601f19601f82011682018060405250810190620012cc91906200214c565b82620012d99190620023b1565b905060003373ffffffffffffffffffffffffffffffffffffffff16826040516200130390620025d3565b60006040518083038185875af1925050503d806000811462001342576040519150601f19603f3d011682016040523d82523d6000602084013e62001347565b606091505b50509050806200138e576040517f08c379a00000000000000000000000000000000000000000000000000000000081526004016200138590620027f9565b60405180910390fd5b50505050505050565b60065481565b620013aa333083620007a1565b50620013b7308262001a2f565b50565b6004602052816000526040600020602052806000526040600020600091509150505481565b620013eb81346200151e565b50565b600080600073ffffffffffffffffffffffffffffffffffffffff16600560009054906101000a900473ffffffffffffffffffffffffffffffffffffffff1673ffffffffffffffffffffffffffffffffffffffff1614158015620014e457506000600560009054906101000a900473ffffffffffffffffffffffffffffffffffffffff1673ffffffffffffffffffffffffffffffffffffffff166318160ddd6040518163ffffffff1660e01b8152600401602060405180830381865afa158015620014bc573d6000803e3d6000fd5b505050506040513d601f19601f82011682018060405250810190620014e291906200214c565b115b905080620014f757600091505062001519565b6064836006546200150991906200217e565b620015159190620023b1565b9150505b919050565b600073ffffffffffffffffffffffffffffffffffffffff168273ffffffffffffffffffffffffffffffffffffffff160362001590576040517f08c379a000000000000000000000000000000000000000000000000000000000815260040162001587906200286b565b60405180910390fd5b80600080828254620015a39190620023e9565b9250508190555080600360008473ffffffffffffffffffffffffffffffffffffffff1673ffffffffffffffffffffffffffffffffffffffff1681526020019081526020016000206000828254620015fb9190620023e9565b925050819055508173ffffffffffffffffffffffffffffffffffffffff16600073ffffffffffffffffffffffffffffffffffffffff167fddf252ad1be2c89b69c2b068fc378daa952ba7f163c4a11628f55a4df523b3ef8360405162001662919062001dcc565b60405180910390a35050565b60008073ffffffffffffffffffffffffffffffffffffffff168373ffffffffffffffffffffffffffffffffffffffff1603620016e1576040517f08c379a0000000000000000000000000000000000000000000000000000000008152600401620016d890620028dd565b60405180910390fd5b6000600360008673ffffffffffffffffffffffffffffffffffffffff1673ffffffffffffffffffffffffffffffffffffffff1681526020019081526020016000205490508281116200176a576040517f08c379a000000000000000000000000000000000000000000000000000000000815260040162001761906200294f565b60405180910390fd5b8281620017789190620020fa565b600360008773ffffffffffffffffffffffffffffffffffffffff1673ffffffffffffffffffffffffffffffffffffffff1681526020019081526020016000208190555082600360008673ffffffffffffffffffffffffffffffffffffffff1673ffffffffffffffffffffffffffffffffffffffff16815260200190815260200160002060008282546200180c9190620023e9565b925050819055508373ffffffffffffffffffffffffffffffffffffffff168573ffffffffffffffffffffffffffffffffffffffff167fddf252ad1be2c89b69c2b068fc378daa952ba7f163c4a11628f55a4df523b3ef8560405162001872919062001dcc565b60405180910390a360019150509392505050565b600080600760009054906101000a900473ffffffffffffffffffffffffffffffffffffffff1673ffffffffffffffffffffffffffffffffffffffff166398d5fdca6040518163ffffffff1660e01b8152600401602060405180830381865afa158015620018f7573d6000803e3d6000fd5b505050506040513d601f19601f820116820180604052508101906200191d91906200214c565b34476200192b9190620020fa565b6200193791906200217e565b9050600080549050600081836200194f919062002971565b905080935050505090565b6000620019fb600560009054906101000a900473ffffffffffffffffffffffffffffffffffffffff1673ffffffffffffffffffffffffffffffffffffffff166318160ddd6040518163ffffffff1660e01b8152600401602060405180830381865afa158015620019ce573d6000803e3d6000fd5b505050506040513d601f19601f82011682018060405250810190620019f491906200214c565b8362001b7f565b9050919050565b6000670de0b6b3a7640000828462001a1b91906200217e565b62001a279190620023b1565b905092915050565b600073ffffffffffffffffffffffffffffffffffffffff168273ffffffffffffffffffffffffffffffffffffffff160362001aa1576040517f08c379a000000000000000000000000000000000000000000000000000000000815260040162001a989062002a5f565b60405180910390fd5b8060008082825462001ab49190620020fa565b9250508190555080600360008473ffffffffffffffffffffffffffffffffffffffff1673ffffffffffffffffffffffffffffffffffffffff168152602001908152602001600020600082825462001b0c9190620020fa565b925050819055508173ffffffffffffffffffffffffffffffffffffffff16600073ffffffffffffffffffffffffffffffffffffffff167fddf252ad1be2c89b69c2b068fc378daa952ba7f163c4a11628f55a4df523b3ef8360405162001b73919062001dcc565b60405180910390a35050565b600080830362001b93576000905062001bb9565b81670de0b6b3a76400008462001baa91906200217e565b62001bb69190620023b1565b90505b92915050565b611aa68062002a8283390190565b600081519050919050565b600082825260208201905092915050565b60005b8381101562001c0957808201518184015260208101905062001bec565b8381111562001c19576000848401525b50505050565b6000601f19601f8301169050919050565b600062001c3d8262001bcd565b62001c49818562001bd8565b935062001c5b81856020860162001be9565b62001c668162001c1f565b840191505092915050565b6000602082019050818103600083015262001c8d818462001c30565b905092915050565b600080fd5b600073ffffffffffffffffffffffffffffffffffffffff82169050919050565b600062001cc78262001c9a565b9050919050565b62001cd98162001cba565b811462001ce557600080fd5b50565b60008135905062001cf98162001cce565b92915050565b6000819050919050565b62001d148162001cff565b811462001d2057600080fd5b50565b60008135905062001d348162001d09565b92915050565b6000806040838503121562001d545762001d5362001c95565b5b600062001d648582860162001ce8565b925050602062001d778582860162001d23565b9150509250929050565b60008115159050919050565b62001d988162001d81565b82525050565b600060208201905062001db5600083018462001d8d565b92915050565b62001dc68162001cff565b82525050565b600060208201905062001de3600083018462001dbb565b92915050565b60008060006060848603121562001e055762001e0462001c95565b5b600062001e158682870162001ce8565b935050602062001e288682870162001ce8565b925050604062001e3b8682870162001d23565b9150509250925092565b600060ff82169050919050565b62001e5d8162001e45565b82525050565b600060208201905062001e7a600083018462001e52565b92915050565b60006020828403121562001e995762001e9862001c95565b5b600062001ea98482850162001d23565b91505092915050565b60006020828403121562001ecb5762001eca62001c95565b5b600062001edb8482850162001ce8565b91505092915050565b6000819050919050565b600062001f0f62001f0962001f038462001c9a565b62001ee4565b62001c9a565b9050919050565b600062001f238262001eee565b9050919050565b600062001f378262001f16565b9050919050565b62001f498162001f2a565b82525050565b600060208201905062001f66600083018462001f3e565b92915050565b600062001f798262001f16565b9050919050565b62001f8b8162001f6c565b82525050565b600060208201905062001fa8600083018462001f80565b92915050565b6000806040838503121562001fc85762001fc762001c95565b5b600062001fd88582860162001ce8565b925050602062001feb8582860162001ce8565b9150509250929050565b7f4e487b7100000000000000000000000000000000000000000000000000000000600052602260045260246000fd5b600060028204905060018216806200203d57607f821691505b60208210810362002053576200205262001ff5565b5b50919050565b7f617070726f766520746f207a65726f2061646472657373000000000000000000600082015250565b60006200209160178362001bd8565b91506200209e8262002059565b602082019050919050565b60006020820190508181036000830152620020c48162002082565b9050919050565b7f4e487b7100000000000000000000000000000000000000000000000000000000600052601160045260246000fd5b6000620021078262001cff565b9150620021148362001cff565b9250828210156200212a5762002129620020cb565b5b828203905092915050565b600081519050620021468162001d09565b92915050565b60006020828403121562002165576200216462001c95565b5b6000620021758482850162002135565b91505092915050565b60006200218b8262001cff565b9150620021988362001cff565b9250817fffffffffffffffffffffffffffffffffffffffffffffffffffffffffffffffff0483118215151615620021d457620021d3620020cb565b5b828202905092915050565b7f616d6f756e74206578636565647320616c6c6f77616e63650000000000000000600082015250565b60006200221760188362001bd8565b91506200222482620021df565b602082019050919050565b600060208201905081810360008301526200224a8162002208565b9050919050565b6000819050919050565b6000620022688262002251565b9150620022758362002251565b9250827f7fffffffffffffffffffffffffffffffffffffffffffffffffffffffffffffff0482116000841360008413161615620022b757620022b6620020cb565b5b817f80000000000000000000000000000000000000000000000000000000000000000583126000841260008413161615620022f757620022f6620020cb565b5b827f80000000000000000000000000000000000000000000000000000000000000000582126000841360008412161615620023375762002336620020cb565b5b827f7fffffffffffffffffffffffffffffffffffffffffffffffffffffffffffffff0582126000841260008412161615620023775762002376620020cb565b5b828202905092915050565b7f4e487b7100000000000000000000000000000000000000000000000000000000600052601260045260246000fd5b6000620023be8262001cff565b9150620023cb8362001cff565b925082620023de57620023dd62002382565b5b828204905092915050565b6000620023f68262001cff565b9150620024038362001cff565b9250827fffffffffffffffffffffffffffffffffffffffffffffffffffffffffffffffff038211156200243b576200243a620020cb565b5b828201905092915050565b7f5354433a20496e697469616c20636f6c6c61746572616c20726174696f206e6f60008201527f74206d65742c206d696e696d756d206973200000000000000000000000000000602082015250565b6000620024a460328362001bd8565b9150620024b18262002446565b604082019050919050565b60006040820190508181036000830152620024d78162002495565b9050620024e8602083018462001dbb565b92915050565b620024f98162001cba565b82525050565b6000604082019050620025166000830185620024ee565b62002525602083018462001dbb565b9392505050565b7f63616e6e6f74206275726e207768696c6520696e206465666963697400000000600082015250565b600062002564601c8362001bd8565b915062002571826200252c565b602082019050919050565b60006020820190508181036000830152620025978162002555565b9050919050565b600081905092915050565b50565b6000620025bb6000836200259e565b9150620025c882620025a9565b600082019050919050565b6000620025e082620025ac565b9150819050919050565b7f4275726e20726566756e64207472616e73616374696f6e206661696c65640000600082015250565b600062002622601e8362001bd8565b91506200262f82620025ea565b602082019050919050565b60006020820190508181036000830152620026558162002613565b9050919050565b6000602082019050620026736000830184620024ee565b92915050565b7f53656e6465722068617320696e73756666696369656e74204450432066756e6460008201527f7300000000000000000000000000000000000000000000000000000000000000602082015250565b6000620026d760218362001bd8565b9150620026e48262002679565b604082019050919050565b600060208201905081810360008301526200270a81620026c8565b9050919050565b7f4e6f2066756e647320746f207769746864726177000000000000000000000000600082015250565b60006200274960148362001bd8565b9150620027568262002711565b602082019050919050565b600060208201905081810360008301526200277c816200273a565b9050919050565b7f576974686472617720726566756e64207472616e73616374696f6e206661696c60008201527f6564000000000000000000000000000000000000000000000000000000000000602082015250565b6000620027e160228362001bd8565b9150620027ee8262002783565b604082019050919050565b600060208201905081810360008301526200281481620027d2565b9050919050565b7f6d696e7420746f207a65726f2061646472657373000000000000000000000000600082015250565b60006200285360148362001bd8565b915062002860826200281b565b602082019050919050565b60006020820190508181036000830152620028868162002844565b9050919050565b7f7472616e7366657220746f20746865207a65726f206164647265737300000000600082015250565b6000620028c5601c8362001bd8565b9150620028d2826200288d565b602082019050919050565b60006020820190508181036000830152620028f881620028b6565b9050919050565b7f7472616e7366657220616d6f756e7420657863656564732062616c616e636500600082015250565b600062002937601f8362001bd8565b91506200294482620028ff565b602082019050919050565b600060208201905081810360008301526200296a8162002928565b9050919050565b60006200297e8262002251565b91506200298b8362002251565b9250827f800000000000000000000000000000000000000000000000000000000000000001821260008412151615620029c957620029c8620020cb565b5b827f7fffffffffffffffffffffffffffffffffffffffffffffffffffffffffffffff01821360008412161562002a045762002a03620020cb565b5b828203905092915050565b7f6275726e20746f207a65726f2061646472657373000000000000000000000000600082015250565b600062002a4760148362001bd8565b915062002a548262002a0f565b602082019050919050565b6000602082019050818103600083015262002a7a8162002a38565b905091905056fe60806040523480156200001157600080fd5b506040518060400160405280600d81526020017f4465706f7369746f72436f696e000000000000000000000000000000000000008152506040518060400160405280600381526020017f535443000000000000000000000000000000000000000000000000000000000081525081600190805190602001906200009692919062000264565b508060029080519060200190620000af92919062000264565b50620000cb3368056bc75e2d631000006200011460201b60201c565b505033600560006101000a81548173ffffffffffffffffffffffffffffffffffffffff021916908373ffffffffffffffffffffffffffffffffffffffff160217905550620004bf565b600073ffffffffffffffffffffffffffffffffffffffff168273ffffffffffffffffffffffffffffffffffffffff160362000186576040517f08c379a00000000000000000000000000000000000000000000000000000000081526004016200017d9062000375565b60405180910390fd5b80600080828254620001999190620003d0565b9250508190555080600360008473ffffffffffffffffffffffffffffffffffffffff1673ffffffffffffffffffffffffffffffffffffffff1681526020019081526020016000206000828254620001f19190620003d0565b925050819055508173ffffffffffffffffffffffffffffffffffffffff16600073ffffffffffffffffffffffffffffffffffffffff167fddf252ad1be2c89b69c2b068fc378daa952ba7f163c4a11628f55a4df523b3ef836040516200025891906200043e565b60405180910390a35050565b82805462000272906200048a565b90600052602060002090601f016020900481019282620002965760008555620002e2565b82601f10620002b157805160ff1916838001178555620002e2565b82800160010185558215620002e2579182015b82811115620002e1578251825591602001919060010190620002c4565b5b509050620002f19190620002f5565b5090565b5b8082111562000310576000816000905550600101620002f6565b5090565b600082825260208201905092915050565b7f6d696e7420746f207a65726f2061646472657373000000000000000000000000600082015250565b60006200035d60148362000314565b91506200036a8262000325565b602082019050919050565b6000602082019050818103600083015262000390816200034e565b9050919050565b6000819050919050565b7f4e487b7100000000000000000000000000000000000000000000000000000000600052601160045260246000fd5b6000620003dd8262000397565b9150620003ea8362000397565b9250827fffffffffffffffffffffffffffffffffffffffffffffffffffffffffffffffff03821115620004225762000421620003a1565b5b828201905092915050565b620004388162000397565b82525050565b60006020820190506200045560008301846200042d565b92915050565b7f4e487b7100000000000000000000000000000000000000000000000000000000600052602260045260246000fd5b60006002820490506001821680620004a357607f821691505b602082108103620004b957620004b86200045b565b5b50919050565b6115d780620004cf6000396000f3fe6080604052600436106100dd5760003560e01c80638da5cb5b1161007f578063a9059cbb11610059578063a9059cbb146102c2578063db006a75146102ff578063dd62ed3e14610328578063f340fa0114610365576100dd565b80638da5cb5b1461024357806395d89b411461026e5780639dc29fac14610299576100dd565b806323b872dd116100bb57806323b872dd14610175578063313ce567146101b257806340c10f19146101dd57806370a0823114610206576100dd565b806306fdde03146100e2578063095ea7b31461010d57806318160ddd1461014a575b600080fd5b3480156100ee57600080fd5b506100f7610381565b6040516101049190610e7f565b60405180910390f35b34801561011957600080fd5b50610134600480360381019061012f9190610f3a565b61040f565b6040516101419190610f95565b60405180910390f35b34801561015657600080fd5b5061015f61056f565b60405161016c9190610fbf565b60405180910390f35b34801561018157600080fd5b5061019c60048036038101906101979190610fda565b610575565b6040516101a99190610f95565b60405180910390f35b3480156101be57600080fd5b506101c76106db565b6040516101d49190611049565b60405180910390f35b3480156101e957600080fd5b5061020460048036038101906101ff9190610f3a565b6106e4565b005b34801561021257600080fd5b5061022d60048036038101906102289190611064565b610782565b60405161023a9190610fbf565b60405180910390f35b34801561024f57600080fd5b5061025861079a565b60405161026591906110a0565b60405180910390f35b34801561027a57600080fd5b506102836107c0565b6040516102909190610e7f565b60405180910390f35b3480156102a557600080fd5b506102c060048036038101906102bb9190610f3a565b61084e565b005b3480156102ce57600080fd5b506102e960048036038101906102e49190610f3a565b6108ec565b6040516102f69190610f95565b60405180910390f35b34801561030b57600080fd5b50610326600480360381019061032191906110bb565b610901565b005b34801561033457600080fd5b5061034f600480360381019061034a91906110e8565b61091a565b60405161035c9190610fbf565b60405180910390f35b61037f600480360381019061037a9190611064565b61093f565b005b6001805461038e90611157565b80601f01602080910402602001604051908101604052809291908181526020018280546103ba90611157565b80156104075780601f106103dc57610100808354040283529160200191610407565b820191906000526020600020905b8154815290600101906020018083116103ea57829003601f168201915b505050505081565b60008073ffffffffffffffffffffffffffffffffffffffff168373ffffffffffffffffffffffffffffffffffffffff160361047f576040517f08c379a0000000000000000000000000000000000000000000000000000000008152600401610476906111d4565b60405180910390fd5b81600460003373ffffffffffffffffffffffffffffffffffffffff1673ffffffffffffffffffffffffffffffffffffffff16815260200190815260200160002060008573ffffffffffffffffffffffffffffffffffffffff1673ffffffffffffffffffffffffffffffffffffffff168152602001908152602001600020819055508273ffffffffffffffffffffffffffffffffffffffff163373ffffffffffffffffffffffffffffffffffffffff167f8c5be1e5ebec7d5bd14f71427d1e84f3dd0314c0f7b2291e5b200ac8c7c3b9258460405161055d9190610fbf565b60405180910390a36001905092915050565b60005481565b600080600460008673ffffffffffffffffffffffffffffffffffffffff1673ffffffffffffffffffffffffffffffffffffffff16815260200190815260200160002060003373ffffffffffffffffffffffffffffffffffffffff1673ffffffffffffffffffffffffffffffffffffffff1681526020019081526020016000205490508281101561063a576040517f08c379a000000000000000000000000000000000000000000000000000000000815260040161063190611240565b60405180910390fd5b8281610646919061128f565b600460008773ffffffffffffffffffffffffffffffffffffffff1673ffffffffffffffffffffffffffffffffffffffff16815260200190815260200160002060003373ffffffffffffffffffffffffffffffffffffffff1673ffffffffffffffffffffffffffffffffffffffff168152602001908152602001600020819055506106d185858561094c565b9150509392505050565b60006012905090565b600560009054906101000a900473ffffffffffffffffffffffffffffffffffffffff1673ffffffffffffffffffffffffffffffffffffffff163373ffffffffffffffffffffffffffffffffffffffff1614610774576040517f08c379a000000000000000000000000000000000000000000000000000000000815260040161076b9061130f565b60405180910390fd5b61077e8282610b58565b5050565b60036020528060005260406000206000915090505481565b600560009054906101000a900473ffffffffffffffffffffffffffffffffffffffff1681565b600280546107cd90611157565b80601f01602080910402602001604051908101604052809291908181526020018280546107f990611157565b80156108465780601f1061081b57610100808354040283529160200191610846565b820191906000526020600020905b81548152906001019060200180831161082957829003601f168201915b505050505081565b600560009054906101000a900473ffffffffffffffffffffffffffffffffffffffff1673ffffffffffffffffffffffffffffffffffffffff163373ffffffffffffffffffffffffffffffffffffffff16146108de576040517f08c379a00000000000000000000000000000000000000000000000000000000081526004016108d59061137b565b60405180910390fd5b6108e88282610c9f565b5050565b60006108f933848461094c565b905092915050565b61090c333083610575565b506109173082610c9f565b50565b6004602052816000526040600020602052806000526040600020600091509150505481565b6109498134610b58565b50565b60008073ffffffffffffffffffffffffffffffffffffffff168373ffffffffffffffffffffffffffffffffffffffff16036109bc576040517f08c379a00000000000000000000000000000000000000000000000000000000081526004016109b3906113e7565b60405180910390fd5b6000600360008673ffffffffffffffffffffffffffffffffffffffff1673ffffffffffffffffffffffffffffffffffffffff168152602001908152602001600020549050828111610a42576040517f08c379a0000000000000000000000000000000000000000000000000000000008152600401610a3990611453565b60405180910390fd5b8281610a4e919061128f565b600360008773ffffffffffffffffffffffffffffffffffffffff1673ffffffffffffffffffffffffffffffffffffffff1681526020019081526020016000208190555082600360008673ffffffffffffffffffffffffffffffffffffffff1673ffffffffffffffffffffffffffffffffffffffff1681526020019081526020016000206000828254610ae09190611473565b925050819055508373ffffffffffffffffffffffffffffffffffffffff168573ffffffffffffffffffffffffffffffffffffffff167fddf252ad1be2c89b69c2b068fc378daa952ba7f163c4a11628f55a4df523b3ef85604051610b449190610fbf565b60405180910390a360019150509392505050565b600073ffffffffffffffffffffffffffffffffffffffff168273ffffffffffffffffffffffffffffffffffffffff1603610bc7576040517f08c379a0000000000000000000000000000000000000000000000000000000008152600401610bbe90611515565b60405180910390fd5b80600080828254610bd89190611473565b9250508190555080600360008473ffffffffffffffffffffffffffffffffffffffff1673ffffffffffffffffffffffffffffffffffffffff1681526020019081526020016000206000828254610c2e9190611473565b925050819055508173ffffffffffffffffffffffffffffffffffffffff16600073ffffffffffffffffffffffffffffffffffffffff167fddf252ad1be2c89b69c2b068fc378daa952ba7f163c4a11628f55a4df523b3ef83604051610c939190610fbf565b60405180910390a35050565b600073ffffffffffffffffffffffffffffffffffffffff168273ffffffffffffffffffffffffffffffffffffffff1603610d0e576040517f08c379a0000000000000000000000000000000000000000000000000000000008152600401610d0590611581565b60405180910390fd5b80600080828254610d1f919061128f565b9250508190555080600360008473ffffffffffffffffffffffffffffffffffffffff1673ffffffffffffffffffffffffffffffffffffffff1681526020019081526020016000206000828254610d75919061128f565b925050819055508173ffffffffffffffffffffffffffffffffffffffff16600073ffffffffffffffffffffffffffffffffffffffff167fddf252ad1be2c89b69c2b068fc378daa952ba7f163c4a11628f55a4df523b3ef83604051610dda9190610fbf565b60405180910390a35050565b600081519050919050565b600082825260208201905092915050565b60005b83811015610e20578082015181840152602081019050610e05565b83811115610e2f576000848401525b50505050565b6000601f19601f8301169050919050565b6000610e5182610de6565b610e5b8185610df1565b9350610e6b818560208601610e02565b610e7481610e35565b840191505092915050565b60006020820190508181036000830152610e998184610e46565b905092915050565b600080fd5b600073ffffffffffffffffffffffffffffffffffffffff82169050919050565b6000610ed182610ea6565b9050919050565b610ee181610ec6565b8114610eec57600080fd5b50565b600081359050610efe81610ed8565b92915050565b6000819050919050565b610f1781610f04565b8114610f2257600080fd5b50565b600081359050610f3481610f0e565b92915050565b60008060408385031215610f5157610f50610ea1565b5b6000610f5f85828601610eef565b9250506020610f7085828601610f25565b9150509250929050565b60008115159050919050565b610f8f81610f7a565b82525050565b6000602082019050610faa6000830184610f86565b92915050565b610fb981610f04565b82525050565b6000602082019050610fd46000830184610fb0565b92915050565b600080600060608486031215610ff357610ff2610ea1565b5b600061100186828701610eef565b935050602061101286828701610eef565b925050604061102386828701610f25565b9150509250925092565b600060ff82169050919050565b6110438161102d565b82525050565b600060208201905061105e600083018461103a565b92915050565b60006020828403121561107a57611079610ea1565b5b600061108884828501610eef565b91505092915050565b61109a81610ec6565b82525050565b60006020820190506110b56000830184611091565b92915050565b6000602082840312156110d1576110d0610ea1565b5b60006110df84828501610f25565b91505092915050565b600080604083850312156110ff576110fe610ea1565b5b600061110d85828601610eef565b925050602061111e85828601610eef565b9150509250929050565b7f4e487b7100000000000000000000000000000000000000000000000000000000600052602260045260246000fd5b6000600282049050600182168061116f57607f821691505b60208210810361118257611181611128565b5b50919050565b7f617070726f766520746f207a65726f2061646472657373000000000000000000600082015250565b60006111be601783610df1565b91506111c982611188565b602082019050919050565b600060208201905081810360008301526111ed816111b1565b9050919050565b7f616d6f756e74206578636565647320616c6c6f77616e63650000000000000000600082015250565b600061122a601883610df1565b9150611235826111f4565b602082019050919050565b600060208201905081810360008301526112598161121d565b9050919050565b7f4e487b7100000000000000000000000000000000000000000000000000000000600052601160045260246000fd5b600061129a82610f04565b91506112a583610f04565b9250828210156112b8576112b7611260565b5b828203905092915050565b7f6f6e6c79206f776e65722063616e206d696e7400000000000000000000000000600082015250565b60006112f9601383610df1565b9150611304826112c3565b602082019050919050565b60006020820190508181036000830152611328816112ec565b9050919050565b7f6f6e6c79206f776e65722063616e206275726e00000000000000000000000000600082015250565b6000611365601383610df1565b91506113708261132f565b602082019050919050565b6000602082019050818103600083015261139481611358565b9050919050565b7f7472616e7366657220746f20746865207a65726f206164647265737300000000600082015250565b60006113d1601c83610df1565b91506113dc8261139b565b602082019050919050565b60006020820190508181036000830152611400816113c4565b9050919050565b7f7472616e7366657220616d6f756e7420657863656564732062616c616e636500600082015250565b600061143d601f83610df1565b915061144882611407565b602082019050919050565b6000602082019050818103600083015261146c81611430565b9050919050565b600061147e82610f04565b915061148983610f04565b9250827fffffffffffffffffffffffffffffffffffffffffffffffffffffffffffffffff038211156114be576114bd611260565b5b828201905092915050565b7f6d696e7420746f207a65726f2061646472657373000000000000000000000000600082015250565b60006114ff601483610df1565b915061150a826114c9565b602082019050919050565b6000602082019050818103600083015261152e816114f2565b9050919050565b7f6275726e20746f207a65726f2061646472657373000000000000000000000000600082015250565b600061156b601483610df1565b915061157682611535565b602082019050919050565b6000602082019050818103600083015261159a8161155e565b905091905056fea264697066735822122098d6655f7693c1e87bae9e2c8819dc7660cc4b3524350513323f67736da6898764736f6c634300080d0033a264697066735822122034e3839ed0960d34ec79bb6eb3ff5343eef3ebcea3524bfa39be4ca3ec2efa8264736f6c634300080d0033",
          "opcodes": "PUSH1 0x80 PUSH1 0x40 MSTORE CALLVALUE DUP1 ISZERO PUSH3 0x11 JUMPI PUSH1 0x0 DUP1 REVERT JUMPDEST POP PUSH1 0x40 MLOAD PUSH3 0x4B50 CODESIZE SUB DUP1 PUSH3 0x4B50 DUP4 CODECOPY DUP2 DUP2 ADD PUSH1 0x40 MSTORE DUP2 ADD SWAP1 PUSH3 0x37 SWAP2 SWAP1 PUSH3 0x3FB JUMP JUMPDEST PUSH1 0x40 MLOAD DUP1 PUSH1 0x40 ADD PUSH1 0x40 MSTORE DUP1 PUSH1 0xA DUP2 MSTORE PUSH1 0x20 ADD PUSH32 0x537461626C65436F696E00000000000000000000000000000000000000000000 DUP2 MSTORE POP PUSH1 0x40 MLOAD DUP1 PUSH1 0x40 ADD PUSH1 0x40 MSTORE DUP1 PUSH1 0x3 DUP2 MSTORE PUSH1 0x20 ADD PUSH32 0x5354430000000000000000000000000000000000000000000000000000000000 DUP2 MSTORE POP DUP2 PUSH1 0x1 SWAP1 DUP1 MLOAD SWAP1 PUSH1 0x20 ADD SWAP1 PUSH3 0xBB SWAP3 SWAP2 SWAP1 PUSH3 0x292 JUMP JUMPDEST POP DUP1 PUSH1 0x2 SWAP1 DUP1 MLOAD SWAP1 PUSH1 0x20 ADD SWAP1 PUSH3 0xD4 SWAP3 SWAP2 SWAP1 PUSH3 0x292 JUMP JUMPDEST POP PUSH3 0xF0 CALLER PUSH9 0x56BC75E2D63100000 PUSH3 0x142 PUSH1 0x20 SHL PUSH1 0x20 SHR JUMP JUMPDEST POP POP DUP2 PUSH1 0x6 DUP2 SWAP1 SSTORE POP DUP1 PUSH1 0x7 PUSH1 0x0 PUSH2 0x100 EXP DUP2 SLOAD DUP2 PUSH20 0xFFFFFFFFFFFFFFFFFFFFFFFFFFFFFFFFFFFFFFFF MUL NOT AND SWAP1 DUP4 PUSH20 0xFFFFFFFFFFFFFFFFFFFFFFFFFFFFFFFFFFFFFFFF AND MUL OR SWAP1 SSTORE POP POP POP PUSH3 0x5E3 JUMP JUMPDEST PUSH1 0x0 PUSH20 0xFFFFFFFFFFFFFFFFFFFFFFFFFFFFFFFFFFFFFFFF AND DUP3 PUSH20 0xFFFFFFFFFFFFFFFFFFFFFFFFFFFFFFFFFFFFFFFF AND SUB PUSH3 0x1B4 JUMPI PUSH1 0x40 MLOAD PUSH32 0x8C379A000000000000000000000000000000000000000000000000000000000 DUP2 MSTORE PUSH1 0x4 ADD PUSH3 0x1AB SWAP1 PUSH3 0x4A3 JUMP JUMPDEST PUSH1 0x40 MLOAD DUP1 SWAP2 SUB SWAP1 REVERT JUMPDEST DUP1 PUSH1 0x0 DUP1 DUP3 DUP3 SLOAD PUSH3 0x1C7 SWAP2 SWAP1 PUSH3 0x4F4 JUMP JUMPDEST SWAP3 POP POP DUP2 SWAP1 SSTORE POP DUP1 PUSH1 0x3 PUSH1 0x0 DUP5 PUSH20 0xFFFFFFFFFFFFFFFFFFFFFFFFFFFFFFFFFFFFFFFF AND PUSH20 0xFFFFFFFFFFFFFFFFFFFFFFFFFFFFFFFFFFFFFFFF AND DUP2 MSTORE PUSH1 0x20 ADD SWAP1 DUP2 MSTORE PUSH1 0x20 ADD PUSH1 0x0 KECCAK256 PUSH1 0x0 DUP3 DUP3 SLOAD PUSH3 0x21F SWAP2 SWAP1 PUSH3 0x4F4 JUMP JUMPDEST SWAP3 POP POP DUP2 SWAP1 SSTORE POP DUP2 PUSH20 0xFFFFFFFFFFFFFFFFFFFFFFFFFFFFFFFFFFFFFFFF AND PUSH1 0x0 PUSH20 0xFFFFFFFFFFFFFFFFFFFFFFFFFFFFFFFFFFFFFFFF AND PUSH32 0xDDF252AD1BE2C89B69C2B068FC378DAA952BA7F163C4A11628F55A4DF523B3EF DUP4 PUSH1 0x40 MLOAD PUSH3 0x286 SWAP2 SWAP1 PUSH3 0x562 JUMP JUMPDEST PUSH1 0x40 MLOAD DUP1 SWAP2 SUB SWAP1 LOG3 POP POP JUMP JUMPDEST DUP3 DUP1 SLOAD PUSH3 0x2A0 SWAP1 PUSH3 0x5AE JUMP JUMPDEST SWAP1 PUSH1 0x0 MSTORE PUSH1 0x20 PUSH1 0x0 KECCAK256 SWAP1 PUSH1 0x1F ADD PUSH1 0x20 SWAP1 DIV DUP2 ADD SWAP3 DUP3 PUSH3 0x2C4 JUMPI PUSH1 0x0 DUP6 SSTORE PUSH3 0x310 JUMP JUMPDEST DUP3 PUSH1 0x1F LT PUSH3 0x2DF JUMPI DUP1 MLOAD PUSH1 0xFF NOT AND DUP4 DUP1 ADD OR DUP6 SSTORE PUSH3 0x310 JUMP JUMPDEST DUP3 DUP1 ADD PUSH1 0x1 ADD DUP6 SSTORE DUP3 ISZERO PUSH3 0x310 JUMPI SWAP2 DUP3 ADD JUMPDEST DUP3 DUP2 GT ISZERO PUSH3 0x30F JUMPI DUP3 MLOAD DUP3 SSTORE SWAP2 PUSH1 0x20 ADD SWAP2 SWAP1 PUSH1 0x1 ADD SWAP1 PUSH3 0x2F2 JUMP JUMPDEST JUMPDEST POP SWAP1 POP PUSH3 0x31F SWAP2 SWAP1 PUSH3 0x323 JUMP JUMPDEST POP SWAP1 JUMP JUMPDEST JUMPDEST DUP1 DUP3 GT ISZERO PUSH3 0x33E JUMPI PUSH1 0x0 DUP2 PUSH1 0x0 SWAP1 SSTORE POP PUSH1 0x1 ADD PUSH3 0x324 JUMP JUMPDEST POP SWAP1 JUMP JUMPDEST PUSH1 0x0 DUP1 REVERT JUMPDEST PUSH1 0x0 DUP2 SWAP1 POP SWAP2 SWAP1 POP JUMP JUMPDEST PUSH3 0x35C DUP2 PUSH3 0x347 JUMP JUMPDEST DUP2 EQ PUSH3 0x368 JUMPI PUSH1 0x0 DUP1 REVERT JUMPDEST POP JUMP JUMPDEST PUSH1 0x0 DUP2 MLOAD SWAP1 POP PUSH3 0x37C DUP2 PUSH3 0x351 JUMP JUMPDEST SWAP3 SWAP2 POP POP JUMP JUMPDEST PUSH1 0x0 PUSH20 0xFFFFFFFFFFFFFFFFFFFFFFFFFFFFFFFFFFFFFFFF DUP3 AND SWAP1 POP SWAP2 SWAP1 POP JUMP JUMPDEST PUSH1 0x0 PUSH3 0x3AF DUP3 PUSH3 0x382 JUMP JUMPDEST SWAP1 POP SWAP2 SWAP1 POP JUMP JUMPDEST PUSH1 0x0 PUSH3 0x3C3 DUP3 PUSH3 0x3A2 JUMP JUMPDEST SWAP1 POP SWAP2 SWAP1 POP JUMP JUMPDEST PUSH3 0x3D5 DUP2 PUSH3 0x3B6 JUMP JUMPDEST DUP2 EQ PUSH3 0x3E1 JUMPI PUSH1 0x0 DUP1 REVERT JUMPDEST POP JUMP JUMPDEST PUSH1 0x0 DUP2 MLOAD SWAP1 POP PUSH3 0x3F5 DUP2 PUSH3 0x3CA JUMP JUMPDEST SWAP3 SWAP2 POP POP JUMP JUMPDEST PUSH1 0x0 DUP1 PUSH1 0x40 DUP4 DUP6 SUB SLT ISZERO PUSH3 0x415 JUMPI PUSH3 0x414 PUSH3 0x342 JUMP JUMPDEST JUMPDEST PUSH1 0x0 PUSH3 0x425 DUP6 DUP3 DUP7 ADD PUSH3 0x36B JUMP JUMPDEST SWAP3 POP POP PUSH1 0x20 PUSH3 0x438 DUP6 DUP3 DUP7 ADD PUSH3 0x3E4 JUMP JUMPDEST SWAP2 POP POP SWAP3 POP SWAP3 SWAP1 POP JUMP JUMPDEST PUSH1 0x0 DUP3 DUP3 MSTORE PUSH1 0x20 DUP3 ADD SWAP1 POP SWAP3 SWAP2 POP POP JUMP JUMPDEST PUSH32 0x6D696E7420746F207A65726F2061646472657373000000000000000000000000 PUSH1 0x0 DUP3 ADD MSTORE POP JUMP JUMPDEST PUSH1 0x0 PUSH3 0x48B PUSH1 0x14 DUP4 PUSH3 0x442 JUMP JUMPDEST SWAP2 POP PUSH3 0x498 DUP3 PUSH3 0x453 JUMP JUMPDEST PUSH1 0x20 DUP3 ADD SWAP1 POP SWAP2 SWAP1 POP JUMP JUMPDEST PUSH1 0x0 PUSH1 0x20 DUP3 ADD SWAP1 POP DUP2 DUP2 SUB PUSH1 0x0 DUP4 ADD MSTORE PUSH3 0x4BE DUP2 PUSH3 0x47C JUMP JUMPDEST SWAP1 POP SWAP2 SWAP1 POP JUMP JUMPDEST PUSH32 0x4E487B7100000000000000000000000000000000000000000000000000000000 PUSH1 0x0 MSTORE PUSH1 0x11 PUSH1 0x4 MSTORE PUSH1 0x24 PUSH1 0x0 REVERT JUMPDEST PUSH1 0x0 PUSH3 0x501 DUP3 PUSH3 0x347 JUMP JUMPDEST SWAP2 POP PUSH3 0x50E DUP4 PUSH3 0x347 JUMP JUMPDEST SWAP3 POP DUP3 PUSH32 0xFFFFFFFFFFFFFFFFFFFFFFFFFFFFFFFFFFFFFFFFFFFFFFFFFFFFFFFFFFFFFFFF SUB DUP3 GT ISZERO PUSH3 0x546 JUMPI PUSH3 0x545 PUSH3 0x4C5 JUMP JUMPDEST JUMPDEST DUP3 DUP3 ADD SWAP1 POP SWAP3 SWAP2 POP POP JUMP JUMPDEST PUSH3 0x55C DUP2 PUSH3 0x347 JUMP JUMPDEST DUP3 MSTORE POP POP JUMP JUMPDEST PUSH1 0x0 PUSH1 0x20 DUP3 ADD SWAP1 POP PUSH3 0x579 PUSH1 0x0 DUP4 ADD DUP5 PUSH3 0x551 JUMP JUMPDEST SWAP3 SWAP2 POP POP JUMP JUMPDEST PUSH32 0x4E487B7100000000000000000000000000000000000000000000000000000000 PUSH1 0x0 MSTORE PUSH1 0x22 PUSH1 0x4 MSTORE PUSH1 0x24 PUSH1 0x0 REVERT JUMPDEST PUSH1 0x0 PUSH1 0x2 DUP3 DIV SWAP1 POP PUSH1 0x1 DUP3 AND DUP1 PUSH3 0x5C7 JUMPI PUSH1 0x7F DUP3 AND SWAP2 POP JUMPDEST PUSH1 0x20 DUP3 LT DUP2 SUB PUSH3 0x5DD JUMPI PUSH3 0x5DC PUSH3 0x57F JUMP JUMPDEST JUMPDEST POP SWAP2 SWAP1 POP JUMP JUMPDEST PUSH2 0x455D DUP1 PUSH3 0x5F3 PUSH1 0x0 CODECOPY PUSH1 0x0 RETURN INVALID PUSH1 0x80 PUSH1 0x40 MSTORE PUSH1 0x4 CALLDATASIZE LT PUSH3 0x12E JUMPI PUSH1 0x0 CALLDATALOAD PUSH1 0xE0 SHR DUP1 PUSH4 0x78E037BA GT PUSH3 0xAF JUMPI DUP1 PUSH4 0xC6FBBA3F GT PUSH3 0x6D JUMPI DUP1 PUSH4 0xC6FBBA3F EQ PUSH3 0x3D9 JUMPI DUP1 PUSH4 0xCF1137FF EQ PUSH3 0x407 JUMPI DUP1 PUSH4 0xDB006A75 EQ PUSH3 0x437 JUMPI DUP1 PUSH4 0xDD62ED3E EQ PUSH3 0x465 JUMPI DUP1 PUSH4 0xF340FA01 EQ PUSH3 0x4A9 JUMPI PUSH3 0x12E JUMP JUMPDEST DUP1 PUSH4 0x78E037BA EQ PUSH3 0x2D5 JUMPI DUP1 PUSH4 0x7DC0D1D0 EQ PUSH3 0x305 JUMPI DUP1 PUSH4 0x95D89B41 EQ PUSH3 0x335 JUMPI DUP1 PUSH4 0xA9059CBB EQ PUSH3 0x365 JUMPI DUP1 PUSH4 0xABA98B60 EQ PUSH3 0x3A9 JUMPI PUSH3 0x12E JUMP JUMPDEST DUP1 PUSH4 0x23B872DD GT PUSH3 0xFD JUMPI DUP1 PUSH4 0x23B872DD EQ PUSH3 0x1E3 JUMPI DUP1 PUSH4 0x313CE567 EQ PUSH3 0x227 JUMPI DUP1 PUSH4 0x37707FB8 EQ PUSH3 0x257 JUMPI DUP1 PUSH4 0x42966C68 EQ PUSH3 0x263 JUMPI DUP1 PUSH4 0x70A08231 EQ PUSH3 0x291 JUMPI PUSH3 0x12E JUMP JUMPDEST DUP1 PUSH4 0x6FDDE03 EQ PUSH3 0x133 JUMPI DUP1 PUSH4 0x95EA7B3 EQ PUSH3 0x163 JUMPI DUP1 PUSH4 0x1249C58B EQ PUSH3 0x1A7 JUMPI DUP1 PUSH4 0x18160DDD EQ PUSH3 0x1B3 JUMPI JUMPDEST PUSH1 0x0 DUP1 REVERT JUMPDEST CALLVALUE DUP1 ISZERO PUSH3 0x140 JUMPI PUSH1 0x0 DUP1 REVERT JUMPDEST POP PUSH3 0x14B PUSH3 0x4C9 JUMP JUMPDEST PUSH1 0x40 MLOAD PUSH3 0x15A SWAP2 SWAP1 PUSH3 0x1C71 JUMP JUMPDEST PUSH1 0x40 MLOAD DUP1 SWAP2 SUB SWAP1 RETURN JUMPDEST CALLVALUE DUP1 ISZERO PUSH3 0x170 JUMPI PUSH1 0x0 DUP1 REVERT JUMPDEST POP PUSH3 0x18F PUSH1 0x4 DUP1 CALLDATASIZE SUB DUP2 ADD SWAP1 PUSH3 0x189 SWAP2 SWAP1 PUSH3 0x1D3A JUMP JUMPDEST PUSH3 0x55F JUMP JUMPDEST PUSH1 0x40 MLOAD PUSH3 0x19E SWAP2 SWAP1 PUSH3 0x1D9E JUMP JUMPDEST PUSH1 0x40 MLOAD DUP1 SWAP2 SUB SWAP1 RETURN JUMPDEST PUSH3 0x1B1 PUSH3 0x6C4 JUMP JUMPDEST STOP JUMPDEST CALLVALUE DUP1 ISZERO PUSH3 0x1C0 JUMPI PUSH1 0x0 DUP1 REVERT JUMPDEST POP PUSH3 0x1CB PUSH3 0x79B JUMP JUMPDEST PUSH1 0x40 MLOAD PUSH3 0x1DA SWAP2 SWAP1 PUSH3 0x1DCC JUMP JUMPDEST PUSH1 0x40 MLOAD DUP1 SWAP2 SUB SWAP1 RETURN JUMPDEST CALLVALUE DUP1 ISZERO PUSH3 0x1F0 JUMPI PUSH1 0x0 DUP1 REVERT JUMPDEST POP PUSH3 0x20F PUSH1 0x4 DUP1 CALLDATASIZE SUB DUP2 ADD SWAP1 PUSH3 0x209 SWAP2 SWAP1 PUSH3 0x1DE9 JUMP JUMPDEST PUSH3 0x7A1 JUMP JUMPDEST PUSH1 0x40 MLOAD PUSH3 0x21E SWAP2 SWAP1 PUSH3 0x1D9E JUMP JUMPDEST PUSH1 0x40 MLOAD DUP1 SWAP2 SUB SWAP1 RETURN JUMPDEST CALLVALUE DUP1 ISZERO PUSH3 0x234 JUMPI PUSH1 0x0 DUP1 REVERT JUMPDEST POP PUSH3 0x23F PUSH3 0x90E JUMP JUMPDEST PUSH1 0x40 MLOAD PUSH3 0x24E SWAP2 SWAP1 PUSH3 0x1E63 JUMP JUMPDEST PUSH1 0x40 MLOAD DUP1 SWAP2 SUB SWAP1 RETURN JUMPDEST PUSH3 0x261 PUSH3 0x917 JUMP JUMPDEST STOP JUMPDEST CALLVALUE DUP1 ISZERO PUSH3 0x270 JUMPI PUSH1 0x0 DUP1 REVERT JUMPDEST POP PUSH3 0x28F PUSH1 0x4 DUP1 CALLDATASIZE SUB DUP2 ADD SWAP1 PUSH3 0x289 SWAP2 SWAP1 PUSH3 0x1E80 JUMP JUMPDEST PUSH3 0xD44 JUMP JUMPDEST STOP JUMPDEST CALLVALUE DUP1 ISZERO PUSH3 0x29E JUMPI PUSH1 0x0 DUP1 REVERT JUMPDEST POP PUSH3 0x2BD PUSH1 0x4 DUP1 CALLDATASIZE SUB DUP2 ADD SWAP1 PUSH3 0x2B7 SWAP2 SWAP1 PUSH3 0x1EB2 JUMP JUMPDEST PUSH3 0xF26 JUMP JUMPDEST PUSH1 0x40 MLOAD PUSH3 0x2CC SWAP2 SWAP1 PUSH3 0x1DCC JUMP JUMPDEST PUSH1 0x40 MLOAD DUP1 SWAP2 SUB SWAP1 RETURN JUMPDEST CALLVALUE DUP1 ISZERO PUSH3 0x2E2 JUMPI PUSH1 0x0 DUP1 REVERT JUMPDEST POP PUSH3 0x2ED PUSH3 0xF3E JUMP JUMPDEST PUSH1 0x40 MLOAD PUSH3 0x2FC SWAP2 SWAP1 PUSH3 0x1F4F JUMP JUMPDEST PUSH1 0x40 MLOAD DUP1 SWAP2 SUB SWAP1 RETURN JUMPDEST CALLVALUE DUP1 ISZERO PUSH3 0x312 JUMPI PUSH1 0x0 DUP1 REVERT JUMPDEST POP PUSH3 0x31D PUSH3 0xF64 JUMP JUMPDEST PUSH1 0x40 MLOAD PUSH3 0x32C SWAP2 SWAP1 PUSH3 0x1F91 JUMP JUMPDEST PUSH1 0x40 MLOAD DUP1 SWAP2 SUB SWAP1 RETURN JUMPDEST CALLVALUE DUP1 ISZERO PUSH3 0x342 JUMPI PUSH1 0x0 DUP1 REVERT JUMPDEST POP PUSH3 0x34D PUSH3 0xF8A JUMP JUMPDEST PUSH1 0x40 MLOAD PUSH3 0x35C SWAP2 SWAP1 PUSH3 0x1C71 JUMP JUMPDEST PUSH1 0x40 MLOAD DUP1 SWAP2 SUB SWAP1 RETURN JUMPDEST CALLVALUE DUP1 ISZERO PUSH3 0x372 JUMPI PUSH1 0x0 DUP1 REVERT JUMPDEST POP PUSH3 0x391 PUSH1 0x4 DUP1 CALLDATASIZE SUB DUP2 ADD SWAP1 PUSH3 0x38B SWAP2 SWAP1 PUSH3 0x1D3A JUMP JUMPDEST PUSH3 0x1020 JUMP JUMPDEST PUSH1 0x40 MLOAD PUSH3 0x3A0 SWAP2 SWAP1 PUSH3 0x1D9E JUMP JUMPDEST PUSH1 0x40 MLOAD DUP1 SWAP2 SUB SWAP1 RETURN JUMPDEST CALLVALUE DUP1 ISZERO PUSH3 0x3B6 JUMPI PUSH1 0x0 DUP1 REVERT JUMPDEST POP PUSH3 0x3C1 PUSH3 0x1037 JUMP JUMPDEST PUSH1 0x40 MLOAD PUSH3 0x3D0 SWAP2 SWAP1 PUSH3 0x1DCC JUMP JUMPDEST PUSH1 0x40 MLOAD DUP1 SWAP2 SUB SWAP1 RETURN JUMPDEST CALLVALUE DUP1 ISZERO PUSH3 0x3E6 JUMPI PUSH1 0x0 DUP1 REVERT JUMPDEST POP PUSH3 0x405 PUSH1 0x4 DUP1 CALLDATASIZE SUB DUP2 ADD SWAP1 PUSH3 0x3FF SWAP2 SWAP1 PUSH3 0x1E80 JUMP JUMPDEST PUSH3 0x103C JUMP JUMPDEST STOP JUMPDEST CALLVALUE DUP1 ISZERO PUSH3 0x414 JUMPI PUSH1 0x0 DUP1 REVERT JUMPDEST POP PUSH3 0x41F PUSH3 0x1397 JUMP JUMPDEST PUSH1 0x40 MLOAD PUSH3 0x42E SWAP2 SWAP1 PUSH3 0x1DCC JUMP JUMPDEST PUSH1 0x40 MLOAD DUP1 SWAP2 SUB SWAP1 RETURN JUMPDEST CALLVALUE DUP1 ISZERO PUSH3 0x444 JUMPI PUSH1 0x0 DUP1 REVERT JUMPDEST POP PUSH3 0x463 PUSH1 0x4 DUP1 CALLDATASIZE SUB DUP2 ADD SWAP1 PUSH3 0x45D SWAP2 SWAP1 PUSH3 0x1E80 JUMP JUMPDEST PUSH3 0x139D JUMP JUMPDEST STOP JUMPDEST CALLVALUE DUP1 ISZERO PUSH3 0x472 JUMPI PUSH1 0x0 DUP1 REVERT JUMPDEST POP PUSH3 0x491 PUSH1 0x4 DUP1 CALLDATASIZE SUB DUP2 ADD SWAP1 PUSH3 0x48B SWAP2 SWAP1 PUSH3 0x1FAE JUMP JUMPDEST PUSH3 0x13BA JUMP JUMPDEST PUSH1 0x40 MLOAD PUSH3 0x4A0 SWAP2 SWAP1 PUSH3 0x1DCC JUMP JUMPDEST PUSH1 0x40 MLOAD DUP1 SWAP2 SUB SWAP1 RETURN JUMPDEST PUSH3 0x4C7 PUSH1 0x4 DUP1 CALLDATASIZE SUB DUP2 ADD SWAP1 PUSH3 0x4C1 SWAP2 SWAP1 PUSH3 0x1EB2 JUMP JUMPDEST PUSH3 0x13DF JUMP JUMPDEST STOP JUMPDEST PUSH1 0x1 DUP1 SLOAD PUSH3 0x4D8 SWAP1 PUSH3 0x2024 JUMP JUMPDEST DUP1 PUSH1 0x1F ADD PUSH1 0x20 DUP1 SWAP2 DIV MUL PUSH1 0x20 ADD PUSH1 0x40 MLOAD SWAP1 DUP2 ADD PUSH1 0x40 MSTORE DUP1 SWAP3 SWAP2 SWAP1 DUP2 DUP2 MSTORE PUSH1 0x20 ADD DUP3 DUP1 SLOAD PUSH3 0x506 SWAP1 PUSH3 0x2024 JUMP JUMPDEST DUP1 ISZERO PUSH3 0x557 JUMPI DUP1 PUSH1 0x1F LT PUSH3 0x52B JUMPI PUSH2 0x100 DUP1 DUP4 SLOAD DIV MUL DUP4 MSTORE SWAP2 PUSH1 0x20 ADD SWAP2 PUSH3 0x557 JUMP JUMPDEST DUP3 ADD SWAP2 SWAP1 PUSH1 0x0 MSTORE PUSH1 0x20 PUSH1 0x0 KECCAK256 SWAP1 JUMPDEST DUP2 SLOAD DUP2 MSTORE SWAP1 PUSH1 0x1 ADD SWAP1 PUSH1 0x20 ADD DUP1 DUP4 GT PUSH3 0x539 JUMPI DUP3 SWAP1 SUB PUSH1 0x1F AND DUP3 ADD SWAP2 JUMPDEST POP POP POP POP POP DUP2 JUMP JUMPDEST PUSH1 0x0 DUP1 PUSH20 0xFFFFFFFFFFFFFFFFFFFFFFFFFFFFFFFFFFFFFFFF AND DUP4 PUSH20 0xFFFFFFFFFFFFFFFFFFFFFFFFFFFFFFFFFFFFFFFF AND SUB PUSH3 0x5D2 JUMPI PUSH1 0x40 MLOAD PUSH32 0x8C379A000000000000000000000000000000000000000000000000000000000 DUP2 MSTORE PUSH1 0x4 ADD PUSH3 0x5C9 SWAP1 PUSH3 0x20A9 JUMP JUMPDEST PUSH1 0x40 MLOAD DUP1 SWAP2 SUB SWAP1 REVERT JUMPDEST DUP2 PUSH1 0x4 PUSH1 0x0 CALLER PUSH20 0xFFFFFFFFFFFFFFFFFFFFFFFFFFFFFFFFFFFFFFFF AND PUSH20 0xFFFFFFFFFFFFFFFFFFFFFFFFFFFFFFFFFFFFFFFF AND DUP2 MSTORE PUSH1 0x20 ADD SWAP1 DUP2 MSTORE PUSH1 0x20 ADD PUSH1 0x0 KECCAK256 PUSH1 0x0 DUP6 PUSH20 0xFFFFFFFFFFFFFFFFFFFFFFFFFFFFFFFFFFFFFFFF AND PUSH20 0xFFFFFFFFFFFFFFFFFFFFFFFFFFFFFFFFFFFFFFFF AND DUP2 MSTORE PUSH1 0x20 ADD SWAP1 DUP2 MSTORE PUSH1 0x20 ADD PUSH1 0x0 KECCAK256 DUP2 SWAP1 SSTORE POP DUP3 PUSH20 0xFFFFFFFFFFFFFFFFFFFFFFFFFFFFFFFFFFFFFFFF AND CALLER PUSH20 0xFFFFFFFFFFFFFFFFFFFFFFFFFFFFFFFFFFFFFFFF AND PUSH32 0x8C5BE1E5EBEC7D5BD14F71427D1E84F3DD0314C0F7B2291E5B200AC8C7C3B925 DUP5 PUSH1 0x40 MLOAD PUSH3 0x6B2 SWAP2 SWAP1 PUSH3 0x1DCC JUMP JUMPDEST PUSH1 0x40 MLOAD DUP1 SWAP2 SUB SWAP1 LOG3 PUSH1 0x1 SWAP1 POP SWAP3 SWAP2 POP POP JUMP JUMPDEST PUSH1 0x0 PUSH3 0x6D1 CALLVALUE PUSH3 0x13EE JUMP JUMPDEST SWAP1 POP PUSH1 0x0 DUP2 CALLVALUE PUSH3 0x6E3 SWAP2 SWAP1 PUSH3 0x20FA JUMP JUMPDEST SWAP1 POP PUSH1 0x0 PUSH1 0x7 PUSH1 0x0 SWAP1 SLOAD SWAP1 PUSH2 0x100 EXP SWAP1 DIV PUSH20 0xFFFFFFFFFFFFFFFFFFFFFFFFFFFFFFFFFFFFFFFF AND PUSH20 0xFFFFFFFFFFFFFFFFFFFFFFFFFFFFFFFFFFFFFFFF AND PUSH4 0x98D5FDCA PUSH1 0x40 MLOAD DUP2 PUSH4 0xFFFFFFFF AND PUSH1 0xE0 SHL DUP2 MSTORE PUSH1 0x4 ADD PUSH1 0x20 PUSH1 0x40 MLOAD DUP1 DUP4 SUB DUP2 DUP7 GAS STATICCALL ISZERO DUP1 ISZERO PUSH3 0x755 JUMPI RETURNDATASIZE PUSH1 0x0 DUP1 RETURNDATACOPY RETURNDATASIZE PUSH1 0x0 REVERT JUMPDEST POP POP POP POP PUSH1 0x40 MLOAD RETURNDATASIZE PUSH1 0x1F NOT PUSH1 0x1F DUP3 ADD AND DUP3 ADD DUP1 PUSH1 0x40 MSTORE POP DUP2 ADD SWAP1 PUSH3 0x77B SWAP2 SWAP1 PUSH3 0x214C JUMP JUMPDEST DUP3 PUSH3 0x788 SWAP2 SWAP1 PUSH3 0x217E JUMP JUMPDEST SWAP1 POP PUSH3 0x796 CALLER DUP3 PUSH3 0x151E JUMP JUMPDEST POP POP POP JUMP JUMPDEST PUSH1 0x0 SLOAD DUP2 JUMP JUMPDEST PUSH1 0x0 DUP1 PUSH1 0x4 PUSH1 0x0 DUP7 PUSH20 0xFFFFFFFFFFFFFFFFFFFFFFFFFFFFFFFFFFFFFFFF AND PUSH20 0xFFFFFFFFFFFFFFFFFFFFFFFFFFFFFFFFFFFFFFFF AND DUP2 MSTORE PUSH1 0x20 ADD SWAP1 DUP2 MSTORE PUSH1 0x20 ADD PUSH1 0x0 KECCAK256 PUSH1 0x0 CALLER PUSH20 0xFFFFFFFFFFFFFFFFFFFFFFFFFFFFFFFFFFFFFFFF AND PUSH20 0xFFFFFFFFFFFFFFFFFFFFFFFFFFFFFFFFFFFFFFFF AND DUP2 MSTORE PUSH1 0x20 ADD SWAP1 DUP2 MSTORE PUSH1 0x20 ADD PUSH1 0x0 KECCAK256 SLOAD SWAP1 POP DUP3 DUP2 LT ISZERO PUSH3 0x869 JUMPI PUSH1 0x40 MLOAD PUSH32 0x8C379A000000000000000000000000000000000000000000000000000000000 DUP2 MSTORE PUSH1 0x4 ADD PUSH3 0x860 SWAP1 PUSH3 0x222F JUMP JUMPDEST PUSH1 0x40 MLOAD DUP1 SWAP2 SUB SWAP1 REVERT JUMPDEST DUP3 DUP2 PUSH3 0x877 SWAP2 SWAP1 PUSH3 0x20FA JUMP JUMPDEST PUSH1 0x4 PUSH1 0x0 DUP8 PUSH20 0xFFFFFFFFFFFFFFFFFFFFFFFFFFFFFFFFFFFFFFFF AND PUSH20 0xFFFFFFFFFFFFFFFFFFFFFFFFFFFFFFFFFFFFFFFF AND DUP2 MSTORE PUSH1 0x20 ADD SWAP1 DUP2 MSTORE PUSH1 0x20 ADD PUSH1 0x0 KECCAK256 PUSH1 0x0 CALLER PUSH20 0xFFFFFFFFFFFFFFFFFFFFFFFFFFFFFFFFFFFFFFFF AND PUSH20 0xFFFFFFFFFFFFFFFFFFFFFFFFFFFFFFFFFFFFFFFF AND DUP2 MSTORE PUSH1 0x20 ADD SWAP1 DUP2 MSTORE PUSH1 0x20 ADD PUSH1 0x0 KECCAK256 DUP2 SWAP1 SSTORE POP PUSH3 0x904 DUP6 DUP6 DUP6 PUSH3 0x166E JUMP JUMPDEST SWAP2 POP POP SWAP4 SWAP3 POP POP POP JUMP JUMPDEST PUSH1 0x0 PUSH1 0x12 SWAP1 POP SWAP1 JUMP JUMPDEST PUSH1 0x0 PUSH3 0x923 PUSH3 0x1886 JUMP JUMPDEST SWAP1 POP PUSH1 0x0 DUP2 SGT PUSH3 0xBDD JUMPI PUSH1 0x0 PUSH32 0xFFFFFFFFFFFFFFFFFFFFFFFFFFFFFFFFFFFFFFFFFFFFFFFFFFFFFFFFFFFFFFFF DUP3 PUSH3 0x95E SWAP2 SWAP1 PUSH3 0x225B JUMP JUMPDEST SWAP1 POP PUSH1 0x0 PUSH1 0x7 PUSH1 0x0 SWAP1 SLOAD SWAP1 PUSH2 0x100 EXP SWAP1 DIV PUSH20 0xFFFFFFFFFFFFFFFFFFFFFFFFFFFFFFFFFFFFFFFF AND PUSH20 0xFFFFFFFFFFFFFFFFFFFFFFFFFFFFFFFFFFFFFFFF AND PUSH4 0x98D5FDCA PUSH1 0x40 MLOAD DUP2 PUSH4 0xFFFFFFFF AND PUSH1 0xE0 SHL DUP2 MSTORE PUSH1 0x4 ADD PUSH1 0x20 PUSH1 0x40 MLOAD DUP1 DUP4 SUB DUP2 DUP7 GAS STATICCALL ISZERO DUP1 ISZERO PUSH3 0x9D0 JUMPI RETURNDATASIZE PUSH1 0x0 DUP1 RETURNDATACOPY RETURNDATASIZE PUSH1 0x0 REVERT JUMPDEST POP POP POP POP PUSH1 0x40 MLOAD RETURNDATASIZE PUSH1 0x1F NOT PUSH1 0x1F DUP3 ADD AND DUP3 ADD DUP1 PUSH1 0x40 MSTORE POP DUP2 ADD SWAP1 PUSH3 0x9F6 SWAP2 SWAP1 PUSH3 0x214C JUMP JUMPDEST SWAP1 POP PUSH1 0x0 DUP2 DUP4 PUSH3 0xA08 SWAP2 SWAP1 PUSH3 0x23B1 JUMP JUMPDEST SWAP1 POP PUSH1 0x0 PUSH1 0x64 PUSH1 0x0 SLOAD PUSH1 0xA PUSH3 0xA1F SWAP2 SWAP1 PUSH3 0x217E JUMP JUMPDEST PUSH3 0xA2B SWAP2 SWAP1 PUSH3 0x23B1 JUMP JUMPDEST SWAP1 POP PUSH1 0x0 DUP4 DUP3 PUSH3 0xA3D SWAP2 SWAP1 PUSH3 0x23B1 JUMP JUMPDEST SWAP1 POP DUP1 DUP4 PUSH3 0xA4D SWAP2 SWAP1 PUSH3 0x23E9 JUMP JUMPDEST CALLVALUE LT ISZERO PUSH3 0xAA6 JUMPI PUSH1 0x0 DUP2 DUP5 PUSH3 0xA65 SWAP2 SWAP1 PUSH3 0x23E9 JUMP JUMPDEST SWAP1 POP DUP1 PUSH1 0x40 MLOAD PUSH32 0x21BFE98800000000000000000000000000000000000000000000000000000000 DUP2 MSTORE PUSH1 0x4 ADD PUSH3 0xA9D SWAP2 SWAP1 PUSH3 0x24BC JUMP JUMPDEST PUSH1 0x40 MLOAD DUP1 SWAP2 SUB SWAP1 REVERT JUMPDEST PUSH1 0x0 DUP4 CALLVALUE PUSH3 0xAB6 SWAP2 SWAP1 PUSH3 0x20FA JUMP JUMPDEST SWAP1 POP PUSH1 0x0 DUP6 DUP3 PUSH3 0xAC8 SWAP2 SWAP1 PUSH3 0x217E JUMP JUMPDEST SWAP1 POP PUSH1 0x40 MLOAD PUSH3 0xAD8 SWAP1 PUSH3 0x1BBF JUMP JUMPDEST PUSH1 0x40 MLOAD DUP1 SWAP2 SUB SWAP1 PUSH1 0x0 CREATE DUP1 ISZERO DUP1 ISZERO PUSH3 0xAF5 JUMPI RETURNDATASIZE PUSH1 0x0 DUP1 RETURNDATACOPY RETURNDATASIZE PUSH1 0x0 REVERT JUMPDEST POP PUSH1 0x5 PUSH1 0x0 PUSH2 0x100 EXP DUP2 SLOAD DUP2 PUSH20 0xFFFFFFFFFFFFFFFFFFFFFFFFFFFFFFFFFFFFFFFF MUL NOT AND SWAP1 DUP4 PUSH20 0xFFFFFFFFFFFFFFFFFFFFFFFFFFFFFFFFFFFFFFFF AND MUL OR SWAP1 SSTORE POP PUSH1 0x0 DUP2 SWAP1 POP PUSH1 0x5 PUSH1 0x0 SWAP1 SLOAD SWAP1 PUSH2 0x100 EXP SWAP1 DIV PUSH20 0xFFFFFFFFFFFFFFFFFFFFFFFFFFFFFFFFFFFFFFFF AND PUSH20 0xFFFFFFFFFFFFFFFFFFFFFFFFFFFFFFFFFFFFFFFF AND PUSH4 0x40C10F19 CALLER DUP4 PUSH1 0x40 MLOAD DUP4 PUSH4 0xFFFFFFFF AND PUSH1 0xE0 SHL DUP2 MSTORE PUSH1 0x4 ADD PUSH3 0xB9A SWAP3 SWAP2 SWAP1 PUSH3 0x24FF JUMP JUMPDEST PUSH1 0x0 PUSH1 0x40 MLOAD DUP1 DUP4 SUB DUP2 PUSH1 0x0 DUP8 DUP1 EXTCODESIZE ISZERO DUP1 ISZERO PUSH3 0xBB5 JUMPI PUSH1 0x0 DUP1 REVERT JUMPDEST POP GAS CALL ISZERO DUP1 ISZERO PUSH3 0xBCA JUMPI RETURNDATASIZE PUSH1 0x0 DUP1 RETURNDATACOPY RETURNDATASIZE PUSH1 0x0 REVERT JUMPDEST POP POP POP POP POP POP POP POP POP POP POP POP POP PUSH3 0xD42 JUMP JUMPDEST PUSH1 0x0 DUP2 SWAP1 POP PUSH1 0x0 PUSH3 0xBEF DUP3 PUSH3 0x195A JUMP JUMPDEST SWAP1 POP PUSH1 0x0 PUSH1 0x7 PUSH1 0x0 SWAP1 SLOAD SWAP1 PUSH2 0x100 EXP SWAP1 DIV PUSH20 0xFFFFFFFFFFFFFFFFFFFFFFFFFFFFFFFFFFFFFFFF AND PUSH20 0xFFFFFFFFFFFFFFFFFFFFFFFFFFFFFFFFFFFFFFFF AND PUSH4 0x98D5FDCA PUSH1 0x40 MLOAD DUP2 PUSH4 0xFFFFFFFF AND PUSH1 0xE0 SHL DUP2 MSTORE PUSH1 0x4 ADD PUSH1 0x20 PUSH1 0x40 MLOAD DUP1 DUP4 SUB DUP2 DUP7 GAS STATICCALL ISZERO DUP1 ISZERO PUSH3 0xC61 JUMPI RETURNDATASIZE PUSH1 0x0 DUP1 RETURNDATACOPY RETURNDATASIZE PUSH1 0x0 REVERT JUMPDEST POP POP POP POP PUSH1 0x40 MLOAD RETURNDATASIZE PUSH1 0x1F NOT PUSH1 0x1F DUP3 ADD AND DUP3 ADD DUP1 PUSH1 0x40 MSTORE POP DUP2 ADD SWAP1 PUSH3 0xC87 SWAP2 SWAP1 PUSH3 0x214C JUMP JUMPDEST PUSH3 0xC9C DUP4 CALLVALUE PUSH3 0x1A02 SWAP1 SWAP2 SWAP1 PUSH4 0xFFFFFFFF AND JUMP JUMPDEST PUSH3 0xCA8 SWAP2 SWAP1 PUSH3 0x23B1 JUMP JUMPDEST SWAP1 POP PUSH1 0x5 PUSH1 0x0 SWAP1 SLOAD SWAP1 PUSH2 0x100 EXP SWAP1 DIV PUSH20 0xFFFFFFFFFFFFFFFFFFFFFFFFFFFFFFFFFFFFFFFF AND PUSH20 0xFFFFFFFFFFFFFFFFFFFFFFFFFFFFFFFFFFFFFFFF AND PUSH4 0x40C10F19 CALLER DUP4 PUSH1 0x40 MLOAD DUP4 PUSH4 0xFFFFFFFF AND PUSH1 0xE0 SHL DUP2 MSTORE PUSH1 0x4 ADD PUSH3 0xD09 SWAP3 SWAP2 SWAP1 PUSH3 0x24FF JUMP JUMPDEST PUSH1 0x0 PUSH1 0x40 MLOAD DUP1 DUP4 SUB DUP2 PUSH1 0x0 DUP8 DUP1 EXTCODESIZE ISZERO DUP1 ISZERO PUSH3 0xD24 JUMPI PUSH1 0x0 DUP1 REVERT JUMPDEST POP GAS CALL ISZERO DUP1 ISZERO PUSH3 0xD39 JUMPI RETURNDATASIZE PUSH1 0x0 DUP1 RETURNDATACOPY RETURNDATASIZE PUSH1 0x0 REVERT JUMPDEST POP POP POP POP POP POP POP POP JUMPDEST JUMP JUMPDEST PUSH1 0x0 PUSH3 0xD50 PUSH3 0x1886 JUMP JUMPDEST SWAP1 POP PUSH1 0x0 DUP2 SLT ISZERO PUSH3 0xD99 JUMPI PUSH1 0x40 MLOAD PUSH32 0x8C379A000000000000000000000000000000000000000000000000000000000 DUP2 MSTORE PUSH1 0x4 ADD PUSH3 0xD90 SWAP1 PUSH3 0x257C JUMP JUMPDEST PUSH1 0x40 MLOAD DUP1 SWAP2 SUB SWAP1 REVERT JUMPDEST PUSH3 0xDA5 CALLER DUP4 PUSH3 0x1A2F JUMP JUMPDEST PUSH1 0x0 PUSH1 0x7 PUSH1 0x0 SWAP1 SLOAD SWAP1 PUSH2 0x100 EXP SWAP1 DIV PUSH20 0xFFFFFFFFFFFFFFFFFFFFFFFFFFFFFFFFFFFFFFFF AND PUSH20 0xFFFFFFFFFFFFFFFFFFFFFFFFFFFFFFFFFFFFFFFF AND PUSH4 0x98D5FDCA PUSH1 0x40 MLOAD DUP2 PUSH4 0xFFFFFFFF AND PUSH1 0xE0 SHL DUP2 MSTORE PUSH1 0x4 ADD PUSH1 0x20 PUSH1 0x40 MLOAD DUP1 DUP4 SUB DUP2 DUP7 GAS STATICCALL ISZERO DUP1 ISZERO PUSH3 0xE15 JUMPI RETURNDATASIZE PUSH1 0x0 DUP1 RETURNDATACOPY RETURNDATASIZE PUSH1 0x0 REVERT JUMPDEST POP POP POP POP PUSH1 0x40 MLOAD RETURNDATASIZE PUSH1 0x1F NOT PUSH1 0x1F DUP3 ADD AND DUP3 ADD DUP1 PUSH1 0x40 MSTORE POP DUP2 ADD SWAP1 PUSH3 0xE3B SWAP2 SWAP1 PUSH3 0x214C JUMP JUMPDEST DUP4 PUSH3 0xE48 SWAP2 SWAP1 PUSH3 0x23B1 JUMP JUMPDEST SWAP1 POP PUSH1 0x0 PUSH3 0xE57 DUP3 PUSH3 0x13EE JUMP JUMPDEST SWAP1 POP PUSH1 0x0 DUP2 DUP4 PUSH3 0xE69 SWAP2 SWAP1 PUSH3 0x20FA JUMP JUMPDEST SWAP1 POP PUSH1 0x0 CALLER PUSH20 0xFFFFFFFFFFFFFFFFFFFFFFFFFFFFFFFFFFFFFFFF AND DUP3 PUSH1 0x40 MLOAD PUSH3 0xE93 SWAP1 PUSH3 0x25D3 JUMP JUMPDEST PUSH1 0x0 PUSH1 0x40 MLOAD DUP1 DUP4 SUB DUP2 DUP6 DUP8 GAS CALL SWAP3 POP POP POP RETURNDATASIZE DUP1 PUSH1 0x0 DUP2 EQ PUSH3 0xED2 JUMPI PUSH1 0x40 MLOAD SWAP2 POP PUSH1 0x1F NOT PUSH1 0x3F RETURNDATASIZE ADD AND DUP3 ADD PUSH1 0x40 MSTORE RETURNDATASIZE DUP3 MSTORE RETURNDATASIZE PUSH1 0x0 PUSH1 0x20 DUP5 ADD RETURNDATACOPY PUSH3 0xED7 JUMP JUMPDEST PUSH1 0x60 SWAP2 POP JUMPDEST POP POP SWAP1 POP DUP1 PUSH3 0xF1E JUMPI PUSH1 0x40 MLOAD PUSH32 0x8C379A000000000000000000000000000000000000000000000000000000000 DUP2 MSTORE PUSH1 0x4 ADD PUSH3 0xF15 SWAP1 PUSH3 0x263A JUMP JUMPDEST PUSH1 0x40 MLOAD DUP1 SWAP2 SUB SWAP1 REVERT JUMPDEST POP POP POP POP POP POP JUMP JUMPDEST PUSH1 0x3 PUSH1 0x20 MSTORE DUP1 PUSH1 0x0 MSTORE PUSH1 0x40 PUSH1 0x0 KECCAK256 PUSH1 0x0 SWAP2 POP SWAP1 POP SLOAD DUP2 JUMP JUMPDEST PUSH1 0x5 PUSH1 0x0 SWAP1 SLOAD SWAP1 PUSH2 0x100 EXP SWAP1 DIV PUSH20 0xFFFFFFFFFFFFFFFFFFFFFFFFFFFFFFFFFFFFFFFF AND DUP2 JUMP JUMPDEST PUSH1 0x7 PUSH1 0x0 SWAP1 SLOAD SWAP1 PUSH2 0x100 EXP SWAP1 DIV PUSH20 0xFFFFFFFFFFFFFFFFFFFFFFFFFFFFFFFFFFFFFFFF AND DUP2 JUMP JUMPDEST PUSH1 0x2 DUP1 SLOAD PUSH3 0xF99 SWAP1 PUSH3 0x2024 JUMP JUMPDEST DUP1 PUSH1 0x1F ADD PUSH1 0x20 DUP1 SWAP2 DIV MUL PUSH1 0x20 ADD PUSH1 0x40 MLOAD SWAP1 DUP2 ADD PUSH1 0x40 MSTORE DUP1 SWAP3 SWAP2 SWAP1 DUP2 DUP2 MSTORE PUSH1 0x20 ADD DUP3 DUP1 SLOAD PUSH3 0xFC7 SWAP1 PUSH3 0x2024 JUMP JUMPDEST DUP1 ISZERO PUSH3 0x1018 JUMPI DUP1 PUSH1 0x1F LT PUSH3 0xFEC JUMPI PUSH2 0x100 DUP1 DUP4 SLOAD DIV MUL DUP4 MSTORE SWAP2 PUSH1 0x20 ADD SWAP2 PUSH3 0x1018 JUMP JUMPDEST DUP3 ADD SWAP2 SWAP1 PUSH1 0x0 MSTORE PUSH1 0x20 PUSH1 0x0 KECCAK256 SWAP1 JUMPDEST DUP2 SLOAD DUP2 MSTORE SWAP1 PUSH1 0x1 ADD SWAP1 PUSH1 0x20 ADD DUP1 DUP4 GT PUSH3 0xFFA JUMPI DUP3 SWAP1 SUB PUSH1 0x1F AND DUP3 ADD SWAP2 JUMPDEST POP POP POP POP POP DUP2 JUMP JUMPDEST PUSH1 0x0 PUSH3 0x102F CALLER DUP5 DUP5 PUSH3 0x166E JUMP JUMPDEST SWAP1 POP SWAP3 SWAP2 POP POP JUMP JUMPDEST PUSH1 0xA DUP2 JUMP JUMPDEST DUP1 PUSH1 0x5 PUSH1 0x0 SWAP1 SLOAD SWAP1 PUSH2 0x100 EXP SWAP1 DIV PUSH20 0xFFFFFFFFFFFFFFFFFFFFFFFFFFFFFFFFFFFFFFFF AND PUSH20 0xFFFFFFFFFFFFFFFFFFFFFFFFFFFFFFFFFFFFFFFF AND PUSH4 0x70A08231 CALLER PUSH1 0x40 MLOAD DUP3 PUSH4 0xFFFFFFFF AND PUSH1 0xE0 SHL DUP2 MSTORE PUSH1 0x4 ADD PUSH3 0x109A SWAP2 SWAP1 PUSH3 0x265C JUMP JUMPDEST PUSH1 0x20 PUSH1 0x40 MLOAD DUP1 DUP4 SUB DUP2 DUP7 GAS STATICCALL ISZERO DUP1 ISZERO PUSH3 0x10B8 JUMPI RETURNDATASIZE PUSH1 0x0 DUP1 RETURNDATACOPY RETURNDATASIZE PUSH1 0x0 REVERT JUMPDEST POP POP POP POP PUSH1 0x40 MLOAD RETURNDATASIZE PUSH1 0x1F NOT PUSH1 0x1F DUP3 ADD AND DUP3 ADD DUP1 PUSH1 0x40 MSTORE POP DUP2 ADD SWAP1 PUSH3 0x10DE SWAP2 SWAP1 PUSH3 0x214C JUMP JUMPDEST LT ISZERO PUSH3 0x1122 JUMPI PUSH1 0x40 MLOAD PUSH32 0x8C379A000000000000000000000000000000000000000000000000000000000 DUP2 MSTORE PUSH1 0x4 ADD PUSH3 0x1119 SWAP1 PUSH3 0x26EF JUMP JUMPDEST PUSH1 0x40 MLOAD DUP1 SWAP2 SUB SWAP1 REVERT JUMPDEST PUSH1 0x5 PUSH1 0x0 SWAP1 SLOAD SWAP1 PUSH2 0x100 EXP SWAP1 DIV PUSH20 0xFFFFFFFFFFFFFFFFFFFFFFFFFFFFFFFFFFFFFFFF AND PUSH20 0xFFFFFFFFFFFFFFFFFFFFFFFFFFFFFFFFFFFFFFFF AND PUSH4 0x9DC29FAC CALLER DUP4 PUSH1 0x40 MLOAD DUP4 PUSH4 0xFFFFFFFF AND PUSH1 0xE0 SHL DUP2 MSTORE PUSH1 0x4 ADD PUSH3 0x1181 SWAP3 SWAP2 SWAP1 PUSH3 0x24FF JUMP JUMPDEST PUSH1 0x0 PUSH1 0x40 MLOAD DUP1 DUP4 SUB DUP2 PUSH1 0x0 DUP8 DUP1 EXTCODESIZE ISZERO DUP1 ISZERO PUSH3 0x119C JUMPI PUSH1 0x0 DUP1 REVERT JUMPDEST POP GAS CALL ISZERO DUP1 ISZERO PUSH3 0x11B1 JUMPI RETURNDATASIZE PUSH1 0x0 DUP1 RETURNDATACOPY RETURNDATASIZE PUSH1 0x0 REVERT JUMPDEST POP POP POP POP PUSH1 0x0 PUSH3 0x11C1 PUSH3 0x1886 JUMP JUMPDEST SWAP1 POP PUSH1 0x0 DUP2 SGT PUSH3 0x1209 JUMPI PUSH1 0x40 MLOAD PUSH32 0x8C379A000000000000000000000000000000000000000000000000000000000 DUP2 MSTORE PUSH1 0x4 ADD PUSH3 0x1200 SWAP1 PUSH3 0x2761 JUMP JUMPDEST PUSH1 0x40 MLOAD DUP1 SWAP2 SUB SWAP1 REVERT JUMPDEST PUSH1 0x0 DUP2 SWAP1 POP PUSH1 0x0 PUSH3 0x121B DUP3 PUSH3 0x195A JUMP JUMPDEST SWAP1 POP PUSH1 0x0 PUSH3 0x1234 DUP3 DUP7 PUSH3 0x1A02 SWAP1 SWAP2 SWAP1 PUSH4 0xFFFFFFFF AND JUMP JUMPDEST SWAP1 POP PUSH1 0x0 PUSH1 0x7 PUSH1 0x0 SWAP1 SLOAD SWAP1 PUSH2 0x100 EXP SWAP1 DIV PUSH20 0xFFFFFFFFFFFFFFFFFFFFFFFFFFFFFFFFFFFFFFFF AND PUSH20 0xFFFFFFFFFFFFFFFFFFFFFFFFFFFFFFFFFFFFFFFF AND PUSH4 0x98D5FDCA PUSH1 0x40 MLOAD DUP2 PUSH4 0xFFFFFFFF AND PUSH1 0xE0 SHL DUP2 MSTORE PUSH1 0x4 ADD PUSH1 0x20 PUSH1 0x40 MLOAD DUP1 DUP4 SUB DUP2 DUP7 GAS STATICCALL ISZERO DUP1 ISZERO PUSH3 0x12A6 JUMPI RETURNDATASIZE PUSH1 0x0 DUP1 RETURNDATACOPY RETURNDATASIZE PUSH1 0x0 REVERT JUMPDEST POP POP POP POP PUSH1 0x40 MLOAD RETURNDATASIZE PUSH1 0x1F NOT PUSH1 0x1F DUP3 ADD AND DUP3 ADD DUP1 PUSH1 0x40 MSTORE POP DUP2 ADD SWAP1 PUSH3 0x12CC SWAP2 SWAP1 PUSH3 0x214C JUMP JUMPDEST DUP3 PUSH3 0x12D9 SWAP2 SWAP1 PUSH3 0x23B1 JUMP JUMPDEST SWAP1 POP PUSH1 0x0 CALLER PUSH20 0xFFFFFFFFFFFFFFFFFFFFFFFFFFFFFFFFFFFFFFFF AND DUP3 PUSH1 0x40 MLOAD PUSH3 0x1303 SWAP1 PUSH3 0x25D3 JUMP JUMPDEST PUSH1 0x0 PUSH1 0x40 MLOAD DUP1 DUP4 SUB DUP2 DUP6 DUP8 GAS CALL SWAP3 POP POP POP RETURNDATASIZE DUP1 PUSH1 0x0 DUP2 EQ PUSH3 0x1342 JUMPI PUSH1 0x40 MLOAD SWAP2 POP PUSH1 0x1F NOT PUSH1 0x3F RETURNDATASIZE ADD AND DUP3 ADD PUSH1 0x40 MSTORE RETURNDATASIZE DUP3 MSTORE RETURNDATASIZE PUSH1 0x0 PUSH1 0x20 DUP5 ADD RETURNDATACOPY PUSH3 0x1347 JUMP JUMPDEST PUSH1 0x60 SWAP2 POP JUMPDEST POP POP SWAP1 POP DUP1 PUSH3 0x138E JUMPI PUSH1 0x40 MLOAD PUSH32 0x8C379A000000000000000000000000000000000000000000000000000000000 DUP2 MSTORE PUSH1 0x4 ADD PUSH3 0x1385 SWAP1 PUSH3 0x27F9 JUMP JUMPDEST PUSH1 0x40 MLOAD DUP1 SWAP2 SUB SWAP1 REVERT JUMPDEST POP POP POP POP POP POP POP JUMP JUMPDEST PUSH1 0x6 SLOAD DUP2 JUMP JUMPDEST PUSH3 0x13AA CALLER ADDRESS DUP4 PUSH3 0x7A1 JUMP JUMPDEST POP PUSH3 0x13B7 ADDRESS DUP3 PUSH3 0x1A2F JUMP JUMPDEST POP JUMP JUMPDEST PUSH1 0x4 PUSH1 0x20 MSTORE DUP2 PUSH1 0x0 MSTORE PUSH1 0x40 PUSH1 0x0 KECCAK256 PUSH1 0x20 MSTORE DUP1 PUSH1 0x0 MSTORE PUSH1 0x40 PUSH1 0x0 KECCAK256 PUSH1 0x0 SWAP2 POP SWAP2 POP POP SLOAD DUP2 JUMP JUMPDEST PUSH3 0x13EB DUP2 CALLVALUE PUSH3 0x151E JUMP JUMPDEST POP JUMP JUMPDEST PUSH1 0x0 DUP1 PUSH1 0x0 PUSH20 0xFFFFFFFFFFFFFFFFFFFFFFFFFFFFFFFFFFFFFFFF AND PUSH1 0x5 PUSH1 0x0 SWAP1 SLOAD SWAP1 PUSH2 0x100 EXP SWAP1 DIV PUSH20 0xFFFFFFFFFFFFFFFFFFFFFFFFFFFFFFFFFFFFFFFF AND PUSH20 0xFFFFFFFFFFFFFFFFFFFFFFFFFFFFFFFFFFFFFFFF AND EQ ISZERO DUP1 ISZERO PUSH3 0x14E4 JUMPI POP PUSH1 0x0 PUSH1 0x5 PUSH1 0x0 SWAP1 SLOAD SWAP1 PUSH2 0x100 EXP SWAP1 DIV PUSH20 0xFFFFFFFFFFFFFFFFFFFFFFFFFFFFFFFFFFFFFFFF AND PUSH20 0xFFFFFFFFFFFFFFFFFFFFFFFFFFFFFFFFFFFFFFFF AND PUSH4 0x18160DDD PUSH1 0x40 MLOAD DUP2 PUSH4 0xFFFFFFFF AND PUSH1 0xE0 SHL DUP2 MSTORE PUSH1 0x4 ADD PUSH1 0x20 PUSH1 0x40 MLOAD DUP1 DUP4 SUB DUP2 DUP7 GAS STATICCALL ISZERO DUP1 ISZERO PUSH3 0x14BC JUMPI RETURNDATASIZE PUSH1 0x0 DUP1 RETURNDATACOPY RETURNDATASIZE PUSH1 0x0 REVERT JUMPDEST POP POP POP POP PUSH1 0x40 MLOAD RETURNDATASIZE PUSH1 0x1F NOT PUSH1 0x1F DUP3 ADD AND DUP3 ADD DUP1 PUSH1 0x40 MSTORE POP DUP2 ADD SWAP1 PUSH3 0x14E2 SWAP2 SWAP1 PUSH3 0x214C JUMP JUMPDEST GT JUMPDEST SWAP1 POP DUP1 PUSH3 0x14F7 JUMPI PUSH1 0x0 SWAP2 POP POP PUSH3 0x1519 JUMP JUMPDEST PUSH1 0x64 DUP4 PUSH1 0x6 SLOAD PUSH3 0x1509 SWAP2 SWAP1 PUSH3 0x217E JUMP JUMPDEST PUSH3 0x1515 SWAP2 SWAP1 PUSH3 0x23B1 JUMP JUMPDEST SWAP2 POP POP JUMPDEST SWAP2 SWAP1 POP JUMP JUMPDEST PUSH1 0x0 PUSH20 0xFFFFFFFFFFFFFFFFFFFFFFFFFFFFFFFFFFFFFFFF AND DUP3 PUSH20 0xFFFFFFFFFFFFFFFFFFFFFFFFFFFFFFFFFFFFFFFF AND SUB PUSH3 0x1590 JUMPI PUSH1 0x40 MLOAD PUSH32 0x8C379A000000000000000000000000000000000000000000000000000000000 DUP2 MSTORE PUSH1 0x4 ADD PUSH3 0x1587 SWAP1 PUSH3 0x286B JUMP JUMPDEST PUSH1 0x40 MLOAD DUP1 SWAP2 SUB SWAP1 REVERT JUMPDEST DUP1 PUSH1 0x0 DUP1 DUP3 DUP3 SLOAD PUSH3 0x15A3 SWAP2 SWAP1 PUSH3 0x23E9 JUMP JUMPDEST SWAP3 POP POP DUP2 SWAP1 SSTORE POP DUP1 PUSH1 0x3 PUSH1 0x0 DUP5 PUSH20 0xFFFFFFFFFFFFFFFFFFFFFFFFFFFFFFFFFFFFFFFF AND PUSH20 0xFFFFFFFFFFFFFFFFFFFFFFFFFFFFFFFFFFFFFFFF AND DUP2 MSTORE PUSH1 0x20 ADD SWAP1 DUP2 MSTORE PUSH1 0x20 ADD PUSH1 0x0 KECCAK256 PUSH1 0x0 DUP3 DUP3 SLOAD PUSH3 0x15FB SWAP2 SWAP1 PUSH3 0x23E9 JUMP JUMPDEST SWAP3 POP POP DUP2 SWAP1 SSTORE POP DUP2 PUSH20 0xFFFFFFFFFFFFFFFFFFFFFFFFFFFFFFFFFFFFFFFF AND PUSH1 0x0 PUSH20 0xFFFFFFFFFFFFFFFFFFFFFFFFFFFFFFFFFFFFFFFF AND PUSH32 0xDDF252AD1BE2C89B69C2B068FC378DAA952BA7F163C4A11628F55A4DF523B3EF DUP4 PUSH1 0x40 MLOAD PUSH3 0x1662 SWAP2 SWAP1 PUSH3 0x1DCC JUMP JUMPDEST PUSH1 0x40 MLOAD DUP1 SWAP2 SUB SWAP1 LOG3 POP POP JUMP JUMPDEST PUSH1 0x0 DUP1 PUSH20 0xFFFFFFFFFFFFFFFFFFFFFFFFFFFFFFFFFFFFFFFF AND DUP4 PUSH20 0xFFFFFFFFFFFFFFFFFFFFFFFFFFFFFFFFFFFFFFFF AND SUB PUSH3 0x16E1 JUMPI PUSH1 0x40 MLOAD PUSH32 0x8C379A000000000000000000000000000000000000000000000000000000000 DUP2 MSTORE PUSH1 0x4 ADD PUSH3 0x16D8 SWAP1 PUSH3 0x28DD JUMP JUMPDEST PUSH1 0x40 MLOAD DUP1 SWAP2 SUB SWAP1 REVERT JUMPDEST PUSH1 0x0 PUSH1 0x3 PUSH1 0x0 DUP7 PUSH20 0xFFFFFFFFFFFFFFFFFFFFFFFFFFFFFFFFFFFFFFFF AND PUSH20 0xFFFFFFFFFFFFFFFFFFFFFFFFFFFFFFFFFFFFFFFF AND DUP2 MSTORE PUSH1 0x20 ADD SWAP1 DUP2 MSTORE PUSH1 0x20 ADD PUSH1 0x0 KECCAK256 SLOAD SWAP1 POP DUP3 DUP2 GT PUSH3 0x176A JUMPI PUSH1 0x40 MLOAD PUSH32 0x8C379A000000000000000000000000000000000000000000000000000000000 DUP2 MSTORE PUSH1 0x4 ADD PUSH3 0x1761 SWAP1 PUSH3 0x294F JUMP JUMPDEST PUSH1 0x40 MLOAD DUP1 SWAP2 SUB SWAP1 REVERT JUMPDEST DUP3 DUP2 PUSH3 0x1778 SWAP2 SWAP1 PUSH3 0x20FA JUMP JUMPDEST PUSH1 0x3 PUSH1 0x0 DUP8 PUSH20 0xFFFFFFFFFFFFFFFFFFFFFFFFFFFFFFFFFFFFFFFF AND PUSH20 0xFFFFFFFFFFFFFFFFFFFFFFFFFFFFFFFFFFFFFFFF AND DUP2 MSTORE PUSH1 0x20 ADD SWAP1 DUP2 MSTORE PUSH1 0x20 ADD PUSH1 0x0 KECCAK256 DUP2 SWAP1 SSTORE POP DUP3 PUSH1 0x3 PUSH1 0x0 DUP7 PUSH20 0xFFFFFFFFFFFFFFFFFFFFFFFFFFFFFFFFFFFFFFFF AND PUSH20 0xFFFFFFFFFFFFFFFFFFFFFFFFFFFFFFFFFFFFFFFF AND DUP2 MSTORE PUSH1 0x20 ADD SWAP1 DUP2 MSTORE PUSH1 0x20 ADD PUSH1 0x0 KECCAK256 PUSH1 0x0 DUP3 DUP3 SLOAD PUSH3 0x180C SWAP2 SWAP1 PUSH3 0x23E9 JUMP JUMPDEST SWAP3 POP POP DUP2 SWAP1 SSTORE POP DUP4 PUSH20 0xFFFFFFFFFFFFFFFFFFFFFFFFFFFFFFFFFFFFFFFF AND DUP6 PUSH20 0xFFFFFFFFFFFFFFFFFFFFFFFFFFFFFFFFFFFFFFFF AND PUSH32 0xDDF252AD1BE2C89B69C2B068FC378DAA952BA7F163C4A11628F55A4DF523B3EF DUP6 PUSH1 0x40 MLOAD PUSH3 0x1872 SWAP2 SWAP1 PUSH3 0x1DCC JUMP JUMPDEST PUSH1 0x40 MLOAD DUP1 SWAP2 SUB SWAP1 LOG3 PUSH1 0x1 SWAP2 POP POP SWAP4 SWAP3 POP POP POP JUMP JUMPDEST PUSH1 0x0 DUP1 PUSH1 0x7 PUSH1 0x0 SWAP1 SLOAD SWAP1 PUSH2 0x100 EXP SWAP1 DIV PUSH20 0xFFFFFFFFFFFFFFFFFFFFFFFFFFFFFFFFFFFFFFFF AND PUSH20 0xFFFFFFFFFFFFFFFFFFFFFFFFFFFFFFFFFFFFFFFF AND PUSH4 0x98D5FDCA PUSH1 0x40 MLOAD DUP2 PUSH4 0xFFFFFFFF AND PUSH1 0xE0 SHL DUP2 MSTORE PUSH1 0x4 ADD PUSH1 0x20 PUSH1 0x40 MLOAD DUP1 DUP4 SUB DUP2 DUP7 GAS STATICCALL ISZERO DUP1 ISZERO PUSH3 0x18F7 JUMPI RETURNDATASIZE PUSH1 0x0 DUP1 RETURNDATACOPY RETURNDATASIZE PUSH1 0x0 REVERT JUMPDEST POP POP POP POP PUSH1 0x40 MLOAD RETURNDATASIZE PUSH1 0x1F NOT PUSH1 0x1F DUP3 ADD AND DUP3 ADD DUP1 PUSH1 0x40 MSTORE POP DUP2 ADD SWAP1 PUSH3 0x191D SWAP2 SWAP1 PUSH3 0x214C JUMP JUMPDEST CALLVALUE SELFBALANCE PUSH3 0x192B SWAP2 SWAP1 PUSH3 0x20FA JUMP JUMPDEST PUSH3 0x1937 SWAP2 SWAP1 PUSH3 0x217E JUMP JUMPDEST SWAP1 POP PUSH1 0x0 DUP1 SLOAD SWAP1 POP PUSH1 0x0 DUP2 DUP4 PUSH3 0x194F SWAP2 SWAP1 PUSH3 0x2971 JUMP JUMPDEST SWAP1 POP DUP1 SWAP4 POP POP POP POP SWAP1 JUMP JUMPDEST PUSH1 0x0 PUSH3 0x19FB PUSH1 0x5 PUSH1 0x0 SWAP1 SLOAD SWAP1 PUSH2 0x100 EXP SWAP1 DIV PUSH20 0xFFFFFFFFFFFFFFFFFFFFFFFFFFFFFFFFFFFFFFFF AND PUSH20 0xFFFFFFFFFFFFFFFFFFFFFFFFFFFFFFFFFFFFFFFF AND PUSH4 0x18160DDD PUSH1 0x40 MLOAD DUP2 PUSH4 0xFFFFFFFF AND PUSH1 0xE0 SHL DUP2 MSTORE PUSH1 0x4 ADD PUSH1 0x20 PUSH1 0x40 MLOAD DUP1 DUP4 SUB DUP2 DUP7 GAS STATICCALL ISZERO DUP1 ISZERO PUSH3 0x19CE JUMPI RETURNDATASIZE PUSH1 0x0 DUP1 RETURNDATACOPY RETURNDATASIZE PUSH1 0x0 REVERT JUMPDEST POP POP POP POP PUSH1 0x40 MLOAD RETURNDATASIZE PUSH1 0x1F NOT PUSH1 0x1F DUP3 ADD AND DUP3 ADD DUP1 PUSH1 0x40 MSTORE POP DUP2 ADD SWAP1 PUSH3 0x19F4 SWAP2 SWAP1 PUSH3 0x214C JUMP JUMPDEST DUP4 PUSH3 0x1B7F JUMP JUMPDEST SWAP1 POP SWAP2 SWAP1 POP JUMP JUMPDEST PUSH1 0x0 PUSH8 0xDE0B6B3A7640000 DUP3 DUP5 PUSH3 0x1A1B SWAP2 SWAP1 PUSH3 0x217E JUMP JUMPDEST PUSH3 0x1A27 SWAP2 SWAP1 PUSH3 0x23B1 JUMP JUMPDEST SWAP1 POP SWAP3 SWAP2 POP POP JUMP JUMPDEST PUSH1 0x0 PUSH20 0xFFFFFFFFFFFFFFFFFFFFFFFFFFFFFFFFFFFFFFFF AND DUP3 PUSH20 0xFFFFFFFFFFFFFFFFFFFFFFFFFFFFFFFFFFFFFFFF AND SUB PUSH3 0x1AA1 JUMPI PUSH1 0x40 MLOAD PUSH32 0x8C379A000000000000000000000000000000000000000000000000000000000 DUP2 MSTORE PUSH1 0x4 ADD PUSH3 0x1A98 SWAP1 PUSH3 0x2A5F JUMP JUMPDEST PUSH1 0x40 MLOAD DUP1 SWAP2 SUB SWAP1 REVERT JUMPDEST DUP1 PUSH1 0x0 DUP1 DUP3 DUP3 SLOAD PUSH3 0x1AB4 SWAP2 SWAP1 PUSH3 0x20FA JUMP JUMPDEST SWAP3 POP POP DUP2 SWAP1 SSTORE POP DUP1 PUSH1 0x3 PUSH1 0x0 DUP5 PUSH20 0xFFFFFFFFFFFFFFFFFFFFFFFFFFFFFFFFFFFFFFFF AND PUSH20 0xFFFFFFFFFFFFFFFFFFFFFFFFFFFFFFFFFFFFFFFF AND DUP2 MSTORE PUSH1 0x20 ADD SWAP1 DUP2 MSTORE PUSH1 0x20 ADD PUSH1 0x0 KECCAK256 PUSH1 0x0 DUP3 DUP3 SLOAD PUSH3 0x1B0C SWAP2 SWAP1 PUSH3 0x20FA JUMP JUMPDEST SWAP3 POP POP DUP2 SWAP1 SSTORE POP DUP2 PUSH20 0xFFFFFFFFFFFFFFFFFFFFFFFFFFFFFFFFFFFFFFFF AND PUSH1 0x0 PUSH20 0xFFFFFFFFFFFFFFFFFFFFFFFFFFFFFFFFFFFFFFFF AND PUSH32 0xDDF252AD1BE2C89B69C2B068FC378DAA952BA7F163C4A11628F55A4DF523B3EF DUP4 PUSH1 0x40 MLOAD PUSH3 0x1B73 SWAP2 SWAP1 PUSH3 0x1DCC JUMP JUMPDEST PUSH1 0x40 MLOAD DUP1 SWAP2 SUB SWAP1 LOG3 POP POP JUMP JUMPDEST PUSH1 0x0 DUP1 DUP4 SUB PUSH3 0x1B93 JUMPI PUSH1 0x0 SWAP1 POP PUSH3 0x1BB9 JUMP JUMPDEST DUP2 PUSH8 0xDE0B6B3A7640000 DUP5 PUSH3 0x1BAA SWAP2 SWAP1 PUSH3 0x217E JUMP JUMPDEST PUSH3 0x1BB6 SWAP2 SWAP1 PUSH3 0x23B1 JUMP JUMPDEST SWAP1 POP JUMPDEST SWAP3 SWAP2 POP POP JUMP JUMPDEST PUSH2 0x1AA6 DUP1 PUSH3 0x2A82 DUP4 CODECOPY ADD SWAP1 JUMP JUMPDEST PUSH1 0x0 DUP2 MLOAD SWAP1 POP SWAP2 SWAP1 POP JUMP JUMPDEST PUSH1 0x0 DUP3 DUP3 MSTORE PUSH1 0x20 DUP3 ADD SWAP1 POP SWAP3 SWAP2 POP POP JUMP JUMPDEST PUSH1 0x0 JUMPDEST DUP4 DUP2 LT ISZERO PUSH3 0x1C09 JUMPI DUP1 DUP3 ADD MLOAD DUP2 DUP5 ADD MSTORE PUSH1 0x20 DUP2 ADD SWAP1 POP PUSH3 0x1BEC JUMP JUMPDEST DUP4 DUP2 GT ISZERO PUSH3 0x1C19 JUMPI PUSH1 0x0 DUP5 DUP5 ADD MSTORE JUMPDEST POP POP POP POP JUMP JUMPDEST PUSH1 0x0 PUSH1 0x1F NOT PUSH1 0x1F DUP4 ADD AND SWAP1 POP SWAP2 SWAP1 POP JUMP JUMPDEST PUSH1 0x0 PUSH3 0x1C3D DUP3 PUSH3 0x1BCD JUMP JUMPDEST PUSH3 0x1C49 DUP2 DUP6 PUSH3 0x1BD8 JUMP JUMPDEST SWAP4 POP PUSH3 0x1C5B DUP2 DUP6 PUSH1 0x20 DUP7 ADD PUSH3 0x1BE9 JUMP JUMPDEST PUSH3 0x1C66 DUP2 PUSH3 0x1C1F JUMP JUMPDEST DUP5 ADD SWAP2 POP POP SWAP3 SWAP2 POP POP JUMP JUMPDEST PUSH1 0x0 PUSH1 0x20 DUP3 ADD SWAP1 POP DUP2 DUP2 SUB PUSH1 0x0 DUP4 ADD MSTORE PUSH3 0x1C8D DUP2 DUP5 PUSH3 0x1C30 JUMP JUMPDEST SWAP1 POP SWAP3 SWAP2 POP POP JUMP JUMPDEST PUSH1 0x0 DUP1 REVERT JUMPDEST PUSH1 0x0 PUSH20 0xFFFFFFFFFFFFFFFFFFFFFFFFFFFFFFFFFFFFFFFF DUP3 AND SWAP1 POP SWAP2 SWAP1 POP JUMP JUMPDEST PUSH1 0x0 PUSH3 0x1CC7 DUP3 PUSH3 0x1C9A JUMP JUMPDEST SWAP1 POP SWAP2 SWAP1 POP JUMP JUMPDEST PUSH3 0x1CD9 DUP2 PUSH3 0x1CBA JUMP JUMPDEST DUP2 EQ PUSH3 0x1CE5 JUMPI PUSH1 0x0 DUP1 REVERT JUMPDEST POP JUMP JUMPDEST PUSH1 0x0 DUP2 CALLDATALOAD SWAP1 POP PUSH3 0x1CF9 DUP2 PUSH3 0x1CCE JUMP JUMPDEST SWAP3 SWAP2 POP POP JUMP JUMPDEST PUSH1 0x0 DUP2 SWAP1 POP SWAP2 SWAP1 POP JUMP JUMPDEST PUSH3 0x1D14 DUP2 PUSH3 0x1CFF JUMP JUMPDEST DUP2 EQ PUSH3 0x1D20 JUMPI PUSH1 0x0 DUP1 REVERT JUMPDEST POP JUMP JUMPDEST PUSH1 0x0 DUP2 CALLDATALOAD SWAP1 POP PUSH3 0x1D34 DUP2 PUSH3 0x1D09 JUMP JUMPDEST SWAP3 SWAP2 POP POP JUMP JUMPDEST PUSH1 0x0 DUP1 PUSH1 0x40 DUP4 DUP6 SUB SLT ISZERO PUSH3 0x1D54 JUMPI PUSH3 0x1D53 PUSH3 0x1C95 JUMP JUMPDEST JUMPDEST PUSH1 0x0 PUSH3 0x1D64 DUP6 DUP3 DUP7 ADD PUSH3 0x1CE8 JUMP JUMPDEST SWAP3 POP POP PUSH1 0x20 PUSH3 0x1D77 DUP6 DUP3 DUP7 ADD PUSH3 0x1D23 JUMP JUMPDEST SWAP2 POP POP SWAP3 POP SWAP3 SWAP1 POP JUMP JUMPDEST PUSH1 0x0 DUP2 ISZERO ISZERO SWAP1 POP SWAP2 SWAP1 POP JUMP JUMPDEST PUSH3 0x1D98 DUP2 PUSH3 0x1D81 JUMP JUMPDEST DUP3 MSTORE POP POP JUMP JUMPDEST PUSH1 0x0 PUSH1 0x20 DUP3 ADD SWAP1 POP PUSH3 0x1DB5 PUSH1 0x0 DUP4 ADD DUP5 PUSH3 0x1D8D JUMP JUMPDEST SWAP3 SWAP2 POP POP JUMP JUMPDEST PUSH3 0x1DC6 DUP2 PUSH3 0x1CFF JUMP JUMPDEST DUP3 MSTORE POP POP JUMP JUMPDEST PUSH1 0x0 PUSH1 0x20 DUP3 ADD SWAP1 POP PUSH3 0x1DE3 PUSH1 0x0 DUP4 ADD DUP5 PUSH3 0x1DBB JUMP JUMPDEST SWAP3 SWAP2 POP POP JUMP JUMPDEST PUSH1 0x0 DUP1 PUSH1 0x0 PUSH1 0x60 DUP5 DUP7 SUB SLT ISZERO PUSH3 0x1E05 JUMPI PUSH3 0x1E04 PUSH3 0x1C95 JUMP JUMPDEST JUMPDEST PUSH1 0x0 PUSH3 0x1E15 DUP7 DUP3 DUP8 ADD PUSH3 0x1CE8 JUMP JUMPDEST SWAP4 POP POP PUSH1 0x20 PUSH3 0x1E28 DUP7 DUP3 DUP8 ADD PUSH3 0x1CE8 JUMP JUMPDEST SWAP3 POP POP PUSH1 0x40 PUSH3 0x1E3B DUP7 DUP3 DUP8 ADD PUSH3 0x1D23 JUMP JUMPDEST SWAP2 POP POP SWAP3 POP SWAP3 POP SWAP3 JUMP JUMPDEST PUSH1 0x0 PUSH1 0xFF DUP3 AND SWAP1 POP SWAP2 SWAP1 POP JUMP JUMPDEST PUSH3 0x1E5D DUP2 PUSH3 0x1E45 JUMP JUMPDEST DUP3 MSTORE POP POP JUMP JUMPDEST PUSH1 0x0 PUSH1 0x20 DUP3 ADD SWAP1 POP PUSH3 0x1E7A PUSH1 0x0 DUP4 ADD DUP5 PUSH3 0x1E52 JUMP JUMPDEST SWAP3 SWAP2 POP POP JUMP JUMPDEST PUSH1 0x0 PUSH1 0x20 DUP3 DUP5 SUB SLT ISZERO PUSH3 0x1E99 JUMPI PUSH3 0x1E98 PUSH3 0x1C95 JUMP JUMPDEST JUMPDEST PUSH1 0x0 PUSH3 0x1EA9 DUP5 DUP3 DUP6 ADD PUSH3 0x1D23 JUMP JUMPDEST SWAP2 POP POP SWAP3 SWAP2 POP POP JUMP JUMPDEST PUSH1 0x0 PUSH1 0x20 DUP3 DUP5 SUB SLT ISZERO PUSH3 0x1ECB JUMPI PUSH3 0x1ECA PUSH3 0x1C95 JUMP JUMPDEST JUMPDEST PUSH1 0x0 PUSH3 0x1EDB DUP5 DUP3 DUP6 ADD PUSH3 0x1CE8 JUMP JUMPDEST SWAP2 POP POP SWAP3 SWAP2 POP POP JUMP JUMPDEST PUSH1 0x0 DUP2 SWAP1 POP SWAP2 SWAP1 POP JUMP JUMPDEST PUSH1 0x0 PUSH3 0x1F0F PUSH3 0x1F09 PUSH3 0x1F03 DUP5 PUSH3 0x1C9A JUMP JUMPDEST PUSH3 0x1EE4 JUMP JUMPDEST PUSH3 0x1C9A JUMP JUMPDEST SWAP1 POP SWAP2 SWAP1 POP JUMP JUMPDEST PUSH1 0x0 PUSH3 0x1F23 DUP3 PUSH3 0x1EEE JUMP JUMPDEST SWAP1 POP SWAP2 SWAP1 POP JUMP JUMPDEST PUSH1 0x0 PUSH3 0x1F37 DUP3 PUSH3 0x1F16 JUMP JUMPDEST SWAP1 POP SWAP2 SWAP1 POP JUMP JUMPDEST PUSH3 0x1F49 DUP2 PUSH3 0x1F2A JUMP JUMPDEST DUP3 MSTORE POP POP JUMP JUMPDEST PUSH1 0x0 PUSH1 0x20 DUP3 ADD SWAP1 POP PUSH3 0x1F66 PUSH1 0x0 DUP4 ADD DUP5 PUSH3 0x1F3E JUMP JUMPDEST SWAP3 SWAP2 POP POP JUMP JUMPDEST PUSH1 0x0 PUSH3 0x1F79 DUP3 PUSH3 0x1F16 JUMP JUMPDEST SWAP1 POP SWAP2 SWAP1 POP JUMP JUMPDEST PUSH3 0x1F8B DUP2 PUSH3 0x1F6C JUMP JUMPDEST DUP3 MSTORE POP POP JUMP JUMPDEST PUSH1 0x0 PUSH1 0x20 DUP3 ADD SWAP1 POP PUSH3 0x1FA8 PUSH1 0x0 DUP4 ADD DUP5 PUSH3 0x1F80 JUMP JUMPDEST SWAP3 SWAP2 POP POP JUMP JUMPDEST PUSH1 0x0 DUP1 PUSH1 0x40 DUP4 DUP6 SUB SLT ISZERO PUSH3 0x1FC8 JUMPI PUSH3 0x1FC7 PUSH3 0x1C95 JUMP JUMPDEST JUMPDEST PUSH1 0x0 PUSH3 0x1FD8 DUP6 DUP3 DUP7 ADD PUSH3 0x1CE8 JUMP JUMPDEST SWAP3 POP POP PUSH1 0x20 PUSH3 0x1FEB DUP6 DUP3 DUP7 ADD PUSH3 0x1CE8 JUMP JUMPDEST SWAP2 POP POP SWAP3 POP SWAP3 SWAP1 POP JUMP JUMPDEST PUSH32 0x4E487B7100000000000000000000000000000000000000000000000000000000 PUSH1 0x0 MSTORE PUSH1 0x22 PUSH1 0x4 MSTORE PUSH1 0x24 PUSH1 0x0 REVERT JUMPDEST PUSH1 0x0 PUSH1 0x2 DUP3 DIV SWAP1 POP PUSH1 0x1 DUP3 AND DUP1 PUSH3 0x203D JUMPI PUSH1 0x7F DUP3 AND SWAP2 POP JUMPDEST PUSH1 0x20 DUP3 LT DUP2 SUB PUSH3 0x2053 JUMPI PUSH3 0x2052 PUSH3 0x1FF5 JUMP JUMPDEST JUMPDEST POP SWAP2 SWAP1 POP JUMP JUMPDEST PUSH32 0x617070726F766520746F207A65726F2061646472657373000000000000000000 PUSH1 0x0 DUP3 ADD MSTORE POP JUMP JUMPDEST PUSH1 0x0 PUSH3 0x2091 PUSH1 0x17 DUP4 PUSH3 0x1BD8 JUMP JUMPDEST SWAP2 POP PUSH3 0x209E DUP3 PUSH3 0x2059 JUMP JUMPDEST PUSH1 0x20 DUP3 ADD SWAP1 POP SWAP2 SWAP1 POP JUMP JUMPDEST PUSH1 0x0 PUSH1 0x20 DUP3 ADD SWAP1 POP DUP2 DUP2 SUB PUSH1 0x0 DUP4 ADD MSTORE PUSH3 0x20C4 DUP2 PUSH3 0x2082 JUMP JUMPDEST SWAP1 POP SWAP2 SWAP1 POP JUMP JUMPDEST PUSH32 0x4E487B7100000000000000000000000000000000000000000000000000000000 PUSH1 0x0 MSTORE PUSH1 0x11 PUSH1 0x4 MSTORE PUSH1 0x24 PUSH1 0x0 REVERT JUMPDEST PUSH1 0x0 PUSH3 0x2107 DUP3 PUSH3 0x1CFF JUMP JUMPDEST SWAP2 POP PUSH3 0x2114 DUP4 PUSH3 0x1CFF JUMP JUMPDEST SWAP3 POP DUP3 DUP3 LT ISZERO PUSH3 0x212A JUMPI PUSH3 0x2129 PUSH3 0x20CB JUMP JUMPDEST JUMPDEST DUP3 DUP3 SUB SWAP1 POP SWAP3 SWAP2 POP POP JUMP JUMPDEST PUSH1 0x0 DUP2 MLOAD SWAP1 POP PUSH3 0x2146 DUP2 PUSH3 0x1D09 JUMP JUMPDEST SWAP3 SWAP2 POP POP JUMP JUMPDEST PUSH1 0x0 PUSH1 0x20 DUP3 DUP5 SUB SLT ISZERO PUSH3 0x2165 JUMPI PUSH3 0x2164 PUSH3 0x1C95 JUMP JUMPDEST JUMPDEST PUSH1 0x0 PUSH3 0x2175 DUP5 DUP3 DUP6 ADD PUSH3 0x2135 JUMP JUMPDEST SWAP2 POP POP SWAP3 SWAP2 POP POP JUMP JUMPDEST PUSH1 0x0 PUSH3 0x218B DUP3 PUSH3 0x1CFF JUMP JUMPDEST SWAP2 POP PUSH3 0x2198 DUP4 PUSH3 0x1CFF JUMP JUMPDEST SWAP3 POP DUP2 PUSH32 0xFFFFFFFFFFFFFFFFFFFFFFFFFFFFFFFFFFFFFFFFFFFFFFFFFFFFFFFFFFFFFFFF DIV DUP4 GT DUP3 ISZERO ISZERO AND ISZERO PUSH3 0x21D4 JUMPI PUSH3 0x21D3 PUSH3 0x20CB JUMP JUMPDEST JUMPDEST DUP3 DUP3 MUL SWAP1 POP SWAP3 SWAP2 POP POP JUMP JUMPDEST PUSH32 0x616D6F756E74206578636565647320616C6C6F77616E63650000000000000000 PUSH1 0x0 DUP3 ADD MSTORE POP JUMP JUMPDEST PUSH1 0x0 PUSH3 0x2217 PUSH1 0x18 DUP4 PUSH3 0x1BD8 JUMP JUMPDEST SWAP2 POP PUSH3 0x2224 DUP3 PUSH3 0x21DF JUMP JUMPDEST PUSH1 0x20 DUP3 ADD SWAP1 POP SWAP2 SWAP1 POP JUMP JUMPDEST PUSH1 0x0 PUSH1 0x20 DUP3 ADD SWAP1 POP DUP2 DUP2 SUB PUSH1 0x0 DUP4 ADD MSTORE PUSH3 0x224A DUP2 PUSH3 0x2208 JUMP JUMPDEST SWAP1 POP SWAP2 SWAP1 POP JUMP JUMPDEST PUSH1 0x0 DUP2 SWAP1 POP SWAP2 SWAP1 POP JUMP JUMPDEST PUSH1 0x0 PUSH3 0x2268 DUP3 PUSH3 0x2251 JUMP JUMPDEST SWAP2 POP PUSH3 0x2275 DUP4 PUSH3 0x2251 JUMP JUMPDEST SWAP3 POP DUP3 PUSH32 0x7FFFFFFFFFFFFFFFFFFFFFFFFFFFFFFFFFFFFFFFFFFFFFFFFFFFFFFFFFFFFFFF DIV DUP3 GT PUSH1 0x0 DUP5 SGT PUSH1 0x0 DUP5 SGT AND AND ISZERO PUSH3 0x22B7 JUMPI PUSH3 0x22B6 PUSH3 0x20CB JUMP JUMPDEST JUMPDEST DUP2 PUSH32 0x8000000000000000000000000000000000000000000000000000000000000000 SDIV DUP4 SLT PUSH1 0x0 DUP5 SLT PUSH1 0x0 DUP5 SGT AND AND ISZERO PUSH3 0x22F7 JUMPI PUSH3 0x22F6 PUSH3 0x20CB JUMP JUMPDEST JUMPDEST DUP3 PUSH32 0x8000000000000000000000000000000000000000000000000000000000000000 SDIV DUP3 SLT PUSH1 0x0 DUP5 SGT PUSH1 0x0 DUP5 SLT AND AND ISZERO PUSH3 0x2337 JUMPI PUSH3 0x2336 PUSH3 0x20CB JUMP JUMPDEST JUMPDEST DUP3 PUSH32 0x7FFFFFFFFFFFFFFFFFFFFFFFFFFFFFFFFFFFFFFFFFFFFFFFFFFFFFFFFFFFFFFF SDIV DUP3 SLT PUSH1 0x0 DUP5 SLT PUSH1 0x0 DUP5 SLT AND AND ISZERO PUSH3 0x2377 JUMPI PUSH3 0x2376 PUSH3 0x20CB JUMP JUMPDEST JUMPDEST DUP3 DUP3 MUL SWAP1 POP SWAP3 SWAP2 POP POP JUMP JUMPDEST PUSH32 0x4E487B7100000000000000000000000000000000000000000000000000000000 PUSH1 0x0 MSTORE PUSH1 0x12 PUSH1 0x4 MSTORE PUSH1 0x24 PUSH1 0x0 REVERT JUMPDEST PUSH1 0x0 PUSH3 0x23BE DUP3 PUSH3 0x1CFF JUMP JUMPDEST SWAP2 POP PUSH3 0x23CB DUP4 PUSH3 0x1CFF JUMP JUMPDEST SWAP3 POP DUP3 PUSH3 0x23DE JUMPI PUSH3 0x23DD PUSH3 0x2382 JUMP JUMPDEST JUMPDEST DUP3 DUP3 DIV SWAP1 POP SWAP3 SWAP2 POP POP JUMP JUMPDEST PUSH1 0x0 PUSH3 0x23F6 DUP3 PUSH3 0x1CFF JUMP JUMPDEST SWAP2 POP PUSH3 0x2403 DUP4 PUSH3 0x1CFF JUMP JUMPDEST SWAP3 POP DUP3 PUSH32 0xFFFFFFFFFFFFFFFFFFFFFFFFFFFFFFFFFFFFFFFFFFFFFFFFFFFFFFFFFFFFFFFF SUB DUP3 GT ISZERO PUSH3 0x243B JUMPI PUSH3 0x243A PUSH3 0x20CB JUMP JUMPDEST JUMPDEST DUP3 DUP3 ADD SWAP1 POP SWAP3 SWAP2 POP POP JUMP JUMPDEST PUSH32 0x5354433A20496E697469616C20636F6C6C61746572616C20726174696F206E6F PUSH1 0x0 DUP3 ADD MSTORE PUSH32 0x74206D65742C206D696E696D756D206973200000000000000000000000000000 PUSH1 0x20 DUP3 ADD MSTORE POP JUMP JUMPDEST PUSH1 0x0 PUSH3 0x24A4 PUSH1 0x32 DUP4 PUSH3 0x1BD8 JUMP JUMPDEST SWAP2 POP PUSH3 0x24B1 DUP3 PUSH3 0x2446 JUMP JUMPDEST PUSH1 0x40 DUP3 ADD SWAP1 POP SWAP2 SWAP1 POP JUMP JUMPDEST PUSH1 0x0 PUSH1 0x40 DUP3 ADD SWAP1 POP DUP2 DUP2 SUB PUSH1 0x0 DUP4 ADD MSTORE PUSH3 0x24D7 DUP2 PUSH3 0x2495 JUMP JUMPDEST SWAP1 POP PUSH3 0x24E8 PUSH1 0x20 DUP4 ADD DUP5 PUSH3 0x1DBB JUMP JUMPDEST SWAP3 SWAP2 POP POP JUMP JUMPDEST PUSH3 0x24F9 DUP2 PUSH3 0x1CBA JUMP JUMPDEST DUP3 MSTORE POP POP JUMP JUMPDEST PUSH1 0x0 PUSH1 0x40 DUP3 ADD SWAP1 POP PUSH3 0x2516 PUSH1 0x0 DUP4 ADD DUP6 PUSH3 0x24EE JUMP JUMPDEST PUSH3 0x2525 PUSH1 0x20 DUP4 ADD DUP5 PUSH3 0x1DBB JUMP JUMPDEST SWAP4 SWAP3 POP POP POP JUMP JUMPDEST PUSH32 0x63616E6E6F74206275726E207768696C6520696E206465666963697400000000 PUSH1 0x0 DUP3 ADD MSTORE POP JUMP JUMPDEST PUSH1 0x0 PUSH3 0x2564 PUSH1 0x1C DUP4 PUSH3 0x1BD8 JUMP JUMPDEST SWAP2 POP PUSH3 0x2571 DUP3 PUSH3 0x252C JUMP JUMPDEST PUSH1 0x20 DUP3 ADD SWAP1 POP SWAP2 SWAP1 POP JUMP JUMPDEST PUSH1 0x0 PUSH1 0x20 DUP3 ADD SWAP1 POP DUP2 DUP2 SUB PUSH1 0x0 DUP4 ADD MSTORE PUSH3 0x2597 DUP2 PUSH3 0x2555 JUMP JUMPDEST SWAP1 POP SWAP2 SWAP1 POP JUMP JUMPDEST PUSH1 0x0 DUP2 SWAP1 POP SWAP3 SWAP2 POP POP JUMP JUMPDEST POP JUMP JUMPDEST PUSH1 0x0 PUSH3 0x25BB PUSH1 0x0 DUP4 PUSH3 0x259E JUMP JUMPDEST SWAP2 POP PUSH3 0x25C8 DUP3 PUSH3 0x25A9 JUMP JUMPDEST PUSH1 0x0 DUP3 ADD SWAP1 POP SWAP2 SWAP1 POP JUMP JUMPDEST PUSH1 0x0 PUSH3 0x25E0 DUP3 PUSH3 0x25AC JUMP JUMPDEST SWAP2 POP DUP2 SWAP1 POP SWAP2 SWAP1 POP JUMP JUMPDEST PUSH32 0x4275726E20726566756E64207472616E73616374696F6E206661696C65640000 PUSH1 0x0 DUP3 ADD MSTORE POP JUMP JUMPDEST PUSH1 0x0 PUSH3 0x2622 PUSH1 0x1E DUP4 PUSH3 0x1BD8 JUMP JUMPDEST SWAP2 POP PUSH3 0x262F DUP3 PUSH3 0x25EA JUMP JUMPDEST PUSH1 0x20 DUP3 ADD SWAP1 POP SWAP2 SWAP1 POP JUMP JUMPDEST PUSH1 0x0 PUSH1 0x20 DUP3 ADD SWAP1 POP DUP2 DUP2 SUB PUSH1 0x0 DUP4 ADD MSTORE PUSH3 0x2655 DUP2 PUSH3 0x2613 JUMP JUMPDEST SWAP1 POP SWAP2 SWAP1 POP JUMP JUMPDEST PUSH1 0x0 PUSH1 0x20 DUP3 ADD SWAP1 POP PUSH3 0x2673 PUSH1 0x0 DUP4 ADD DUP5 PUSH3 0x24EE JUMP JUMPDEST SWAP3 SWAP2 POP POP JUMP JUMPDEST PUSH32 0x53656E6465722068617320696E73756666696369656E74204450432066756E64 PUSH1 0x0 DUP3 ADD MSTORE PUSH32 0x7300000000000000000000000000000000000000000000000000000000000000 PUSH1 0x20 DUP3 ADD MSTORE POP JUMP JUMPDEST PUSH1 0x0 PUSH3 0x26D7 PUSH1 0x21 DUP4 PUSH3 0x1BD8 JUMP JUMPDEST SWAP2 POP PUSH3 0x26E4 DUP3 PUSH3 0x2679 JUMP JUMPDEST PUSH1 0x40 DUP3 ADD SWAP1 POP SWAP2 SWAP1 POP JUMP JUMPDEST PUSH1 0x0 PUSH1 0x20 DUP3 ADD SWAP1 POP DUP2 DUP2 SUB PUSH1 0x0 DUP4 ADD MSTORE PUSH3 0x270A DUP2 PUSH3 0x26C8 JUMP JUMPDEST SWAP1 POP SWAP2 SWAP1 POP JUMP JUMPDEST PUSH32 0x4E6F2066756E647320746F207769746864726177000000000000000000000000 PUSH1 0x0 DUP3 ADD MSTORE POP JUMP JUMPDEST PUSH1 0x0 PUSH3 0x2749 PUSH1 0x14 DUP4 PUSH3 0x1BD8 JUMP JUMPDEST SWAP2 POP PUSH3 0x2756 DUP3 PUSH3 0x2711 JUMP JUMPDEST PUSH1 0x20 DUP3 ADD SWAP1 POP SWAP2 SWAP1 POP JUMP JUMPDEST PUSH1 0x0 PUSH1 0x20 DUP3 ADD SWAP1 POP DUP2 DUP2 SUB PUSH1 0x0 DUP4 ADD MSTORE PUSH3 0x277C DUP2 PUSH3 0x273A JUMP JUMPDEST SWAP1 POP SWAP2 SWAP1 POP JUMP JUMPDEST PUSH32 0x576974686472617720726566756E64207472616E73616374696F6E206661696C PUSH1 0x0 DUP3 ADD MSTORE PUSH32 0x6564000000000000000000000000000000000000000000000000000000000000 PUSH1 0x20 DUP3 ADD MSTORE POP JUMP JUMPDEST PUSH1 0x0 PUSH3 0x27E1 PUSH1 0x22 DUP4 PUSH3 0x1BD8 JUMP JUMPDEST SWAP2 POP PUSH3 0x27EE DUP3 PUSH3 0x2783 JUMP JUMPDEST PUSH1 0x40 DUP3 ADD SWAP1 POP SWAP2 SWAP1 POP JUMP JUMPDEST PUSH1 0x0 PUSH1 0x20 DUP3 ADD SWAP1 POP DUP2 DUP2 SUB PUSH1 0x0 DUP4 ADD MSTORE PUSH3 0x2814 DUP2 PUSH3 0x27D2 JUMP JUMPDEST SWAP1 POP SWAP2 SWAP1 POP JUMP JUMPDEST PUSH32 0x6D696E7420746F207A65726F2061646472657373000000000000000000000000 PUSH1 0x0 DUP3 ADD MSTORE POP JUMP JUMPDEST PUSH1 0x0 PUSH3 0x2853 PUSH1 0x14 DUP4 PUSH3 0x1BD8 JUMP JUMPDEST SWAP2 POP PUSH3 0x2860 DUP3 PUSH3 0x281B JUMP JUMPDEST PUSH1 0x20 DUP3 ADD SWAP1 POP SWAP2 SWAP1 POP JUMP JUMPDEST PUSH1 0x0 PUSH1 0x20 DUP3 ADD SWAP1 POP DUP2 DUP2 SUB PUSH1 0x0 DUP4 ADD MSTORE PUSH3 0x2886 DUP2 PUSH3 0x2844 JUMP JUMPDEST SWAP1 POP SWAP2 SWAP1 POP JUMP JUMPDEST PUSH32 0x7472616E7366657220746F20746865207A65726F206164647265737300000000 PUSH1 0x0 DUP3 ADD MSTORE POP JUMP JUMPDEST PUSH1 0x0 PUSH3 0x28C5 PUSH1 0x1C DUP4 PUSH3 0x1BD8 JUMP JUMPDEST SWAP2 POP PUSH3 0x28D2 DUP3 PUSH3 0x288D JUMP JUMPDEST PUSH1 0x20 DUP3 ADD SWAP1 POP SWAP2 SWAP1 POP JUMP JUMPDEST PUSH1 0x0 PUSH1 0x20 DUP3 ADD SWAP1 POP DUP2 DUP2 SUB PUSH1 0x0 DUP4 ADD MSTORE PUSH3 0x28F8 DUP2 PUSH3 0x28B6 JUMP JUMPDEST SWAP1 POP SWAP2 SWAP1 POP JUMP JUMPDEST PUSH32 0x7472616E7366657220616D6F756E7420657863656564732062616C616E636500 PUSH1 0x0 DUP3 ADD MSTORE POP JUMP JUMPDEST PUSH1 0x0 PUSH3 0x2937 PUSH1 0x1F DUP4 PUSH3 0x1BD8 JUMP JUMPDEST SWAP2 POP PUSH3 0x2944 DUP3 PUSH3 0x28FF JUMP JUMPDEST PUSH1 0x20 DUP3 ADD SWAP1 POP SWAP2 SWAP1 POP JUMP JUMPDEST PUSH1 0x0 PUSH1 0x20 DUP3 ADD SWAP1 POP DUP2 DUP2 SUB PUSH1 0x0 DUP4 ADD MSTORE PUSH3 0x296A DUP2 PUSH3 0x2928 JUMP JUMPDEST SWAP1 POP SWAP2 SWAP1 POP JUMP JUMPDEST PUSH1 0x0 PUSH3 0x297E DUP3 PUSH3 0x2251 JUMP JUMPDEST SWAP2 POP PUSH3 0x298B DUP4 PUSH3 0x2251 JUMP JUMPDEST SWAP3 POP DUP3 PUSH32 0x8000000000000000000000000000000000000000000000000000000000000000 ADD DUP3 SLT PUSH1 0x0 DUP5 SLT ISZERO AND ISZERO PUSH3 0x29C9 JUMPI PUSH3 0x29C8 PUSH3 0x20CB JUMP JUMPDEST JUMPDEST DUP3 PUSH32 0x7FFFFFFFFFFFFFFFFFFFFFFFFFFFFFFFFFFFFFFFFFFFFFFFFFFFFFFFFFFFFFFF ADD DUP3 SGT PUSH1 0x0 DUP5 SLT AND ISZERO PUSH3 0x2A04 JUMPI PUSH3 0x2A03 PUSH3 0x20CB JUMP JUMPDEST JUMPDEST DUP3 DUP3 SUB SWAP1 POP SWAP3 SWAP2 POP POP JUMP JUMPDEST PUSH32 0x6275726E20746F207A65726F2061646472657373000000000000000000000000 PUSH1 0x0 DUP3 ADD MSTORE POP JUMP JUMPDEST PUSH1 0x0 PUSH3 0x2A47 PUSH1 0x14 DUP4 PUSH3 0x1BD8 JUMP JUMPDEST SWAP2 POP PUSH3 0x2A54 DUP3 PUSH3 0x2A0F JUMP JUMPDEST PUSH1 0x20 DUP3 ADD SWAP1 POP SWAP2 SWAP1 POP JUMP JUMPDEST PUSH1 0x0 PUSH1 0x20 DUP3 ADD SWAP1 POP DUP2 DUP2 SUB PUSH1 0x0 DUP4 ADD MSTORE PUSH3 0x2A7A DUP2 PUSH3 0x2A38 JUMP JUMPDEST SWAP1 POP SWAP2 SWAP1 POP JUMP INVALID PUSH1 0x80 PUSH1 0x40 MSTORE CALLVALUE DUP1 ISZERO PUSH3 0x11 JUMPI PUSH1 0x0 DUP1 REVERT JUMPDEST POP PUSH1 0x40 MLOAD DUP1 PUSH1 0x40 ADD PUSH1 0x40 MSTORE DUP1 PUSH1 0xD DUP2 MSTORE PUSH1 0x20 ADD PUSH32 0x4465706F7369746F72436F696E00000000000000000000000000000000000000 DUP2 MSTORE POP PUSH1 0x40 MLOAD DUP1 PUSH1 0x40 ADD PUSH1 0x40 MSTORE DUP1 PUSH1 0x3 DUP2 MSTORE PUSH1 0x20 ADD PUSH32 0x5354430000000000000000000000000000000000000000000000000000000000 DUP2 MSTORE POP DUP2 PUSH1 0x1 SWAP1 DUP1 MLOAD SWAP1 PUSH1 0x20 ADD SWAP1 PUSH3 0x96 SWAP3 SWAP2 SWAP1 PUSH3 0x264 JUMP JUMPDEST POP DUP1 PUSH1 0x2 SWAP1 DUP1 MLOAD SWAP1 PUSH1 0x20 ADD SWAP1 PUSH3 0xAF SWAP3 SWAP2 SWAP1 PUSH3 0x264 JUMP JUMPDEST POP PUSH3 0xCB CALLER PUSH9 0x56BC75E2D63100000 PUSH3 0x114 PUSH1 0x20 SHL PUSH1 0x20 SHR JUMP JUMPDEST POP POP CALLER PUSH1 0x5 PUSH1 0x0 PUSH2 0x100 EXP DUP2 SLOAD DUP2 PUSH20 0xFFFFFFFFFFFFFFFFFFFFFFFFFFFFFFFFFFFFFFFF MUL NOT AND SWAP1 DUP4 PUSH20 0xFFFFFFFFFFFFFFFFFFFFFFFFFFFFFFFFFFFFFFFF AND MUL OR SWAP1 SSTORE POP PUSH3 0x4BF JUMP JUMPDEST PUSH1 0x0 PUSH20 0xFFFFFFFFFFFFFFFFFFFFFFFFFFFFFFFFFFFFFFFF AND DUP3 PUSH20 0xFFFFFFFFFFFFFFFFFFFFFFFFFFFFFFFFFFFFFFFF AND SUB PUSH3 0x186 JUMPI PUSH1 0x40 MLOAD PUSH32 0x8C379A000000000000000000000000000000000000000000000000000000000 DUP2 MSTORE PUSH1 0x4 ADD PUSH3 0x17D SWAP1 PUSH3 0x375 JUMP JUMPDEST PUSH1 0x40 MLOAD DUP1 SWAP2 SUB SWAP1 REVERT JUMPDEST DUP1 PUSH1 0x0 DUP1 DUP3 DUP3 SLOAD PUSH3 0x199 SWAP2 SWAP1 PUSH3 0x3D0 JUMP JUMPDEST SWAP3 POP POP DUP2 SWAP1 SSTORE POP DUP1 PUSH1 0x3 PUSH1 0x0 DUP5 PUSH20 0xFFFFFFFFFFFFFFFFFFFFFFFFFFFFFFFFFFFFFFFF AND PUSH20 0xFFFFFFFFFFFFFFFFFFFFFFFFFFFFFFFFFFFFFFFF AND DUP2 MSTORE PUSH1 0x20 ADD SWAP1 DUP2 MSTORE PUSH1 0x20 ADD PUSH1 0x0 KECCAK256 PUSH1 0x0 DUP3 DUP3 SLOAD PUSH3 0x1F1 SWAP2 SWAP1 PUSH3 0x3D0 JUMP JUMPDEST SWAP3 POP POP DUP2 SWAP1 SSTORE POP DUP2 PUSH20 0xFFFFFFFFFFFFFFFFFFFFFFFFFFFFFFFFFFFFFFFF AND PUSH1 0x0 PUSH20 0xFFFFFFFFFFFFFFFFFFFFFFFFFFFFFFFFFFFFFFFF AND PUSH32 0xDDF252AD1BE2C89B69C2B068FC378DAA952BA7F163C4A11628F55A4DF523B3EF DUP4 PUSH1 0x40 MLOAD PUSH3 0x258 SWAP2 SWAP1 PUSH3 0x43E JUMP JUMPDEST PUSH1 0x40 MLOAD DUP1 SWAP2 SUB SWAP1 LOG3 POP POP JUMP JUMPDEST DUP3 DUP1 SLOAD PUSH3 0x272 SWAP1 PUSH3 0x48A JUMP JUMPDEST SWAP1 PUSH1 0x0 MSTORE PUSH1 0x20 PUSH1 0x0 KECCAK256 SWAP1 PUSH1 0x1F ADD PUSH1 0x20 SWAP1 DIV DUP2 ADD SWAP3 DUP3 PUSH3 0x296 JUMPI PUSH1 0x0 DUP6 SSTORE PUSH3 0x2E2 JUMP JUMPDEST DUP3 PUSH1 0x1F LT PUSH3 0x2B1 JUMPI DUP1 MLOAD PUSH1 0xFF NOT AND DUP4 DUP1 ADD OR DUP6 SSTORE PUSH3 0x2E2 JUMP JUMPDEST DUP3 DUP1 ADD PUSH1 0x1 ADD DUP6 SSTORE DUP3 ISZERO PUSH3 0x2E2 JUMPI SWAP2 DUP3 ADD JUMPDEST DUP3 DUP2 GT ISZERO PUSH3 0x2E1 JUMPI DUP3 MLOAD DUP3 SSTORE SWAP2 PUSH1 0x20 ADD SWAP2 SWAP1 PUSH1 0x1 ADD SWAP1 PUSH3 0x2C4 JUMP JUMPDEST JUMPDEST POP SWAP1 POP PUSH3 0x2F1 SWAP2 SWAP1 PUSH3 0x2F5 JUMP JUMPDEST POP SWAP1 JUMP JUMPDEST JUMPDEST DUP1 DUP3 GT ISZERO PUSH3 0x310 JUMPI PUSH1 0x0 DUP2 PUSH1 0x0 SWAP1 SSTORE POP PUSH1 0x1 ADD PUSH3 0x2F6 JUMP JUMPDEST POP SWAP1 JUMP JUMPDEST PUSH1 0x0 DUP3 DUP3 MSTORE PUSH1 0x20 DUP3 ADD SWAP1 POP SWAP3 SWAP2 POP POP JUMP JUMPDEST PUSH32 0x6D696E7420746F207A65726F2061646472657373000000000000000000000000 PUSH1 0x0 DUP3 ADD MSTORE POP JUMP JUMPDEST PUSH1 0x0 PUSH3 0x35D PUSH1 0x14 DUP4 PUSH3 0x314 JUMP JUMPDEST SWAP2 POP PUSH3 0x36A DUP3 PUSH3 0x325 JUMP JUMPDEST PUSH1 0x20 DUP3 ADD SWAP1 POP SWAP2 SWAP1 POP JUMP JUMPDEST PUSH1 0x0 PUSH1 0x20 DUP3 ADD SWAP1 POP DUP2 DUP2 SUB PUSH1 0x0 DUP4 ADD MSTORE PUSH3 0x390 DUP2 PUSH3 0x34E JUMP JUMPDEST SWAP1 POP SWAP2 SWAP1 POP JUMP JUMPDEST PUSH1 0x0 DUP2 SWAP1 POP SWAP2 SWAP1 POP JUMP JUMPDEST PUSH32 0x4E487B7100000000000000000000000000000000000000000000000000000000 PUSH1 0x0 MSTORE PUSH1 0x11 PUSH1 0x4 MSTORE PUSH1 0x24 PUSH1 0x0 REVERT JUMPDEST PUSH1 0x0 PUSH3 0x3DD DUP3 PUSH3 0x397 JUMP JUMPDEST SWAP2 POP PUSH3 0x3EA DUP4 PUSH3 0x397 JUMP JUMPDEST SWAP3 POP DUP3 PUSH32 0xFFFFFFFFFFFFFFFFFFFFFFFFFFFFFFFFFFFFFFFFFFFFFFFFFFFFFFFFFFFFFFFF SUB DUP3 GT ISZERO PUSH3 0x422 JUMPI PUSH3 0x421 PUSH3 0x3A1 JUMP JUMPDEST JUMPDEST DUP3 DUP3 ADD SWAP1 POP SWAP3 SWAP2 POP POP JUMP JUMPDEST PUSH3 0x438 DUP2 PUSH3 0x397 JUMP JUMPDEST DUP3 MSTORE POP POP JUMP JUMPDEST PUSH1 0x0 PUSH1 0x20 DUP3 ADD SWAP1 POP PUSH3 0x455 PUSH1 0x0 DUP4 ADD DUP5 PUSH3 0x42D JUMP JUMPDEST SWAP3 SWAP2 POP POP JUMP JUMPDEST PUSH32 0x4E487B7100000000000000000000000000000000000000000000000000000000 PUSH1 0x0 MSTORE PUSH1 0x22 PUSH1 0x4 MSTORE PUSH1 0x24 PUSH1 0x0 REVERT JUMPDEST PUSH1 0x0 PUSH1 0x2 DUP3 DIV SWAP1 POP PUSH1 0x1 DUP3 AND DUP1 PUSH3 0x4A3 JUMPI PUSH1 0x7F DUP3 AND SWAP2 POP JUMPDEST PUSH1 0x20 DUP3 LT DUP2 SUB PUSH3 0x4B9 JUMPI PUSH3 0x4B8 PUSH3 0x45B JUMP JUMPDEST JUMPDEST POP SWAP2 SWAP1 POP JUMP JUMPDEST PUSH2 0x15D7 DUP1 PUSH3 0x4CF PUSH1 0x0 CODECOPY PUSH1 0x0 RETURN INVALID PUSH1 0x80 PUSH1 0x40 MSTORE PUSH1 0x4 CALLDATASIZE LT PUSH2 0xDD JUMPI PUSH1 0x0 CALLDATALOAD PUSH1 0xE0 SHR DUP1 PUSH4 0x8DA5CB5B GT PUSH2 0x7F JUMPI DUP1 PUSH4 0xA9059CBB GT PUSH2 0x59 JUMPI DUP1 PUSH4 0xA9059CBB EQ PUSH2 0x2C2 JUMPI DUP1 PUSH4 0xDB006A75 EQ PUSH2 0x2FF JUMPI DUP1 PUSH4 0xDD62ED3E EQ PUSH2 0x328 JUMPI DUP1 PUSH4 0xF340FA01 EQ PUSH2 0x365 JUMPI PUSH2 0xDD JUMP JUMPDEST DUP1 PUSH4 0x8DA5CB5B EQ PUSH2 0x243 JUMPI DUP1 PUSH4 0x95D89B41 EQ PUSH2 0x26E JUMPI DUP1 PUSH4 0x9DC29FAC EQ PUSH2 0x299 JUMPI PUSH2 0xDD JUMP JUMPDEST DUP1 PUSH4 0x23B872DD GT PUSH2 0xBB JUMPI DUP1 PUSH4 0x23B872DD EQ PUSH2 0x175 JUMPI DUP1 PUSH4 0x313CE567 EQ PUSH2 0x1B2 JUMPI DUP1 PUSH4 0x40C10F19 EQ PUSH2 0x1DD JUMPI DUP1 PUSH4 0x70A08231 EQ PUSH2 0x206 JUMPI PUSH2 0xDD JUMP JUMPDEST DUP1 PUSH4 0x6FDDE03 EQ PUSH2 0xE2 JUMPI DUP1 PUSH4 0x95EA7B3 EQ PUSH2 0x10D JUMPI DUP1 PUSH4 0x18160DDD EQ PUSH2 0x14A JUMPI JUMPDEST PUSH1 0x0 DUP1 REVERT JUMPDEST CALLVALUE DUP1 ISZERO PUSH2 0xEE JUMPI PUSH1 0x0 DUP1 REVERT JUMPDEST POP PUSH2 0xF7 PUSH2 0x381 JUMP JUMPDEST PUSH1 0x40 MLOAD PUSH2 0x104 SWAP2 SWAP1 PUSH2 0xE7F JUMP JUMPDEST PUSH1 0x40 MLOAD DUP1 SWAP2 SUB SWAP1 RETURN JUMPDEST CALLVALUE DUP1 ISZERO PUSH2 0x119 JUMPI PUSH1 0x0 DUP1 REVERT JUMPDEST POP PUSH2 0x134 PUSH1 0x4 DUP1 CALLDATASIZE SUB DUP2 ADD SWAP1 PUSH2 0x12F SWAP2 SWAP1 PUSH2 0xF3A JUMP JUMPDEST PUSH2 0x40F JUMP JUMPDEST PUSH1 0x40 MLOAD PUSH2 0x141 SWAP2 SWAP1 PUSH2 0xF95 JUMP JUMPDEST PUSH1 0x40 MLOAD DUP1 SWAP2 SUB SWAP1 RETURN JUMPDEST CALLVALUE DUP1 ISZERO PUSH2 0x156 JUMPI PUSH1 0x0 DUP1 REVERT JUMPDEST POP PUSH2 0x15F PUSH2 0x56F JUMP JUMPDEST PUSH1 0x40 MLOAD PUSH2 0x16C SWAP2 SWAP1 PUSH2 0xFBF JUMP JUMPDEST PUSH1 0x40 MLOAD DUP1 SWAP2 SUB SWAP1 RETURN JUMPDEST CALLVALUE DUP1 ISZERO PUSH2 0x181 JUMPI PUSH1 0x0 DUP1 REVERT JUMPDEST POP PUSH2 0x19C PUSH1 0x4 DUP1 CALLDATASIZE SUB DUP2 ADD SWAP1 PUSH2 0x197 SWAP2 SWAP1 PUSH2 0xFDA JUMP JUMPDEST PUSH2 0x575 JUMP JUMPDEST PUSH1 0x40 MLOAD PUSH2 0x1A9 SWAP2 SWAP1 PUSH2 0xF95 JUMP JUMPDEST PUSH1 0x40 MLOAD DUP1 SWAP2 SUB SWAP1 RETURN JUMPDEST CALLVALUE DUP1 ISZERO PUSH2 0x1BE JUMPI PUSH1 0x0 DUP1 REVERT JUMPDEST POP PUSH2 0x1C7 PUSH2 0x6DB JUMP JUMPDEST PUSH1 0x40 MLOAD PUSH2 0x1D4 SWAP2 SWAP1 PUSH2 0x1049 JUMP JUMPDEST PUSH1 0x40 MLOAD DUP1 SWAP2 SUB SWAP1 RETURN JUMPDEST CALLVALUE DUP1 ISZERO PUSH2 0x1E9 JUMPI PUSH1 0x0 DUP1 REVERT JUMPDEST POP PUSH2 0x204 PUSH1 0x4 DUP1 CALLDATASIZE SUB DUP2 ADD SWAP1 PUSH2 0x1FF SWAP2 SWAP1 PUSH2 0xF3A JUMP JUMPDEST PUSH2 0x6E4 JUMP JUMPDEST STOP JUMPDEST CALLVALUE DUP1 ISZERO PUSH2 0x212 JUMPI PUSH1 0x0 DUP1 REVERT JUMPDEST POP PUSH2 0x22D PUSH1 0x4 DUP1 CALLDATASIZE SUB DUP2 ADD SWAP1 PUSH2 0x228 SWAP2 SWAP1 PUSH2 0x1064 JUMP JUMPDEST PUSH2 0x782 JUMP JUMPDEST PUSH1 0x40 MLOAD PUSH2 0x23A SWAP2 SWAP1 PUSH2 0xFBF JUMP JUMPDEST PUSH1 0x40 MLOAD DUP1 SWAP2 SUB SWAP1 RETURN JUMPDEST CALLVALUE DUP1 ISZERO PUSH2 0x24F JUMPI PUSH1 0x0 DUP1 REVERT JUMPDEST POP PUSH2 0x258 PUSH2 0x79A JUMP JUMPDEST PUSH1 0x40 MLOAD PUSH2 0x265 SWAP2 SWAP1 PUSH2 0x10A0 JUMP JUMPDEST PUSH1 0x40 MLOAD DUP1 SWAP2 SUB SWAP1 RETURN JUMPDEST CALLVALUE DUP1 ISZERO PUSH2 0x27A JUMPI PUSH1 0x0 DUP1 REVERT JUMPDEST POP PUSH2 0x283 PUSH2 0x7C0 JUMP JUMPDEST PUSH1 0x40 MLOAD PUSH2 0x290 SWAP2 SWAP1 PUSH2 0xE7F JUMP JUMPDEST PUSH1 0x40 MLOAD DUP1 SWAP2 SUB SWAP1 RETURN JUMPDEST CALLVALUE DUP1 ISZERO PUSH2 0x2A5 JUMPI PUSH1 0x0 DUP1 REVERT JUMPDEST POP PUSH2 0x2C0 PUSH1 0x4 DUP1 CALLDATASIZE SUB DUP2 ADD SWAP1 PUSH2 0x2BB SWAP2 SWAP1 PUSH2 0xF3A JUMP JUMPDEST PUSH2 0x84E JUMP JUMPDEST STOP JUMPDEST CALLVALUE DUP1 ISZERO PUSH2 0x2CE JUMPI PUSH1 0x0 DUP1 REVERT JUMPDEST POP PUSH2 0x2E9 PUSH1 0x4 DUP1 CALLDATASIZE SUB DUP2 ADD SWAP1 PUSH2 0x2E4 SWAP2 SWAP1 PUSH2 0xF3A JUMP JUMPDEST PUSH2 0x8EC JUMP JUMPDEST PUSH1 0x40 MLOAD PUSH2 0x2F6 SWAP2 SWAP1 PUSH2 0xF95 JUMP JUMPDEST PUSH1 0x40 MLOAD DUP1 SWAP2 SUB SWAP1 RETURN JUMPDEST CALLVALUE DUP1 ISZERO PUSH2 0x30B JUMPI PUSH1 0x0 DUP1 REVERT JUMPDEST POP PUSH2 0x326 PUSH1 0x4 DUP1 CALLDATASIZE SUB DUP2 ADD SWAP1 PUSH2 0x321 SWAP2 SWAP1 PUSH2 0x10BB JUMP JUMPDEST PUSH2 0x901 JUMP JUMPDEST STOP JUMPDEST CALLVALUE DUP1 ISZERO PUSH2 0x334 JUMPI PUSH1 0x0 DUP1 REVERT JUMPDEST POP PUSH2 0x34F PUSH1 0x4 DUP1 CALLDATASIZE SUB DUP2 ADD SWAP1 PUSH2 0x34A SWAP2 SWAP1 PUSH2 0x10E8 JUMP JUMPDEST PUSH2 0x91A JUMP JUMPDEST PUSH1 0x40 MLOAD PUSH2 0x35C SWAP2 SWAP1 PUSH2 0xFBF JUMP JUMPDEST PUSH1 0x40 MLOAD DUP1 SWAP2 SUB SWAP1 RETURN JUMPDEST PUSH2 0x37F PUSH1 0x4 DUP1 CALLDATASIZE SUB DUP2 ADD SWAP1 PUSH2 0x37A SWAP2 SWAP1 PUSH2 0x1064 JUMP JUMPDEST PUSH2 0x93F JUMP JUMPDEST STOP JUMPDEST PUSH1 0x1 DUP1 SLOAD PUSH2 0x38E SWAP1 PUSH2 0x1157 JUMP JUMPDEST DUP1 PUSH1 0x1F ADD PUSH1 0x20 DUP1 SWAP2 DIV MUL PUSH1 0x20 ADD PUSH1 0x40 MLOAD SWAP1 DUP2 ADD PUSH1 0x40 MSTORE DUP1 SWAP3 SWAP2 SWAP1 DUP2 DUP2 MSTORE PUSH1 0x20 ADD DUP3 DUP1 SLOAD PUSH2 0x3BA SWAP1 PUSH2 0x1157 JUMP JUMPDEST DUP1 ISZERO PUSH2 0x407 JUMPI DUP1 PUSH1 0x1F LT PUSH2 0x3DC JUMPI PUSH2 0x100 DUP1 DUP4 SLOAD DIV MUL DUP4 MSTORE SWAP2 PUSH1 0x20 ADD SWAP2 PUSH2 0x407 JUMP JUMPDEST DUP3 ADD SWAP2 SWAP1 PUSH1 0x0 MSTORE PUSH1 0x20 PUSH1 0x0 KECCAK256 SWAP1 JUMPDEST DUP2 SLOAD DUP2 MSTORE SWAP1 PUSH1 0x1 ADD SWAP1 PUSH1 0x20 ADD DUP1 DUP4 GT PUSH2 0x3EA JUMPI DUP3 SWAP1 SUB PUSH1 0x1F AND DUP3 ADD SWAP2 JUMPDEST POP POP POP POP POP DUP2 JUMP JUMPDEST PUSH1 0x0 DUP1 PUSH20 0xFFFFFFFFFFFFFFFFFFFFFFFFFFFFFFFFFFFFFFFF AND DUP4 PUSH20 0xFFFFFFFFFFFFFFFFFFFFFFFFFFFFFFFFFFFFFFFF AND SUB PUSH2 0x47F JUMPI PUSH1 0x40 MLOAD PUSH32 0x8C379A000000000000000000000000000000000000000000000000000000000 DUP2 MSTORE PUSH1 0x4 ADD PUSH2 0x476 SWAP1 PUSH2 0x11D4 JUMP JUMPDEST PUSH1 0x40 MLOAD DUP1 SWAP2 SUB SWAP1 REVERT JUMPDEST DUP2 PUSH1 0x4 PUSH1 0x0 CALLER PUSH20 0xFFFFFFFFFFFFFFFFFFFFFFFFFFFFFFFFFFFFFFFF AND PUSH20 0xFFFFFFFFFFFFFFFFFFFFFFFFFFFFFFFFFFFFFFFF AND DUP2 MSTORE PUSH1 0x20 ADD SWAP1 DUP2 MSTORE PUSH1 0x20 ADD PUSH1 0x0 KECCAK256 PUSH1 0x0 DUP6 PUSH20 0xFFFFFFFFFFFFFFFFFFFFFFFFFFFFFFFFFFFFFFFF AND PUSH20 0xFFFFFFFFFFFFFFFFFFFFFFFFFFFFFFFFFFFFFFFF AND DUP2 MSTORE PUSH1 0x20 ADD SWAP1 DUP2 MSTORE PUSH1 0x20 ADD PUSH1 0x0 KECCAK256 DUP2 SWAP1 SSTORE POP DUP3 PUSH20 0xFFFFFFFFFFFFFFFFFFFFFFFFFFFFFFFFFFFFFFFF AND CALLER PUSH20 0xFFFFFFFFFFFFFFFFFFFFFFFFFFFFFFFFFFFFFFFF AND PUSH32 0x8C5BE1E5EBEC7D5BD14F71427D1E84F3DD0314C0F7B2291E5B200AC8C7C3B925 DUP5 PUSH1 0x40 MLOAD PUSH2 0x55D SWAP2 SWAP1 PUSH2 0xFBF JUMP JUMPDEST PUSH1 0x40 MLOAD DUP1 SWAP2 SUB SWAP1 LOG3 PUSH1 0x1 SWAP1 POP SWAP3 SWAP2 POP POP JUMP JUMPDEST PUSH1 0x0 SLOAD DUP2 JUMP JUMPDEST PUSH1 0x0 DUP1 PUSH1 0x4 PUSH1 0x0 DUP7 PUSH20 0xFFFFFFFFFFFFFFFFFFFFFFFFFFFFFFFFFFFFFFFF AND PUSH20 0xFFFFFFFFFFFFFFFFFFFFFFFFFFFFFFFFFFFFFFFF AND DUP2 MSTORE PUSH1 0x20 ADD SWAP1 DUP2 MSTORE PUSH1 0x20 ADD PUSH1 0x0 KECCAK256 PUSH1 0x0 CALLER PUSH20 0xFFFFFFFFFFFFFFFFFFFFFFFFFFFFFFFFFFFFFFFF AND PUSH20 0xFFFFFFFFFFFFFFFFFFFFFFFFFFFFFFFFFFFFFFFF AND DUP2 MSTORE PUSH1 0x20 ADD SWAP1 DUP2 MSTORE PUSH1 0x20 ADD PUSH1 0x0 KECCAK256 SLOAD SWAP1 POP DUP3 DUP2 LT ISZERO PUSH2 0x63A JUMPI PUSH1 0x40 MLOAD PUSH32 0x8C379A000000000000000000000000000000000000000000000000000000000 DUP2 MSTORE PUSH1 0x4 ADD PUSH2 0x631 SWAP1 PUSH2 0x1240 JUMP JUMPDEST PUSH1 0x40 MLOAD DUP1 SWAP2 SUB SWAP1 REVERT JUMPDEST DUP3 DUP2 PUSH2 0x646 SWAP2 SWAP1 PUSH2 0x128F JUMP JUMPDEST PUSH1 0x4 PUSH1 0x0 DUP8 PUSH20 0xFFFFFFFFFFFFFFFFFFFFFFFFFFFFFFFFFFFFFFFF AND PUSH20 0xFFFFFFFFFFFFFFFFFFFFFFFFFFFFFFFFFFFFFFFF AND DUP2 MSTORE PUSH1 0x20 ADD SWAP1 DUP2 MSTORE PUSH1 0x20 ADD PUSH1 0x0 KECCAK256 PUSH1 0x0 CALLER PUSH20 0xFFFFFFFFFFFFFFFFFFFFFFFFFFFFFFFFFFFFFFFF AND PUSH20 0xFFFFFFFFFFFFFFFFFFFFFFFFFFFFFFFFFFFFFFFF AND DUP2 MSTORE PUSH1 0x20 ADD SWAP1 DUP2 MSTORE PUSH1 0x20 ADD PUSH1 0x0 KECCAK256 DUP2 SWAP1 SSTORE POP PUSH2 0x6D1 DUP6 DUP6 DUP6 PUSH2 0x94C JUMP JUMPDEST SWAP2 POP POP SWAP4 SWAP3 POP POP POP JUMP JUMPDEST PUSH1 0x0 PUSH1 0x12 SWAP1 POP SWAP1 JUMP JUMPDEST PUSH1 0x5 PUSH1 0x0 SWAP1 SLOAD SWAP1 PUSH2 0x100 EXP SWAP1 DIV PUSH20 0xFFFFFFFFFFFFFFFFFFFFFFFFFFFFFFFFFFFFFFFF AND PUSH20 0xFFFFFFFFFFFFFFFFFFFFFFFFFFFFFFFFFFFFFFFF AND CALLER PUSH20 0xFFFFFFFFFFFFFFFFFFFFFFFFFFFFFFFFFFFFFFFF AND EQ PUSH2 0x774 JUMPI PUSH1 0x40 MLOAD PUSH32 0x8C379A000000000000000000000000000000000000000000000000000000000 DUP2 MSTORE PUSH1 0x4 ADD PUSH2 0x76B SWAP1 PUSH2 0x130F JUMP JUMPDEST PUSH1 0x40 MLOAD DUP1 SWAP2 SUB SWAP1 REVERT JUMPDEST PUSH2 0x77E DUP3 DUP3 PUSH2 0xB58 JUMP JUMPDEST POP POP JUMP JUMPDEST PUSH1 0x3 PUSH1 0x20 MSTORE DUP1 PUSH1 0x0 MSTORE PUSH1 0x40 PUSH1 0x0 KECCAK256 PUSH1 0x0 SWAP2 POP SWAP1 POP SLOAD DUP2 JUMP JUMPDEST PUSH1 0x5 PUSH1 0x0 SWAP1 SLOAD SWAP1 PUSH2 0x100 EXP SWAP1 DIV PUSH20 0xFFFFFFFFFFFFFFFFFFFFFFFFFFFFFFFFFFFFFFFF AND DUP2 JUMP JUMPDEST PUSH1 0x2 DUP1 SLOAD PUSH2 0x7CD SWAP1 PUSH2 0x1157 JUMP JUMPDEST DUP1 PUSH1 0x1F ADD PUSH1 0x20 DUP1 SWAP2 DIV MUL PUSH1 0x20 ADD PUSH1 0x40 MLOAD SWAP1 DUP2 ADD PUSH1 0x40 MSTORE DUP1 SWAP3 SWAP2 SWAP1 DUP2 DUP2 MSTORE PUSH1 0x20 ADD DUP3 DUP1 SLOAD PUSH2 0x7F9 SWAP1 PUSH2 0x1157 JUMP JUMPDEST DUP1 ISZERO PUSH2 0x846 JUMPI DUP1 PUSH1 0x1F LT PUSH2 0x81B JUMPI PUSH2 0x100 DUP1 DUP4 SLOAD DIV MUL DUP4 MSTORE SWAP2 PUSH1 0x20 ADD SWAP2 PUSH2 0x846 JUMP JUMPDEST DUP3 ADD SWAP2 SWAP1 PUSH1 0x0 MSTORE PUSH1 0x20 PUSH1 0x0 KECCAK256 SWAP1 JUMPDEST DUP2 SLOAD DUP2 MSTORE SWAP1 PUSH1 0x1 ADD SWAP1 PUSH1 0x20 ADD DUP1 DUP4 GT PUSH2 0x829 JUMPI DUP3 SWAP1 SUB PUSH1 0x1F AND DUP3 ADD SWAP2 JUMPDEST POP POP POP POP POP DUP2 JUMP JUMPDEST PUSH1 0x5 PUSH1 0x0 SWAP1 SLOAD SWAP1 PUSH2 0x100 EXP SWAP1 DIV PUSH20 0xFFFFFFFFFFFFFFFFFFFFFFFFFFFFFFFFFFFFFFFF AND PUSH20 0xFFFFFFFFFFFFFFFFFFFFFFFFFFFFFFFFFFFFFFFF AND CALLER PUSH20 0xFFFFFFFFFFFFFFFFFFFFFFFFFFFFFFFFFFFFFFFF AND EQ PUSH2 0x8DE JUMPI PUSH1 0x40 MLOAD PUSH32 0x8C379A000000000000000000000000000000000000000000000000000000000 DUP2 MSTORE PUSH1 0x4 ADD PUSH2 0x8D5 SWAP1 PUSH2 0x137B JUMP JUMPDEST PUSH1 0x40 MLOAD DUP1 SWAP2 SUB SWAP1 REVERT JUMPDEST PUSH2 0x8E8 DUP3 DUP3 PUSH2 0xC9F JUMP JUMPDEST POP POP JUMP JUMPDEST PUSH1 0x0 PUSH2 0x8F9 CALLER DUP5 DUP5 PUSH2 0x94C JUMP JUMPDEST SWAP1 POP SWAP3 SWAP2 POP POP JUMP JUMPDEST PUSH2 0x90C CALLER ADDRESS DUP4 PUSH2 0x575 JUMP JUMPDEST POP PUSH2 0x917 ADDRESS DUP3 PUSH2 0xC9F JUMP JUMPDEST POP JUMP JUMPDEST PUSH1 0x4 PUSH1 0x20 MSTORE DUP2 PUSH1 0x0 MSTORE PUSH1 0x40 PUSH1 0x0 KECCAK256 PUSH1 0x20 MSTORE DUP1 PUSH1 0x0 MSTORE PUSH1 0x40 PUSH1 0x0 KECCAK256 PUSH1 0x0 SWAP2 POP SWAP2 POP POP SLOAD DUP2 JUMP JUMPDEST PUSH2 0x949 DUP2 CALLVALUE PUSH2 0xB58 JUMP JUMPDEST POP JUMP JUMPDEST PUSH1 0x0 DUP1 PUSH20 0xFFFFFFFFFFFFFFFFFFFFFFFFFFFFFFFFFFFFFFFF AND DUP4 PUSH20 0xFFFFFFFFFFFFFFFFFFFFFFFFFFFFFFFFFFFFFFFF AND SUB PUSH2 0x9BC JUMPI PUSH1 0x40 MLOAD PUSH32 0x8C379A000000000000000000000000000000000000000000000000000000000 DUP2 MSTORE PUSH1 0x4 ADD PUSH2 0x9B3 SWAP1 PUSH2 0x13E7 JUMP JUMPDEST PUSH1 0x40 MLOAD DUP1 SWAP2 SUB SWAP1 REVERT JUMPDEST PUSH1 0x0 PUSH1 0x3 PUSH1 0x0 DUP7 PUSH20 0xFFFFFFFFFFFFFFFFFFFFFFFFFFFFFFFFFFFFFFFF AND PUSH20 0xFFFFFFFFFFFFFFFFFFFFFFFFFFFFFFFFFFFFFFFF AND DUP2 MSTORE PUSH1 0x20 ADD SWAP1 DUP2 MSTORE PUSH1 0x20 ADD PUSH1 0x0 KECCAK256 SLOAD SWAP1 POP DUP3 DUP2 GT PUSH2 0xA42 JUMPI PUSH1 0x40 MLOAD PUSH32 0x8C379A000000000000000000000000000000000000000000000000000000000 DUP2 MSTORE PUSH1 0x4 ADD PUSH2 0xA39 SWAP1 PUSH2 0x1453 JUMP JUMPDEST PUSH1 0x40 MLOAD DUP1 SWAP2 SUB SWAP1 REVERT JUMPDEST DUP3 DUP2 PUSH2 0xA4E SWAP2 SWAP1 PUSH2 0x128F JUMP JUMPDEST PUSH1 0x3 PUSH1 0x0 DUP8 PUSH20 0xFFFFFFFFFFFFFFFFFFFFFFFFFFFFFFFFFFFFFFFF AND PUSH20 0xFFFFFFFFFFFFFFFFFFFFFFFFFFFFFFFFFFFFFFFF AND DUP2 MSTORE PUSH1 0x20 ADD SWAP1 DUP2 MSTORE PUSH1 0x20 ADD PUSH1 0x0 KECCAK256 DUP2 SWAP1 SSTORE POP DUP3 PUSH1 0x3 PUSH1 0x0 DUP7 PUSH20 0xFFFFFFFFFFFFFFFFFFFFFFFFFFFFFFFFFFFFFFFF AND PUSH20 0xFFFFFFFFFFFFFFFFFFFFFFFFFFFFFFFFFFFFFFFF AND DUP2 MSTORE PUSH1 0x20 ADD SWAP1 DUP2 MSTORE PUSH1 0x20 ADD PUSH1 0x0 KECCAK256 PUSH1 0x0 DUP3 DUP3 SLOAD PUSH2 0xAE0 SWAP2 SWAP1 PUSH2 0x1473 JUMP JUMPDEST SWAP3 POP POP DUP2 SWAP1 SSTORE POP DUP4 PUSH20 0xFFFFFFFFFFFFFFFFFFFFFFFFFFFFFFFFFFFFFFFF AND DUP6 PUSH20 0xFFFFFFFFFFFFFFFFFFFFFFFFFFFFFFFFFFFFFFFF AND PUSH32 0xDDF252AD1BE2C89B69C2B068FC378DAA952BA7F163C4A11628F55A4DF523B3EF DUP6 PUSH1 0x40 MLOAD PUSH2 0xB44 SWAP2 SWAP1 PUSH2 0xFBF JUMP JUMPDEST PUSH1 0x40 MLOAD DUP1 SWAP2 SUB SWAP1 LOG3 PUSH1 0x1 SWAP2 POP POP SWAP4 SWAP3 POP POP POP JUMP JUMPDEST PUSH1 0x0 PUSH20 0xFFFFFFFFFFFFFFFFFFFFFFFFFFFFFFFFFFFFFFFF AND DUP3 PUSH20 0xFFFFFFFFFFFFFFFFFFFFFFFFFFFFFFFFFFFFFFFF AND SUB PUSH2 0xBC7 JUMPI PUSH1 0x40 MLOAD PUSH32 0x8C379A000000000000000000000000000000000000000000000000000000000 DUP2 MSTORE PUSH1 0x4 ADD PUSH2 0xBBE SWAP1 PUSH2 0x1515 JUMP JUMPDEST PUSH1 0x40 MLOAD DUP1 SWAP2 SUB SWAP1 REVERT JUMPDEST DUP1 PUSH1 0x0 DUP1 DUP3 DUP3 SLOAD PUSH2 0xBD8 SWAP2 SWAP1 PUSH2 0x1473 JUMP JUMPDEST SWAP3 POP POP DUP2 SWAP1 SSTORE POP DUP1 PUSH1 0x3 PUSH1 0x0 DUP5 PUSH20 0xFFFFFFFFFFFFFFFFFFFFFFFFFFFFFFFFFFFFFFFF AND PUSH20 0xFFFFFFFFFFFFFFFFFFFFFFFFFFFFFFFFFFFFFFFF AND DUP2 MSTORE PUSH1 0x20 ADD SWAP1 DUP2 MSTORE PUSH1 0x20 ADD PUSH1 0x0 KECCAK256 PUSH1 0x0 DUP3 DUP3 SLOAD PUSH2 0xC2E SWAP2 SWAP1 PUSH2 0x1473 JUMP JUMPDEST SWAP3 POP POP DUP2 SWAP1 SSTORE POP DUP2 PUSH20 0xFFFFFFFFFFFFFFFFFFFFFFFFFFFFFFFFFFFFFFFF AND PUSH1 0x0 PUSH20 0xFFFFFFFFFFFFFFFFFFFFFFFFFFFFFFFFFFFFFFFF AND PUSH32 0xDDF252AD1BE2C89B69C2B068FC378DAA952BA7F163C4A11628F55A4DF523B3EF DUP4 PUSH1 0x40 MLOAD PUSH2 0xC93 SWAP2 SWAP1 PUSH2 0xFBF JUMP JUMPDEST PUSH1 0x40 MLOAD DUP1 SWAP2 SUB SWAP1 LOG3 POP POP JUMP JUMPDEST PUSH1 0x0 PUSH20 0xFFFFFFFFFFFFFFFFFFFFFFFFFFFFFFFFFFFFFFFF AND DUP3 PUSH20 0xFFFFFFFFFFFFFFFFFFFFFFFFFFFFFFFFFFFFFFFF AND SUB PUSH2 0xD0E JUMPI PUSH1 0x40 MLOAD PUSH32 0x8C379A000000000000000000000000000000000000000000000000000000000 DUP2 MSTORE PUSH1 0x4 ADD PUSH2 0xD05 SWAP1 PUSH2 0x1581 JUMP JUMPDEST PUSH1 0x40 MLOAD DUP1 SWAP2 SUB SWAP1 REVERT JUMPDEST DUP1 PUSH1 0x0 DUP1 DUP3 DUP3 SLOAD PUSH2 0xD1F SWAP2 SWAP1 PUSH2 0x128F JUMP JUMPDEST SWAP3 POP POP DUP2 SWAP1 SSTORE POP DUP1 PUSH1 0x3 PUSH1 0x0 DUP5 PUSH20 0xFFFFFFFFFFFFFFFFFFFFFFFFFFFFFFFFFFFFFFFF AND PUSH20 0xFFFFFFFFFFFFFFFFFFFFFFFFFFFFFFFFFFFFFFFF AND DUP2 MSTORE PUSH1 0x20 ADD SWAP1 DUP2 MSTORE PUSH1 0x20 ADD PUSH1 0x0 KECCAK256 PUSH1 0x0 DUP3 DUP3 SLOAD PUSH2 0xD75 SWAP2 SWAP1 PUSH2 0x128F JUMP JUMPDEST SWAP3 POP POP DUP2 SWAP1 SSTORE POP DUP2 PUSH20 0xFFFFFFFFFFFFFFFFFFFFFFFFFFFFFFFFFFFFFFFF AND PUSH1 0x0 PUSH20 0xFFFFFFFFFFFFFFFFFFFFFFFFFFFFFFFFFFFFFFFF AND PUSH32 0xDDF252AD1BE2C89B69C2B068FC378DAA952BA7F163C4A11628F55A4DF523B3EF DUP4 PUSH1 0x40 MLOAD PUSH2 0xDDA SWAP2 SWAP1 PUSH2 0xFBF JUMP JUMPDEST PUSH1 0x40 MLOAD DUP1 SWAP2 SUB SWAP1 LOG3 POP POP JUMP JUMPDEST PUSH1 0x0 DUP2 MLOAD SWAP1 POP SWAP2 SWAP1 POP JUMP JUMPDEST PUSH1 0x0 DUP3 DUP3 MSTORE PUSH1 0x20 DUP3 ADD SWAP1 POP SWAP3 SWAP2 POP POP JUMP JUMPDEST PUSH1 0x0 JUMPDEST DUP4 DUP2 LT ISZERO PUSH2 0xE20 JUMPI DUP1 DUP3 ADD MLOAD DUP2 DUP5 ADD MSTORE PUSH1 0x20 DUP2 ADD SWAP1 POP PUSH2 0xE05 JUMP JUMPDEST DUP4 DUP2 GT ISZERO PUSH2 0xE2F JUMPI PUSH1 0x0 DUP5 DUP5 ADD MSTORE JUMPDEST POP POP POP POP JUMP JUMPDEST PUSH1 0x0 PUSH1 0x1F NOT PUSH1 0x1F DUP4 ADD AND SWAP1 POP SWAP2 SWAP1 POP JUMP JUMPDEST PUSH1 0x0 PUSH2 0xE51 DUP3 PUSH2 0xDE6 JUMP JUMPDEST PUSH2 0xE5B DUP2 DUP6 PUSH2 0xDF1 JUMP JUMPDEST SWAP4 POP PUSH2 0xE6B DUP2 DUP6 PUSH1 0x20 DUP7 ADD PUSH2 0xE02 JUMP JUMPDEST PUSH2 0xE74 DUP2 PUSH2 0xE35 JUMP JUMPDEST DUP5 ADD SWAP2 POP POP SWAP3 SWAP2 POP POP JUMP JUMPDEST PUSH1 0x0 PUSH1 0x20 DUP3 ADD SWAP1 POP DUP2 DUP2 SUB PUSH1 0x0 DUP4 ADD MSTORE PUSH2 0xE99 DUP2 DUP5 PUSH2 0xE46 JUMP JUMPDEST SWAP1 POP SWAP3 SWAP2 POP POP JUMP JUMPDEST PUSH1 0x0 DUP1 REVERT JUMPDEST PUSH1 0x0 PUSH20 0xFFFFFFFFFFFFFFFFFFFFFFFFFFFFFFFFFFFFFFFF DUP3 AND SWAP1 POP SWAP2 SWAP1 POP JUMP JUMPDEST PUSH1 0x0 PUSH2 0xED1 DUP3 PUSH2 0xEA6 JUMP JUMPDEST SWAP1 POP SWAP2 SWAP1 POP JUMP JUMPDEST PUSH2 0xEE1 DUP2 PUSH2 0xEC6 JUMP JUMPDEST DUP2 EQ PUSH2 0xEEC JUMPI PUSH1 0x0 DUP1 REVERT JUMPDEST POP JUMP JUMPDEST PUSH1 0x0 DUP2 CALLDATALOAD SWAP1 POP PUSH2 0xEFE DUP2 PUSH2 0xED8 JUMP JUMPDEST SWAP3 SWAP2 POP POP JUMP JUMPDEST PUSH1 0x0 DUP2 SWAP1 POP SWAP2 SWAP1 POP JUMP JUMPDEST PUSH2 0xF17 DUP2 PUSH2 0xF04 JUMP JUMPDEST DUP2 EQ PUSH2 0xF22 JUMPI PUSH1 0x0 DUP1 REVERT JUMPDEST POP JUMP JUMPDEST PUSH1 0x0 DUP2 CALLDATALOAD SWAP1 POP PUSH2 0xF34 DUP2 PUSH2 0xF0E JUMP JUMPDEST SWAP3 SWAP2 POP POP JUMP JUMPDEST PUSH1 0x0 DUP1 PUSH1 0x40 DUP4 DUP6 SUB SLT ISZERO PUSH2 0xF51 JUMPI PUSH2 0xF50 PUSH2 0xEA1 JUMP JUMPDEST JUMPDEST PUSH1 0x0 PUSH2 0xF5F DUP6 DUP3 DUP7 ADD PUSH2 0xEEF JUMP JUMPDEST SWAP3 POP POP PUSH1 0x20 PUSH2 0xF70 DUP6 DUP3 DUP7 ADD PUSH2 0xF25 JUMP JUMPDEST SWAP2 POP POP SWAP3 POP SWAP3 SWAP1 POP JUMP JUMPDEST PUSH1 0x0 DUP2 ISZERO ISZERO SWAP1 POP SWAP2 SWAP1 POP JUMP JUMPDEST PUSH2 0xF8F DUP2 PUSH2 0xF7A JUMP JUMPDEST DUP3 MSTORE POP POP JUMP JUMPDEST PUSH1 0x0 PUSH1 0x20 DUP3 ADD SWAP1 POP PUSH2 0xFAA PUSH1 0x0 DUP4 ADD DUP5 PUSH2 0xF86 JUMP JUMPDEST SWAP3 SWAP2 POP POP JUMP JUMPDEST PUSH2 0xFB9 DUP2 PUSH2 0xF04 JUMP JUMPDEST DUP3 MSTORE POP POP JUMP JUMPDEST PUSH1 0x0 PUSH1 0x20 DUP3 ADD SWAP1 POP PUSH2 0xFD4 PUSH1 0x0 DUP4 ADD DUP5 PUSH2 0xFB0 JUMP JUMPDEST SWAP3 SWAP2 POP POP JUMP JUMPDEST PUSH1 0x0 DUP1 PUSH1 0x0 PUSH1 0x60 DUP5 DUP7 SUB SLT ISZERO PUSH2 0xFF3 JUMPI PUSH2 0xFF2 PUSH2 0xEA1 JUMP JUMPDEST JUMPDEST PUSH1 0x0 PUSH2 0x1001 DUP7 DUP3 DUP8 ADD PUSH2 0xEEF JUMP JUMPDEST SWAP4 POP POP PUSH1 0x20 PUSH2 0x1012 DUP7 DUP3 DUP8 ADD PUSH2 0xEEF JUMP JUMPDEST SWAP3 POP POP PUSH1 0x40 PUSH2 0x1023 DUP7 DUP3 DUP8 ADD PUSH2 0xF25 JUMP JUMPDEST SWAP2 POP POP SWAP3 POP SWAP3 POP SWAP3 JUMP JUMPDEST PUSH1 0x0 PUSH1 0xFF DUP3 AND SWAP1 POP SWAP2 SWAP1 POP JUMP JUMPDEST PUSH2 0x1043 DUP2 PUSH2 0x102D JUMP JUMPDEST DUP3 MSTORE POP POP JUMP JUMPDEST PUSH1 0x0 PUSH1 0x20 DUP3 ADD SWAP1 POP PUSH2 0x105E PUSH1 0x0 DUP4 ADD DUP5 PUSH2 0x103A JUMP JUMPDEST SWAP3 SWAP2 POP POP JUMP JUMPDEST PUSH1 0x0 PUSH1 0x20 DUP3 DUP5 SUB SLT ISZERO PUSH2 0x107A JUMPI PUSH2 0x1079 PUSH2 0xEA1 JUMP JUMPDEST JUMPDEST PUSH1 0x0 PUSH2 0x1088 DUP5 DUP3 DUP6 ADD PUSH2 0xEEF JUMP JUMPDEST SWAP2 POP POP SWAP3 SWAP2 POP POP JUMP JUMPDEST PUSH2 0x109A DUP2 PUSH2 0xEC6 JUMP JUMPDEST DUP3 MSTORE POP POP JUMP JUMPDEST PUSH1 0x0 PUSH1 0x20 DUP3 ADD SWAP1 POP PUSH2 0x10B5 PUSH1 0x0 DUP4 ADD DUP5 PUSH2 0x1091 JUMP JUMPDEST SWAP3 SWAP2 POP POP JUMP JUMPDEST PUSH1 0x0 PUSH1 0x20 DUP3 DUP5 SUB SLT ISZERO PUSH2 0x10D1 JUMPI PUSH2 0x10D0 PUSH2 0xEA1 JUMP JUMPDEST JUMPDEST PUSH1 0x0 PUSH2 0x10DF DUP5 DUP3 DUP6 ADD PUSH2 0xF25 JUMP JUMPDEST SWAP2 POP POP SWAP3 SWAP2 POP POP JUMP JUMPDEST PUSH1 0x0 DUP1 PUSH1 0x40 DUP4 DUP6 SUB SLT ISZERO PUSH2 0x10FF JUMPI PUSH2 0x10FE PUSH2 0xEA1 JUMP JUMPDEST JUMPDEST PUSH1 0x0 PUSH2 0x110D DUP6 DUP3 DUP7 ADD PUSH2 0xEEF JUMP JUMPDEST SWAP3 POP POP PUSH1 0x20 PUSH2 0x111E DUP6 DUP3 DUP7 ADD PUSH2 0xEEF JUMP JUMPDEST SWAP2 POP POP SWAP3 POP SWAP3 SWAP1 POP JUMP JUMPDEST PUSH32 0x4E487B7100000000000000000000000000000000000000000000000000000000 PUSH1 0x0 MSTORE PUSH1 0x22 PUSH1 0x4 MSTORE PUSH1 0x24 PUSH1 0x0 REVERT JUMPDEST PUSH1 0x0 PUSH1 0x2 DUP3 DIV SWAP1 POP PUSH1 0x1 DUP3 AND DUP1 PUSH2 0x116F JUMPI PUSH1 0x7F DUP3 AND SWAP2 POP JUMPDEST PUSH1 0x20 DUP3 LT DUP2 SUB PUSH2 0x1182 JUMPI PUSH2 0x1181 PUSH2 0x1128 JUMP JUMPDEST JUMPDEST POP SWAP2 SWAP1 POP JUMP JUMPDEST PUSH32 0x617070726F766520746F207A65726F2061646472657373000000000000000000 PUSH1 0x0 DUP3 ADD MSTORE POP JUMP JUMPDEST PUSH1 0x0 PUSH2 0x11BE PUSH1 0x17 DUP4 PUSH2 0xDF1 JUMP JUMPDEST SWAP2 POP PUSH2 0x11C9 DUP3 PUSH2 0x1188 JUMP JUMPDEST PUSH1 0x20 DUP3 ADD SWAP1 POP SWAP2 SWAP1 POP JUMP JUMPDEST PUSH1 0x0 PUSH1 0x20 DUP3 ADD SWAP1 POP DUP2 DUP2 SUB PUSH1 0x0 DUP4 ADD MSTORE PUSH2 0x11ED DUP2 PUSH2 0x11B1 JUMP JUMPDEST SWAP1 POP SWAP2 SWAP1 POP JUMP JUMPDEST PUSH32 0x616D6F756E74206578636565647320616C6C6F77616E63650000000000000000 PUSH1 0x0 DUP3 ADD MSTORE POP JUMP JUMPDEST PUSH1 0x0 PUSH2 0x122A PUSH1 0x18 DUP4 PUSH2 0xDF1 JUMP JUMPDEST SWAP2 POP PUSH2 0x1235 DUP3 PUSH2 0x11F4 JUMP JUMPDEST PUSH1 0x20 DUP3 ADD SWAP1 POP SWAP2 SWAP1 POP JUMP JUMPDEST PUSH1 0x0 PUSH1 0x20 DUP3 ADD SWAP1 POP DUP2 DUP2 SUB PUSH1 0x0 DUP4 ADD MSTORE PUSH2 0x1259 DUP2 PUSH2 0x121D JUMP JUMPDEST SWAP1 POP SWAP2 SWAP1 POP JUMP JUMPDEST PUSH32 0x4E487B7100000000000000000000000000000000000000000000000000000000 PUSH1 0x0 MSTORE PUSH1 0x11 PUSH1 0x4 MSTORE PUSH1 0x24 PUSH1 0x0 REVERT JUMPDEST PUSH1 0x0 PUSH2 0x129A DUP3 PUSH2 0xF04 JUMP JUMPDEST SWAP2 POP PUSH2 0x12A5 DUP4 PUSH2 0xF04 JUMP JUMPDEST SWAP3 POP DUP3 DUP3 LT ISZERO PUSH2 0x12B8 JUMPI PUSH2 0x12B7 PUSH2 0x1260 JUMP JUMPDEST JUMPDEST DUP3 DUP3 SUB SWAP1 POP SWAP3 SWAP2 POP POP JUMP JUMPDEST PUSH32 0x6F6E6C79206F776E65722063616E206D696E7400000000000000000000000000 PUSH1 0x0 DUP3 ADD MSTORE POP JUMP JUMPDEST PUSH1 0x0 PUSH2 0x12F9 PUSH1 0x13 DUP4 PUSH2 0xDF1 JUMP JUMPDEST SWAP2 POP PUSH2 0x1304 DUP3 PUSH2 0x12C3 JUMP JUMPDEST PUSH1 0x20 DUP3 ADD SWAP1 POP SWAP2 SWAP1 POP JUMP JUMPDEST PUSH1 0x0 PUSH1 0x20 DUP3 ADD SWAP1 POP DUP2 DUP2 SUB PUSH1 0x0 DUP4 ADD MSTORE PUSH2 0x1328 DUP2 PUSH2 0x12EC JUMP JUMPDEST SWAP1 POP SWAP2 SWAP1 POP JUMP JUMPDEST PUSH32 0x6F6E6C79206F776E65722063616E206275726E00000000000000000000000000 PUSH1 0x0 DUP3 ADD MSTORE POP JUMP JUMPDEST PUSH1 0x0 PUSH2 0x1365 PUSH1 0x13 DUP4 PUSH2 0xDF1 JUMP JUMPDEST SWAP2 POP PUSH2 0x1370 DUP3 PUSH2 0x132F JUMP JUMPDEST PUSH1 0x20 DUP3 ADD SWAP1 POP SWAP2 SWAP1 POP JUMP JUMPDEST PUSH1 0x0 PUSH1 0x20 DUP3 ADD SWAP1 POP DUP2 DUP2 SUB PUSH1 0x0 DUP4 ADD MSTORE PUSH2 0x1394 DUP2 PUSH2 0x1358 JUMP JUMPDEST SWAP1 POP SWAP2 SWAP1 POP JUMP JUMPDEST PUSH32 0x7472616E7366657220746F20746865207A65726F206164647265737300000000 PUSH1 0x0 DUP3 ADD MSTORE POP JUMP JUMPDEST PUSH1 0x0 PUSH2 0x13D1 PUSH1 0x1C DUP4 PUSH2 0xDF1 JUMP JUMPDEST SWAP2 POP PUSH2 0x13DC DUP3 PUSH2 0x139B JUMP JUMPDEST PUSH1 0x20 DUP3 ADD SWAP1 POP SWAP2 SWAP1 POP JUMP JUMPDEST PUSH1 0x0 PUSH1 0x20 DUP3 ADD SWAP1 POP DUP2 DUP2 SUB PUSH1 0x0 DUP4 ADD MSTORE PUSH2 0x1400 DUP2 PUSH2 0x13C4 JUMP JUMPDEST SWAP1 POP SWAP2 SWAP1 POP JUMP JUMPDEST PUSH32 0x7472616E7366657220616D6F756E7420657863656564732062616C616E636500 PUSH1 0x0 DUP3 ADD MSTORE POP JUMP JUMPDEST PUSH1 0x0 PUSH2 0x143D PUSH1 0x1F DUP4 PUSH2 0xDF1 JUMP JUMPDEST SWAP2 POP PUSH2 0x1448 DUP3 PUSH2 0x1407 JUMP JUMPDEST PUSH1 0x20 DUP3 ADD SWAP1 POP SWAP2 SWAP1 POP JUMP JUMPDEST PUSH1 0x0 PUSH1 0x20 DUP3 ADD SWAP1 POP DUP2 DUP2 SUB PUSH1 0x0 DUP4 ADD MSTORE PUSH2 0x146C DUP2 PUSH2 0x1430 JUMP JUMPDEST SWAP1 POP SWAP2 SWAP1 POP JUMP JUMPDEST PUSH1 0x0 PUSH2 0x147E DUP3 PUSH2 0xF04 JUMP JUMPDEST SWAP2 POP PUSH2 0x1489 DUP4 PUSH2 0xF04 JUMP JUMPDEST SWAP3 POP DUP3 PUSH32 0xFFFFFFFFFFFFFFFFFFFFFFFFFFFFFFFFFFFFFFFFFFFFFFFFFFFFFFFFFFFFFFFF SUB DUP3 GT ISZERO PUSH2 0x14BE JUMPI PUSH2 0x14BD PUSH2 0x1260 JUMP JUMPDEST JUMPDEST DUP3 DUP3 ADD SWAP1 POP SWAP3 SWAP2 POP POP JUMP JUMPDEST PUSH32 0x6D696E7420746F207A65726F2061646472657373000000000000000000000000 PUSH1 0x0 DUP3 ADD MSTORE POP JUMP JUMPDEST PUSH1 0x0 PUSH2 0x14FF PUSH1 0x14 DUP4 PUSH2 0xDF1 JUMP JUMPDEST SWAP2 POP PUSH2 0x150A DUP3 PUSH2 0x14C9 JUMP JUMPDEST PUSH1 0x20 DUP3 ADD SWAP1 POP SWAP2 SWAP1 POP JUMP JUMPDEST PUSH1 0x0 PUSH1 0x20 DUP3 ADD SWAP1 POP DUP2 DUP2 SUB PUSH1 0x0 DUP4 ADD MSTORE PUSH2 0x152E DUP2 PUSH2 0x14F2 JUMP JUMPDEST SWAP1 POP SWAP2 SWAP1 POP JUMP JUMPDEST PUSH32 0x6275726E20746F207A65726F2061646472657373000000000000000000000000 PUSH1 0x0 DUP3 ADD MSTORE POP JUMP JUMPDEST PUSH1 0x0 PUSH2 0x156B PUSH1 0x14 DUP4 PUSH2 0xDF1 JUMP JUMPDEST SWAP2 POP PUSH2 0x1576 DUP3 PUSH2 0x1535 JUMP JUMPDEST PUSH1 0x20 DUP3 ADD SWAP1 POP SWAP2 SWAP1 POP JUMP JUMPDEST PUSH1 0x0 PUSH1 0x20 DUP3 ADD SWAP1 POP DUP2 DUP2 SUB PUSH1 0x0 DUP4 ADD MSTORE PUSH2 0x159A DUP2 PUSH2 0x155E JUMP JUMPDEST SWAP1 POP SWAP2 SWAP1 POP JUMP INVALID LOG2 PUSH5 0x6970667358 0x22 SLT KECCAK256 SWAP9 0xD6 PUSH6 0x5F7693C1E87B 0xAE SWAP15 0x2C DUP9 NOT 0xDC PUSH23 0x60CC4B3524350513323F67736DA6898764736F6C634300 ADDMOD 0xD STOP CALLER LOG2 PUSH5 0x6970667358 0x22 SLT KECCAK256 CALLVALUE 0xE3 DUP4 SWAP15 0xD0 SWAP7 0xD CALLVALUE 0xEC PUSH26 0xBB6EB3FF5343EEF3EBCEA3524BFA39BE4CA3EC2EFA8264736F6C PUSH4 0x4300080D STOP CALLER "
        },
        "methodIdentifiers": {
          "INITIAL_COLLATERAL_RATIO_PERCENTAGE()": "aba98b60",
          "allowance(address,address)": "dd62ed3e",
          "approve(address,uint256)": "095ea7b3",
          "balanceOf(address)": "70a08231",
          "burn(uint256)": "42966c68",
          "decimals()": "313ce567",
          "deposit(address)": "f340fa01",
          "depositCollateralBuffer()": "37707fb8",
          "depositorCoin()": "78e037ba",
          "feeRatePercentage()": "cf1137ff",
          "mint()": "1249c58b",
          "name()": "06fdde03",
          "oracle()": "7dc0d1d0",
          "redeem(uint256)": "db006a75",
          "symbol()": "95d89b41",
          "totalSupply()": "18160ddd",
          "transfer(address,uint256)": "a9059cbb",
          "transferFrom(address,address,uint256)": "23b872dd",
          "withdrawCollateralBuffer(uint256)": "c6fbba3f"
        }
      }
    }
  }
}