{
  "_format": "hh-sol-artifact-1",
  "contractName": "StableCoin",
  "sourceName": "contracts/StableCoin.sol",
  "abi": [
    {
      "inputs": [
        {
          "internalType": "uint256",
          "name": "_feeRatePercentage",
          "type": "uint256"
        },
        {
          "internalType": "contract Oracle",
          "name": "_oracle",
          "type": "address"
        }
      ],
      "stateMutability": "nonpayable",
      "type": "constructor"
    },
    {
      "inputs": [
        {
          "internalType": "string",
          "name": "message",
          "type": "string"
        },
        {
          "internalType": "uint256",
          "name": "minimumDepositAmount",
          "type": "uint256"
        }
      ],
      "name": "InitialCollateralRatioError",
      "type": "error"
    },
    {
      "anonymous": false,
      "inputs": [
        {
          "indexed": true,
          "internalType": "address",
          "name": "owner",
          "type": "address"
        },
        {
          "indexed": true,
          "internalType": "address",
          "name": "spender",
          "type": "address"
        },
        {
          "indexed": false,
          "internalType": "uint256",
          "name": "value",
          "type": "uint256"
        }
      ],
      "name": "Approval",
      "type": "event"
    },
    {
      "anonymous": false,
      "inputs": [
        {
          "indexed": true,
          "internalType": "address",
          "name": "from",
          "type": "address"
        },
        {
          "indexed": true,
          "internalType": "address",
          "name": "to",
          "type": "address"
        },
        {
          "indexed": false,
          "internalType": "uint256",
          "name": "value",
          "type": "uint256"
        }
      ],
      "name": "Transfer",
      "type": "event"
    },
    {
      "inputs": [],
      "name": "INITIAL_COLLATERAL_RATIO_PERCENTAGE",
      "outputs": [
        {
          "internalType": "uint256",
          "name": "",
          "type": "uint256"
        }
      ],
      "stateMutability": "view",
      "type": "function"
    },
    {
      "inputs": [
        {
          "internalType": "address",
          "name": "",
          "type": "address"
        },
        {
          "internalType": "address",
          "name": "",
          "type": "address"
        }
      ],
      "name": "allowance",
      "outputs": [
        {
          "internalType": "uint256",
          "name": "",
          "type": "uint256"
        }
      ],
      "stateMutability": "view",
      "type": "function"
    },
    {
      "inputs": [
        {
          "internalType": "address",
          "name": "spender",
          "type": "address"
        },
        {
          "internalType": "uint256",
          "name": "amount",
          "type": "uint256"
        }
      ],
      "name": "approve",
      "outputs": [
        {
          "internalType": "bool",
          "name": "",
          "type": "bool"
        }
      ],
      "stateMutability": "nonpayable",
      "type": "function"
    },
    {
      "inputs": [
        {
          "internalType": "address",
          "name": "",
          "type": "address"
        }
      ],
      "name": "balanceOf",
      "outputs": [
        {
          "internalType": "uint256",
          "name": "",
          "type": "uint256"
        }
      ],
      "stateMutability": "view",
      "type": "function"
    },
    {
      "inputs": [
        {
          "internalType": "uint256",
          "name": "burnStableCoinAmount",
          "type": "uint256"
        }
      ],
      "name": "burn",
      "outputs": [],
      "stateMutability": "nonpayable",
      "type": "function"
    },
    {
      "inputs": [],
      "name": "decimals",
      "outputs": [
        {
          "internalType": "uint8",
          "name": "",
          "type": "uint8"
        }
      ],
      "stateMutability": "pure",
      "type": "function"
    },
    {
      "inputs": [
        {
          "internalType": "address",
          "name": "to",
          "type": "address"
        }
      ],
      "name": "deposit",
      "outputs": [],
      "stateMutability": "payable",
      "type": "function"
    },
    {
      "inputs": [],
      "name": "depositCollateralBuffer",
      "outputs": [],
      "stateMutability": "payable",
      "type": "function"
    },
    {
      "inputs": [],
      "name": "depositorCoin",
      "outputs": [
        {
          "internalType": "contract DepositorCoin",
          "name": "",
          "type": "address"
        }
      ],
      "stateMutability": "view",
      "type": "function"
    },
    {
      "inputs": [],
      "name": "feeRatePercentage",
      "outputs": [
        {
          "internalType": "uint256",
          "name": "",
          "type": "uint256"
        }
      ],
      "stateMutability": "view",
      "type": "function"
    },
    {
      "inputs": [],
      "name": "mint",
      "outputs": [],
      "stateMutability": "payable",
      "type": "function"
    },
    {
      "inputs": [],
      "name": "name",
      "outputs": [
        {
          "internalType": "string",
          "name": "",
          "type": "string"
        }
      ],
      "stateMutability": "view",
      "type": "function"
    },
    {
      "inputs": [],
      "name": "oracle",
      "outputs": [
        {
          "internalType": "contract Oracle",
          "name": "",
          "type": "address"
        }
      ],
      "stateMutability": "view",
      "type": "function"
    },
    {
      "inputs": [
        {
          "internalType": "uint256",
          "name": "amount",
          "type": "uint256"
        }
      ],
      "name": "redeem",
      "outputs": [],
      "stateMutability": "nonpayable",
      "type": "function"
    },
    {
      "inputs": [],
      "name": "symbol",
      "outputs": [
        {
          "internalType": "string",
          "name": "",
          "type": "string"
        }
      ],
      "stateMutability": "view",
      "type": "function"
    },
    {
      "inputs": [],
      "name": "totalSupply",
      "outputs": [
        {
          "internalType": "uint256",
          "name": "",
          "type": "uint256"
        }
      ],
      "stateMutability": "view",
      "type": "function"
    },
    {
      "inputs": [
        {
          "internalType": "address",
          "name": "recipient",
          "type": "address"
        },
        {
          "internalType": "uint256",
          "name": "amount",
          "type": "uint256"
        }
      ],
      "name": "transfer",
      "outputs": [
        {
          "internalType": "bool",
          "name": "",
          "type": "bool"
        }
      ],
      "stateMutability": "nonpayable",
      "type": "function"
    },
    {
      "inputs": [
        {
          "internalType": "address",
          "name": "sender",
          "type": "address"
        },
        {
          "internalType": "address",
          "name": "recipient",
          "type": "address"
        },
        {
          "internalType": "uint256",
          "name": "amount",
          "type": "uint256"
        }
      ],
      "name": "transferFrom",
      "outputs": [
        {
          "internalType": "bool",
          "name": "",
          "type": "bool"
        }
      ],
      "stateMutability": "nonpayable",
      "type": "function"
    },
    {
      "inputs": [
        {
          "internalType": "uint256",
          "name": "burnDepositorCoinAmount",
          "type": "uint256"
        }
      ],
      "name": "withdrawCollateralBuffer",
      "outputs": [],
      "stateMutability": "nonpayable",
      "type": "function"
    }
  ],
  "bytecode": "0x60806040523480156200001157600080fd5b5060405162004b5038038062004b508339818101604052810190620000379190620003fb565b6040518060400160405280600a81526020017f537461626c65436f696e000000000000000000000000000000000000000000008152506040518060400160405280600381526020017f53544300000000000000000000000000000000000000000000000000000000008152508160019080519060200190620000bb92919062000292565b508060029080519060200190620000d492919062000292565b50620000f03368056bc75e2d631000006200014260201b60201c565b50508160068190555080600760006101000a81548173ffffffffffffffffffffffffffffffffffffffff021916908373ffffffffffffffffffffffffffffffffffffffff1602179055505050620005e3565b600073ffffffffffffffffffffffffffffffffffffffff168273ffffffffffffffffffffffffffffffffffffffff1603620001b4576040517f08c379a0000000000000000000000000000000000000000000000000000000008152600401620001ab90620004a3565b60405180910390fd5b80600080828254620001c79190620004f4565b9250508190555080600360008473ffffffffffffffffffffffffffffffffffffffff1673ffffffffffffffffffffffffffffffffffffffff16815260200190815260200160002060008282546200021f9190620004f4565b925050819055508173ffffffffffffffffffffffffffffffffffffffff16600073ffffffffffffffffffffffffffffffffffffffff167fddf252ad1be2c89b69c2b068fc378daa952ba7f163c4a11628f55a4df523b3ef8360405162000286919062000562565b60405180910390a35050565b828054620002a090620005ae565b90600052602060002090601f016020900481019282620002c4576000855562000310565b82601f10620002df57805160ff191683800117855562000310565b8280016001018555821562000310579182015b828111156200030f578251825591602001919060010190620002f2565b5b5090506200031f919062000323565b5090565b5b808211156200033e57600081600090555060010162000324565b5090565b600080fd5b6000819050919050565b6200035c8162000347565b81146200036857600080fd5b50565b6000815190506200037c8162000351565b92915050565b600073ffffffffffffffffffffffffffffffffffffffff82169050919050565b6000620003af8262000382565b9050919050565b6000620003c382620003a2565b9050919050565b620003d581620003b6565b8114620003e157600080fd5b50565b600081519050620003f581620003ca565b92915050565b6000806040838503121562000415576200041462000342565b5b600062000425858286016200036b565b92505060206200043885828601620003e4565b9150509250929050565b600082825260208201905092915050565b7f6d696e7420746f207a65726f2061646472657373000000000000000000000000600082015250565b60006200048b60148362000442565b9150620004988262000453565b602082019050919050565b60006020820190508181036000830152620004be816200047c565b9050919050565b7f4e487b7100000000000000000000000000000000000000000000000000000000600052601160045260246000fd5b6000620005018262000347565b91506200050e8362000347565b9250827fffffffffffffffffffffffffffffffffffffffffffffffffffffffffffffffff03821115620005465762000545620004c5565b5b828201905092915050565b6200055c8162000347565b82525050565b600060208201905062000579600083018462000551565b92915050565b7f4e487b7100000000000000000000000000000000000000000000000000000000600052602260045260246000fd5b60006002820490506001821680620005c757607f821691505b602082108103620005dd57620005dc6200057f565b5b50919050565b61455d80620005f36000396000f3fe6080604052600436106200012e5760003560e01c806378e037ba11620000af578063c6fbba3f116200006d578063c6fbba3f14620003d9578063cf1137ff1462000407578063db006a751462000437578063dd62ed3e1462000465578063f340fa0114620004a9576200012e565b806378e037ba14620002d55780637dc0d1d0146200030557806395d89b411462000335578063a9059cbb1462000365578063aba98b6014620003a9576200012e565b806323b872dd11620000fd57806323b872dd14620001e3578063313ce567146200022757806337707fb8146200025757806342966c68146200026357806370a082311462000291576200012e565b806306fdde031462000133578063095ea7b314620001635780631249c58b14620001a757806318160ddd14620001b3575b600080fd5b3480156200014057600080fd5b506200014b620004c9565b6040516200015a919062001c71565b60405180910390f35b3480156200017057600080fd5b506200018f600480360381019062000189919062001d3a565b6200055f565b6040516200019e919062001d9e565b60405180910390f35b620001b1620006c4565b005b348015620001c057600080fd5b50620001cb6200079b565b604051620001da919062001dcc565b60405180910390f35b348015620001f057600080fd5b506200020f600480360381019062000209919062001de9565b620007a1565b6040516200021e919062001d9e565b60405180910390f35b3480156200023457600080fd5b506200023f6200090e565b6040516200024e919062001e63565b60405180910390f35b6200026162000917565b005b3480156200027057600080fd5b506200028f600480360381019062000289919062001e80565b62000d44565b005b3480156200029e57600080fd5b50620002bd6004803603810190620002b7919062001eb2565b62000f26565b604051620002cc919062001dcc565b60405180910390f35b348015620002e257600080fd5b50620002ed62000f3e565b604051620002fc919062001f4f565b60405180910390f35b3480156200031257600080fd5b506200031d62000f64565b6040516200032c919062001f91565b60405180910390f35b3480156200034257600080fd5b506200034d62000f8a565b6040516200035c919062001c71565b60405180910390f35b3480156200037257600080fd5b506200039160048036038101906200038b919062001d3a565b62001020565b604051620003a0919062001d9e565b60405180910390f35b348015620003b657600080fd5b50620003c162001037565b604051620003d0919062001dcc565b60405180910390f35b348015620003e657600080fd5b50620004056004803603810190620003ff919062001e80565b6200103c565b005b3480156200041457600080fd5b506200041f62001397565b6040516200042e919062001dcc565b60405180910390f35b3480156200044457600080fd5b506200046360048036038101906200045d919062001e80565b6200139d565b005b3480156200047257600080fd5b506200049160048036038101906200048b919062001fae565b620013ba565b604051620004a0919062001dcc565b60405180910390f35b620004c76004803603810190620004c1919062001eb2565b620013df565b005b60018054620004d89062002024565b80601f0160208091040260200160405190810160405280929190818152602001828054620005069062002024565b8015620005575780601f106200052b5761010080835404028352916020019162000557565b820191906000526020600020905b8154815290600101906020018083116200053957829003601f168201915b505050505081565b60008073ffffffffffffffffffffffffffffffffffffffff168373ffffffffffffffffffffffffffffffffffffffff1603620005d2576040517f08c379a0000000000000000000000000000000000000000000000000000000008152600401620005c990620020a9565b60405180910390fd5b81600460003373ffffffffffffffffffffffffffffffffffffffff1673ffffffffffffffffffffffffffffffffffffffff16815260200190815260200160002060008573ffffffffffffffffffffffffffffffffffffffff1673ffffffffffffffffffffffffffffffffffffffff168152602001908152602001600020819055508273ffffffffffffffffffffffffffffffffffffffff163373ffffffffffffffffffffffffffffffffffffffff167f8c5be1e5ebec7d5bd14f71427d1e84f3dd0314c0f7b2291e5b200ac8c7c3b92584604051620006b2919062001dcc565b60405180910390a36001905092915050565b6000620006d134620013ee565b905060008134620006e39190620020fa565b90506000600760009054906101000a900473ffffffffffffffffffffffffffffffffffffffff1673ffffffffffffffffffffffffffffffffffffffff166398d5fdca6040518163ffffffff1660e01b8152600401602060405180830381865afa15801562000755573d6000803e3d6000fd5b505050506040513d601f19601f820116820180604052508101906200077b91906200214c565b826200078891906200217e565b90506200079633826200151e565b505050565b60005481565b600080600460008673ffffffffffffffffffffffffffffffffffffffff1673ffffffffffffffffffffffffffffffffffffffff16815260200190815260200160002060003373ffffffffffffffffffffffffffffffffffffffff1673ffffffffffffffffffffffffffffffffffffffff1681526020019081526020016000205490508281101562000869576040517f08c379a000000000000000000000000000000000000000000000000000000000815260040162000860906200222f565b60405180910390fd5b8281620008779190620020fa565b600460008773ffffffffffffffffffffffffffffffffffffffff1673ffffffffffffffffffffffffffffffffffffffff16815260200190815260200160002060003373ffffffffffffffffffffffffffffffffffffffff1673ffffffffffffffffffffffffffffffffffffffff16815260200190815260200160002081905550620009048585856200166e565b9150509392505050565b60006012905090565b60006200092362001886565b90506000811362000bdd5760007fffffffffffffffffffffffffffffffffffffffffffffffffffffffffffffffff826200095e91906200225b565b90506000600760009054906101000a900473ffffffffffffffffffffffffffffffffffffffff1673ffffffffffffffffffffffffffffffffffffffff166398d5fdca6040518163ffffffff1660e01b8152600401602060405180830381865afa158015620009d0573d6000803e3d6000fd5b505050506040513d601f19601f82011682018060405250810190620009f691906200214c565b90506000818362000a089190620023b1565b905060006064600054600a62000a1f91906200217e565b62000a2b9190620023b1565b90506000838262000a3d9190620023b1565b9050808362000a4d9190620023e9565b34101562000aa6576000818462000a659190620023e9565b9050806040517f21bfe98800000000000000000000000000000000000000000000000000000000815260040162000a9d9190620024bc565b60405180910390fd5b6000833462000ab69190620020fa565b90506000858262000ac891906200217e565b905060405162000ad89062001bbf565b604051809103906000f08015801562000af5573d6000803e3d6000fd5b50600560006101000a81548173ffffffffffffffffffffffffffffffffffffffff021916908373ffffffffffffffffffffffffffffffffffffffff1602179055506000819050600560009054906101000a900473ffffffffffffffffffffffffffffffffffffffff1673ffffffffffffffffffffffffffffffffffffffff166340c10f1933836040518363ffffffff1660e01b815260040162000b9a929190620024ff565b600060405180830381600087803b15801562000bb557600080fd5b505af115801562000bca573d6000803e3d6000fd5b5050505050505050505050505062000d42565b6000819050600062000bef826200195a565b90506000600760009054906101000a900473ffffffffffffffffffffffffffffffffffffffff1673ffffffffffffffffffffffffffffffffffffffff166398d5fdca6040518163ffffffff1660e01b8152600401602060405180830381865afa15801562000c61573d6000803e3d6000fd5b505050506040513d601f19601f8201168201806040525081019062000c8791906200214c565b62000c9c833462001a0290919063ffffffff16565b62000ca89190620023b1565b9050600560009054906101000a900473ffffffffffffffffffffffffffffffffffffffff1673ffffffffffffffffffffffffffffffffffffffff166340c10f1933836040518363ffffffff1660e01b815260040162000d09929190620024ff565b600060405180830381600087803b15801562000d2457600080fd5b505af115801562000d39573d6000803e3d6000fd5b50505050505050505b565b600062000d5062001886565b9050600081121562000d99576040517f08c379a000000000000000000000000000000000000000000000000000000000815260040162000d90906200257c565b60405180910390fd5b62000da5338362001a2f565b6000600760009054906101000a900473ffffffffffffffffffffffffffffffffffffffff1673ffffffffffffffffffffffffffffffffffffffff166398d5fdca6040518163ffffffff1660e01b8152600401602060405180830381865afa15801562000e15573d6000803e3d6000fd5b505050506040513d601f19601f8201168201806040525081019062000e3b91906200214c565b8362000e489190620023b1565b9050600062000e5782620013ee565b90506000818362000e699190620020fa565b905060003373ffffffffffffffffffffffffffffffffffffffff168260405162000e9390620025d3565b60006040518083038185875af1925050503d806000811462000ed2576040519150601f19603f3d011682016040523d82523d6000602084013e62000ed7565b606091505b505090508062000f1e576040517f08c379a000000000000000000000000000000000000000000000000000000000815260040162000f15906200263a565b60405180910390fd5b505050505050565b60036020528060005260406000206000915090505481565b600560009054906101000a900473ffffffffffffffffffffffffffffffffffffffff1681565b600760009054906101000a900473ffffffffffffffffffffffffffffffffffffffff1681565b6002805462000f999062002024565b80601f016020809104026020016040519081016040528092919081815260200182805462000fc79062002024565b8015620010185780601f1062000fec5761010080835404028352916020019162001018565b820191906000526020600020905b81548152906001019060200180831162000ffa57829003601f168201915b505050505081565b60006200102f3384846200166e565b905092915050565b600a81565b80600560009054906101000a900473ffffffffffffffffffffffffffffffffffffffff1673ffffffffffffffffffffffffffffffffffffffff166370a08231336040518263ffffffff1660e01b81526004016200109a91906200265c565b602060405180830381865afa158015620010b8573d6000803e3d6000fd5b505050506040513d601f19601f82011682018060405250810190620010de91906200214c565b101562001122576040517f08c379a00000000000000000000000000000000000000000000000000000000081526004016200111990620026ef565b60405180910390fd5b600560009054906101000a900473ffffffffffffffffffffffffffffffffffffffff1673ffffffffffffffffffffffffffffffffffffffff16639dc29fac33836040518363ffffffff1660e01b815260040162001181929190620024ff565b600060405180830381600087803b1580156200119c57600080fd5b505af1158015620011b1573d6000803e3d6000fd5b505050506000620011c162001886565b90506000811362001209576040517f08c379a0000000000000000000000000000000000000000000000000000000008152600401620012009062002761565b60405180910390fd5b600081905060006200121b826200195a565b9050600062001234828662001a0290919063ffffffff16565b90506000600760009054906101000a900473ffffffffffffffffffffffffffffffffffffffff1673ffffffffffffffffffffffffffffffffffffffff166398d5fdca6040518163ffffffff1660e01b8152600401602060405180830381865afa158015620012a6573d6000803e3d6000fd5b505050506040513d601f19601f82011682018060405250810190620012cc91906200214c565b82620012d99190620023b1565b905060003373ffffffffffffffffffffffffffffffffffffffff16826040516200130390620025d3565b60006040518083038185875af1925050503d806000811462001342576040519150601f19603f3d011682016040523d82523d6000602084013e62001347565b606091505b50509050806200138e576040517f08c379a00000000000000000000000000000000000000000000000000000000081526004016200138590620027f9565b60405180910390fd5b50505050505050565b60065481565b620013aa333083620007a1565b50620013b7308262001a2f565b50565b6004602052816000526040600020602052806000526040600020600091509150505481565b620013eb81346200151e565b50565b600080600073ffffffffffffffffffffffffffffffffffffffff16600560009054906101000a900473ffffffffffffffffffffffffffffffffffffffff1673ffffffffffffffffffffffffffffffffffffffff1614158015620014e457506000600560009054906101000a900473ffffffffffffffffffffffffffffffffffffffff1673ffffffffffffffffffffffffffffffffffffffff166318160ddd6040518163ffffffff1660e01b8152600401602060405180830381865afa158015620014bc573d6000803e3d6000fd5b505050506040513d601f19601f82011682018060405250810190620014e291906200214c565b115b905080620014f757600091505062001519565b6064836006546200150991906200217e565b620015159190620023b1565b9150505b919050565b600073ffffffffffffffffffffffffffffffffffffffff168273ffffffffffffffffffffffffffffffffffffffff160362001590576040517f08c379a000000000000000000000000000000000000000000000000000000000815260040162001587906200286b565b60405180910390fd5b80600080828254620015a39190620023e9565b9250508190555080600360008473ffffffffffffffffffffffffffffffffffffffff1673ffffffffffffffffffffffffffffffffffffffff1681526020019081526020016000206000828254620015fb9190620023e9565b925050819055508173ffffffffffffffffffffffffffffffffffffffff16600073ffffffffffffffffffffffffffffffffffffffff167fddf252ad1be2c89b69c2b068fc378daa952ba7f163c4a11628f55a4df523b3ef8360405162001662919062001dcc565b60405180910390a35050565b60008073ffffffffffffffffffffffffffffffffffffffff168373ffffffffffffffffffffffffffffffffffffffff1603620016e1576040517f08c379a0000000000000000000000000000000000000000000000000000000008152600401620016d890620028dd565b60405180910390fd5b6000600360008673ffffffffffffffffffffffffffffffffffffffff1673ffffffffffffffffffffffffffffffffffffffff1681526020019081526020016000205490508281116200176a576040517f08c379a000000000000000000000000000000000000000000000000000000000815260040162001761906200294f565b60405180910390fd5b8281620017789190620020fa565b600360008773ffffffffffffffffffffffffffffffffffffffff1673ffffffffffffffffffffffffffffffffffffffff1681526020019081526020016000208190555082600360008673ffffffffffffffffffffffffffffffffffffffff1673ffffffffffffffffffffffffffffffffffffffff16815260200190815260200160002060008282546200180c9190620023e9565b925050819055508373ffffffffffffffffffffffffffffffffffffffff168573ffffffffffffffffffffffffffffffffffffffff167fddf252ad1be2c89b69c2b068fc378daa952ba7f163c4a11628f55a4df523b3ef8560405162001872919062001dcc565b60405180910390a360019150509392505050565b600080600760009054906101000a900473ffffffffffffffffffffffffffffffffffffffff1673ffffffffffffffffffffffffffffffffffffffff166398d5fdca6040518163ffffffff1660e01b8152600401602060405180830381865afa158015620018f7573d6000803e3d6000fd5b505050506040513d601f19601f820116820180604052508101906200191d91906200214c565b34476200192b9190620020fa565b6200193791906200217e565b9050600080549050600081836200194f919062002971565b905080935050505090565b6000620019fb600560009054906101000a900473ffffffffffffffffffffffffffffffffffffffff1673ffffffffffffffffffffffffffffffffffffffff166318160ddd6040518163ffffffff1660e01b8152600401602060405180830381865afa158015620019ce573d6000803e3d6000fd5b505050506040513d601f19601f82011682018060405250810190620019f491906200214c565b8362001b7f565b9050919050565b6000670de0b6b3a7640000828462001a1b91906200217e565b62001a279190620023b1565b905092915050565b600073ffffffffffffffffffffffffffffffffffffffff168273ffffffffffffffffffffffffffffffffffffffff160362001aa1576040517f08c379a000000000000000000000000000000000000000000000000000000000815260040162001a989062002a5f565b60405180910390fd5b8060008082825462001ab49190620020fa565b9250508190555080600360008473ffffffffffffffffffffffffffffffffffffffff1673ffffffffffffffffffffffffffffffffffffffff168152602001908152602001600020600082825462001b0c9190620020fa565b925050819055508173ffffffffffffffffffffffffffffffffffffffff16600073ffffffffffffffffffffffffffffffffffffffff167fddf252ad1be2c89b69c2b068fc378daa952ba7f163c4a11628f55a4df523b3ef8360405162001b73919062001dcc565b60405180910390a35050565b600080830362001b93576000905062001bb9565b81670de0b6b3a76400008462001baa91906200217e565b62001bb69190620023b1565b90505b92915050565b611aa68062002a8283390190565b600081519050919050565b600082825260208201905092915050565b60005b8381101562001c0957808201518184015260208101905062001bec565b8381111562001c19576000848401525b50505050565b6000601f19601f8301169050919050565b600062001c3d8262001bcd565b62001c49818562001bd8565b935062001c5b81856020860162001be9565b62001c668162001c1f565b840191505092915050565b6000602082019050818103600083015262001c8d818462001c30565b905092915050565b600080fd5b600073ffffffffffffffffffffffffffffffffffffffff82169050919050565b600062001cc78262001c9a565b9050919050565b62001cd98162001cba565b811462001ce557600080fd5b50565b60008135905062001cf98162001cce565b92915050565b6000819050919050565b62001d148162001cff565b811462001d2057600080fd5b50565b60008135905062001d348162001d09565b92915050565b6000806040838503121562001d545762001d5362001c95565b5b600062001d648582860162001ce8565b925050602062001d778582860162001d23565b9150509250929050565b60008115159050919050565b62001d988162001d81565b82525050565b600060208201905062001db5600083018462001d8d565b92915050565b62001dc68162001cff565b82525050565b600060208201905062001de3600083018462001dbb565b92915050565b60008060006060848603121562001e055762001e0462001c95565b5b600062001e158682870162001ce8565b935050602062001e288682870162001ce8565b925050604062001e3b8682870162001d23565b9150509250925092565b600060ff82169050919050565b62001e5d8162001e45565b82525050565b600060208201905062001e7a600083018462001e52565b92915050565b60006020828403121562001e995762001e9862001c95565b5b600062001ea98482850162001d23565b91505092915050565b60006020828403121562001ecb5762001eca62001c95565b5b600062001edb8482850162001ce8565b91505092915050565b6000819050919050565b600062001f0f62001f0962001f038462001c9a565b62001ee4565b62001c9a565b9050919050565b600062001f238262001eee565b9050919050565b600062001f378262001f16565b9050919050565b62001f498162001f2a565b82525050565b600060208201905062001f66600083018462001f3e565b92915050565b600062001f798262001f16565b9050919050565b62001f8b8162001f6c565b82525050565b600060208201905062001fa8600083018462001f80565b92915050565b6000806040838503121562001fc85762001fc762001c95565b5b600062001fd88582860162001ce8565b925050602062001feb8582860162001ce8565b9150509250929050565b7f4e487b7100000000000000000000000000000000000000000000000000000000600052602260045260246000fd5b600060028204905060018216806200203d57607f821691505b60208210810362002053576200205262001ff5565b5b50919050565b7f617070726f766520746f207a65726f2061646472657373000000000000000000600082015250565b60006200209160178362001bd8565b91506200209e8262002059565b602082019050919050565b60006020820190508181036000830152620020c48162002082565b9050919050565b7f4e487b7100000000000000000000000000000000000000000000000000000000600052601160045260246000fd5b6000620021078262001cff565b9150620021148362001cff565b9250828210156200212a5762002129620020cb565b5b828203905092915050565b600081519050620021468162001d09565b92915050565b60006020828403121562002165576200216462001c95565b5b6000620021758482850162002135565b91505092915050565b60006200218b8262001cff565b9150620021988362001cff565b9250817fffffffffffffffffffffffffffffffffffffffffffffffffffffffffffffffff0483118215151615620021d457620021d3620020cb565b5b828202905092915050565b7f616d6f756e74206578636565647320616c6c6f77616e63650000000000000000600082015250565b60006200221760188362001bd8565b91506200222482620021df565b602082019050919050565b600060208201905081810360008301526200224a8162002208565b9050919050565b6000819050919050565b6000620022688262002251565b9150620022758362002251565b9250827f7fffffffffffffffffffffffffffffffffffffffffffffffffffffffffffffff0482116000841360008413161615620022b757620022b6620020cb565b5b817f80000000000000000000000000000000000000000000000000000000000000000583126000841260008413161615620022f757620022f6620020cb565b5b827f80000000000000000000000000000000000000000000000000000000000000000582126000841360008412161615620023375762002336620020cb565b5b827f7fffffffffffffffffffffffffffffffffffffffffffffffffffffffffffffff0582126000841260008412161615620023775762002376620020cb565b5b828202905092915050565b7f4e487b7100000000000000000000000000000000000000000000000000000000600052601260045260246000fd5b6000620023be8262001cff565b9150620023cb8362001cff565b925082620023de57620023dd62002382565b5b828204905092915050565b6000620023f68262001cff565b9150620024038362001cff565b9250827fffffffffffffffffffffffffffffffffffffffffffffffffffffffffffffffff038211156200243b576200243a620020cb565b5b828201905092915050565b7f5354433a20496e697469616c20636f6c6c61746572616c20726174696f206e6f60008201527f74206d65742c206d696e696d756d206973200000000000000000000000000000602082015250565b6000620024a460328362001bd8565b9150620024b18262002446565b604082019050919050565b60006040820190508181036000830152620024d78162002495565b9050620024e8602083018462001dbb565b92915050565b620024f98162001cba565b82525050565b6000604082019050620025166000830185620024ee565b62002525602083018462001dbb565b9392505050565b7f63616e6e6f74206275726e207768696c6520696e206465666963697400000000600082015250565b600062002564601c8362001bd8565b915062002571826200252c565b602082019050919050565b60006020820190508181036000830152620025978162002555565b9050919050565b600081905092915050565b50565b6000620025bb6000836200259e565b9150620025c882620025a9565b600082019050919050565b6000620025e082620025ac565b9150819050919050565b7f4275726e20726566756e64207472616e73616374696f6e206661696c65640000600082015250565b600062002622601e8362001bd8565b91506200262f82620025ea565b602082019050919050565b60006020820190508181036000830152620026558162002613565b9050919050565b6000602082019050620026736000830184620024ee565b92915050565b7f53656e6465722068617320696e73756666696369656e74204450432066756e6460008201527f7300000000000000000000000000000000000000000000000000000000000000602082015250565b6000620026d760218362001bd8565b9150620026e48262002679565b604082019050919050565b600060208201905081810360008301526200270a81620026c8565b9050919050565b7f4e6f2066756e647320746f207769746864726177000000000000000000000000600082015250565b60006200274960148362001bd8565b9150620027568262002711565b602082019050919050565b600060208201905081810360008301526200277c816200273a565b9050919050565b7f576974686472617720726566756e64207472616e73616374696f6e206661696c60008201527f6564000000000000000000000000000000000000000000000000000000000000602082015250565b6000620027e160228362001bd8565b9150620027ee8262002783565b604082019050919050565b600060208201905081810360008301526200281481620027d2565b9050919050565b7f6d696e7420746f207a65726f2061646472657373000000000000000000000000600082015250565b60006200285360148362001bd8565b915062002860826200281b565b602082019050919050565b60006020820190508181036000830152620028868162002844565b9050919050565b7f7472616e7366657220746f20746865207a65726f206164647265737300000000600082015250565b6000620028c5601c8362001bd8565b9150620028d2826200288d565b602082019050919050565b60006020820190508181036000830152620028f881620028b6565b9050919050565b7f7472616e7366657220616d6f756e7420657863656564732062616c616e636500600082015250565b600062002937601f8362001bd8565b91506200294482620028ff565b602082019050919050565b600060208201905081810360008301526200296a8162002928565b9050919050565b60006200297e8262002251565b91506200298b8362002251565b9250827f800000000000000000000000000000000000000000000000000000000000000001821260008412151615620029c957620029c8620020cb565b5b827f7fffffffffffffffffffffffffffffffffffffffffffffffffffffffffffffff01821360008412161562002a045762002a03620020cb565b5b828203905092915050565b7f6275726e20746f207a65726f2061646472657373000000000000000000000000600082015250565b600062002a4760148362001bd8565b915062002a548262002a0f565b602082019050919050565b6000602082019050818103600083015262002a7a8162002a38565b905091905056fe60806040523480156200001157600080fd5b506040518060400160405280600d81526020017f4465706f7369746f72436f696e000000000000000000000000000000000000008152506040518060400160405280600381526020017f535443000000000000000000000000000000000000000000000000000000000081525081600190805190602001906200009692919062000264565b508060029080519060200190620000af92919062000264565b50620000cb3368056bc75e2d631000006200011460201b60201c565b505033600560006101000a81548173ffffffffffffffffffffffffffffffffffffffff021916908373ffffffffffffffffffffffffffffffffffffffff160217905550620004bf565b600073ffffffffffffffffffffffffffffffffffffffff168273ffffffffffffffffffffffffffffffffffffffff160362000186576040517f08c379a00000000000000000000000000000000000000000000000000000000081526004016200017d9062000375565b60405180910390fd5b80600080828254620001999190620003d0565b9250508190555080600360008473ffffffffffffffffffffffffffffffffffffffff1673ffffffffffffffffffffffffffffffffffffffff1681526020019081526020016000206000828254620001f19190620003d0565b925050819055508173ffffffffffffffffffffffffffffffffffffffff16600073ffffffffffffffffffffffffffffffffffffffff167fddf252ad1be2c89b69c2b068fc378daa952ba7f163c4a11628f55a4df523b3ef836040516200025891906200043e565b60405180910390a35050565b82805462000272906200048a565b90600052602060002090601f016020900481019282620002965760008555620002e2565b82601f10620002b157805160ff1916838001178555620002e2565b82800160010185558215620002e2579182015b82811115620002e1578251825591602001919060010190620002c4565b5b509050620002f19190620002f5565b5090565b5b8082111562000310576000816000905550600101620002f6565b5090565b600082825260208201905092915050565b7f6d696e7420746f207a65726f2061646472657373000000000000000000000000600082015250565b60006200035d60148362000314565b91506200036a8262000325565b602082019050919050565b6000602082019050818103600083015262000390816200034e565b9050919050565b6000819050919050565b7f4e487b7100000000000000000000000000000000000000000000000000000000600052601160045260246000fd5b6000620003dd8262000397565b9150620003ea8362000397565b9250827fffffffffffffffffffffffffffffffffffffffffffffffffffffffffffffffff03821115620004225762000421620003a1565b5b828201905092915050565b620004388162000397565b82525050565b60006020820190506200045560008301846200042d565b92915050565b7f4e487b7100000000000000000000000000000000000000000000000000000000600052602260045260246000fd5b60006002820490506001821680620004a357607f821691505b602082108103620004b957620004b86200045b565b5b50919050565b6115d780620004cf6000396000f3fe6080604052600436106100dd5760003560e01c80638da5cb5b1161007f578063a9059cbb11610059578063a9059cbb146102c2578063db006a75146102ff578063dd62ed3e14610328578063f340fa0114610365576100dd565b80638da5cb5b1461024357806395d89b411461026e5780639dc29fac14610299576100dd565b806323b872dd116100bb57806323b872dd14610175578063313ce567146101b257806340c10f19146101dd57806370a0823114610206576100dd565b806306fdde03146100e2578063095ea7b31461010d57806318160ddd1461014a575b600080fd5b3480156100ee57600080fd5b506100f7610381565b6040516101049190610e7f565b60405180910390f35b34801561011957600080fd5b50610134600480360381019061012f9190610f3a565b61040f565b6040516101419190610f95565b60405180910390f35b34801561015657600080fd5b5061015f61056f565b60405161016c9190610fbf565b60405180910390f35b34801561018157600080fd5b5061019c60048036038101906101979190610fda565b610575565b6040516101a99190610f95565b60405180910390f35b3480156101be57600080fd5b506101c76106db565b6040516101d49190611049565b60405180910390f35b3480156101e957600080fd5b5061020460048036038101906101ff9190610f3a565b6106e4565b005b34801561021257600080fd5b5061022d60048036038101906102289190611064565b610782565b60405161023a9190610fbf565b60405180910390f35b34801561024f57600080fd5b5061025861079a565b60405161026591906110a0565b60405180910390f35b34801561027a57600080fd5b506102836107c0565b6040516102909190610e7f565b60405180910390f35b3480156102a557600080fd5b506102c060048036038101906102bb9190610f3a565b61084e565b005b3480156102ce57600080fd5b506102e960048036038101906102e49190610f3a565b6108ec565b6040516102f69190610f95565b60405180910390f35b34801561030b57600080fd5b50610326600480360381019061032191906110bb565b610901565b005b34801561033457600080fd5b5061034f600480360381019061034a91906110e8565b61091a565b60405161035c9190610fbf565b60405180910390f35b61037f600480360381019061037a9190611064565b61093f565b005b6001805461038e90611157565b80601f01602080910402602001604051908101604052809291908181526020018280546103ba90611157565b80156104075780601f106103dc57610100808354040283529160200191610407565b820191906000526020600020905b8154815290600101906020018083116103ea57829003601f168201915b505050505081565b60008073ffffffffffffffffffffffffffffffffffffffff168373ffffffffffffffffffffffffffffffffffffffff160361047f576040517f08c379a0000000000000000000000000000000000000000000000000000000008152600401610476906111d4565b60405180910390fd5b81600460003373ffffffffffffffffffffffffffffffffffffffff1673ffffffffffffffffffffffffffffffffffffffff16815260200190815260200160002060008573ffffffffffffffffffffffffffffffffffffffff1673ffffffffffffffffffffffffffffffffffffffff168152602001908152602001600020819055508273ffffffffffffffffffffffffffffffffffffffff163373ffffffffffffffffffffffffffffffffffffffff167f8c5be1e5ebec7d5bd14f71427d1e84f3dd0314c0f7b2291e5b200ac8c7c3b9258460405161055d9190610fbf565b60405180910390a36001905092915050565b60005481565b600080600460008673ffffffffffffffffffffffffffffffffffffffff1673ffffffffffffffffffffffffffffffffffffffff16815260200190815260200160002060003373ffffffffffffffffffffffffffffffffffffffff1673ffffffffffffffffffffffffffffffffffffffff1681526020019081526020016000205490508281101561063a576040517f08c379a000000000000000000000000000000000000000000000000000000000815260040161063190611240565b60405180910390fd5b8281610646919061128f565b600460008773ffffffffffffffffffffffffffffffffffffffff1673ffffffffffffffffffffffffffffffffffffffff16815260200190815260200160002060003373ffffffffffffffffffffffffffffffffffffffff1673ffffffffffffffffffffffffffffffffffffffff168152602001908152602001600020819055506106d185858561094c565b9150509392505050565b60006012905090565b600560009054906101000a900473ffffffffffffffffffffffffffffffffffffffff1673ffffffffffffffffffffffffffffffffffffffff163373ffffffffffffffffffffffffffffffffffffffff1614610774576040517f08c379a000000000000000000000000000000000000000000000000000000000815260040161076b9061130f565b60405180910390fd5b61077e8282610b58565b5050565b60036020528060005260406000206000915090505481565b600560009054906101000a900473ffffffffffffffffffffffffffffffffffffffff1681565b600280546107cd90611157565b80601f01602080910402602001604051908101604052809291908181526020018280546107f990611157565b80156108465780601f1061081b57610100808354040283529160200191610846565b820191906000526020600020905b81548152906001019060200180831161082957829003601f168201915b505050505081565b600560009054906101000a900473ffffffffffffffffffffffffffffffffffffffff1673ffffffffffffffffffffffffffffffffffffffff163373ffffffffffffffffffffffffffffffffffffffff16146108de576040517f08c379a00000000000000000000000000000000000000000000000000000000081526004016108d59061137b565b60405180910390fd5b6108e88282610c9f565b5050565b60006108f933848461094c565b905092915050565b61090c333083610575565b506109173082610c9f565b50565b6004602052816000526040600020602052806000526040600020600091509150505481565b6109498134610b58565b50565b60008073ffffffffffffffffffffffffffffffffffffffff168373ffffffffffffffffffffffffffffffffffffffff16036109bc576040517f08c379a00000000000000000000000000000000000000000000000000000000081526004016109b3906113e7565b60405180910390fd5b6000600360008673ffffffffffffffffffffffffffffffffffffffff1673ffffffffffffffffffffffffffffffffffffffff168152602001908152602001600020549050828111610a42576040517f08c379a0000000000000000000000000000000000000000000000000000000008152600401610a3990611453565b60405180910390fd5b8281610a4e919061128f565b600360008773ffffffffffffffffffffffffffffffffffffffff1673ffffffffffffffffffffffffffffffffffffffff1681526020019081526020016000208190555082600360008673ffffffffffffffffffffffffffffffffffffffff1673ffffffffffffffffffffffffffffffffffffffff1681526020019081526020016000206000828254610ae09190611473565b925050819055508373ffffffffffffffffffffffffffffffffffffffff168573ffffffffffffffffffffffffffffffffffffffff167fddf252ad1be2c89b69c2b068fc378daa952ba7f163c4a11628f55a4df523b3ef85604051610b449190610fbf565b60405180910390a360019150509392505050565b600073ffffffffffffffffffffffffffffffffffffffff168273ffffffffffffffffffffffffffffffffffffffff1603610bc7576040517f08c379a0000000000000000000000000000000000000000000000000000000008152600401610bbe90611515565b60405180910390fd5b80600080828254610bd89190611473565b9250508190555080600360008473ffffffffffffffffffffffffffffffffffffffff1673ffffffffffffffffffffffffffffffffffffffff1681526020019081526020016000206000828254610c2e9190611473565b925050819055508173ffffffffffffffffffffffffffffffffffffffff16600073ffffffffffffffffffffffffffffffffffffffff167fddf252ad1be2c89b69c2b068fc378daa952ba7f163c4a11628f55a4df523b3ef83604051610c939190610fbf565b60405180910390a35050565b600073ffffffffffffffffffffffffffffffffffffffff168273ffffffffffffffffffffffffffffffffffffffff1603610d0e576040517f08c379a0000000000000000000000000000000000000000000000000000000008152600401610d0590611581565b60405180910390fd5b80600080828254610d1f919061128f565b9250508190555080600360008473ffffffffffffffffffffffffffffffffffffffff1673ffffffffffffffffffffffffffffffffffffffff1681526020019081526020016000206000828254610d75919061128f565b925050819055508173ffffffffffffffffffffffffffffffffffffffff16600073ffffffffffffffffffffffffffffffffffffffff167fddf252ad1be2c89b69c2b068fc378daa952ba7f163c4a11628f55a4df523b3ef83604051610dda9190610fbf565b60405180910390a35050565b600081519050919050565b600082825260208201905092915050565b60005b83811015610e20578082015181840152602081019050610e05565b83811115610e2f576000848401525b50505050565b6000601f19601f8301169050919050565b6000610e5182610de6565b610e5b8185610df1565b9350610e6b818560208601610e02565b610e7481610e35565b840191505092915050565b60006020820190508181036000830152610e998184610e46565b905092915050565b600080fd5b600073ffffffffffffffffffffffffffffffffffffffff82169050919050565b6000610ed182610ea6565b9050919050565b610ee181610ec6565b8114610eec57600080fd5b50565b600081359050610efe81610ed8565b92915050565b6000819050919050565b610f1781610f04565b8114610f2257600080fd5b50565b600081359050610f3481610f0e565b92915050565b60008060408385031215610f5157610f50610ea1565b5b6000610f5f85828601610eef565b9250506020610f7085828601610f25565b9150509250929050565b60008115159050919050565b610f8f81610f7a565b82525050565b6000602082019050610faa6000830184610f86565b92915050565b610fb981610f04565b82525050565b6000602082019050610fd46000830184610fb0565b92915050565b600080600060608486031215610ff357610ff2610ea1565b5b600061100186828701610eef565b935050602061101286828701610eef565b925050604061102386828701610f25565b9150509250925092565b600060ff82169050919050565b6110438161102d565b82525050565b600060208201905061105e600083018461103a565b92915050565b60006020828403121561107a57611079610ea1565b5b600061108884828501610eef565b91505092915050565b61109a81610ec6565b82525050565b60006020820190506110b56000830184611091565b92915050565b6000602082840312156110d1576110d0610ea1565b5b60006110df84828501610f25565b91505092915050565b600080604083850312156110ff576110fe610ea1565b5b600061110d85828601610eef565b925050602061111e85828601610eef565b9150509250929050565b7f4e487b7100000000000000000000000000000000000000000000000000000000600052602260045260246000fd5b6000600282049050600182168061116f57607f821691505b60208210810361118257611181611128565b5b50919050565b7f617070726f766520746f207a65726f2061646472657373000000000000000000600082015250565b60006111be601783610df1565b91506111c982611188565b602082019050919050565b600060208201905081810360008301526111ed816111b1565b9050919050565b7f616d6f756e74206578636565647320616c6c6f77616e63650000000000000000600082015250565b600061122a601883610df1565b9150611235826111f4565b602082019050919050565b600060208201905081810360008301526112598161121d565b9050919050565b7f4e487b7100000000000000000000000000000000000000000000000000000000600052601160045260246000fd5b600061129a82610f04565b91506112a583610f04565b9250828210156112b8576112b7611260565b5b828203905092915050565b7f6f6e6c79206f776e65722063616e206d696e7400000000000000000000000000600082015250565b60006112f9601383610df1565b9150611304826112c3565b602082019050919050565b60006020820190508181036000830152611328816112ec565b9050919050565b7f6f6e6c79206f776e65722063616e206275726e00000000000000000000000000600082015250565b6000611365601383610df1565b91506113708261132f565b602082019050919050565b6000602082019050818103600083015261139481611358565b9050919050565b7f7472616e7366657220746f20746865207a65726f206164647265737300000000600082015250565b60006113d1601c83610df1565b91506113dc8261139b565b602082019050919050565b60006020820190508181036000830152611400816113c4565b9050919050565b7f7472616e7366657220616d6f756e7420657863656564732062616c616e636500600082015250565b600061143d601f83610df1565b915061144882611407565b602082019050919050565b6000602082019050818103600083015261146c81611430565b9050919050565b600061147e82610f04565b915061148983610f04565b9250827fffffffffffffffffffffffffffffffffffffffffffffffffffffffffffffffff038211156114be576114bd611260565b5b828201905092915050565b7f6d696e7420746f207a65726f2061646472657373000000000000000000000000600082015250565b60006114ff601483610df1565b915061150a826114c9565b602082019050919050565b6000602082019050818103600083015261152e816114f2565b9050919050565b7f6275726e20746f207a65726f2061646472657373000000000000000000000000600082015250565b600061156b601483610df1565b915061157682611535565b602082019050919050565b6000602082019050818103600083015261159a8161155e565b905091905056fea264697066735822122098d6655f7693c1e87bae9e2c8819dc7660cc4b3524350513323f67736da6898764736f6c634300080d0033a264697066735822122034e3839ed0960d34ec79bb6eb3ff5343eef3ebcea3524bfa39be4ca3ec2efa8264736f6c634300080d0033",
  "linkReferences": {},
  "deployedLinkReferences": {}
}